{
	"contracts/TWITTER PROJECT/Twitter.sol": {
		"twitter": {
			"abi": [
				{
					"inputs": [
						{
							"internalType": "address",
							"name": "_profileContract",
							"type": "address"
						}
					],
					"stateMutability": "nonpayable",
					"type": "constructor"
				},
				{
					"inputs": [
						{
							"internalType": "address",
							"name": "owner",
							"type": "address"
						}
					],
					"name": "OwnableInvalidOwner",
					"type": "error"
				},
				{
					"inputs": [
						{
							"internalType": "address",
							"name": "account",
							"type": "address"
						}
					],
					"name": "OwnableUnauthorizedAccount",
					"type": "error"
				},
				{
					"anonymous": false,
					"inputs": [
						{
							"indexed": true,
							"internalType": "address",
							"name": "previousOwner",
							"type": "address"
						},
						{
							"indexed": true,
							"internalType": "address",
							"name": "newOwner",
							"type": "address"
						}
					],
					"name": "OwnershipTransferred",
					"type": "event"
				},
				{
					"anonymous": false,
					"inputs": [
						{
							"indexed": false,
							"internalType": "uint256",
							"name": "id",
							"type": "uint256"
						},
						{
							"indexed": false,
							"internalType": "address",
							"name": "author",
							"type": "address"
						},
						{
							"indexed": false,
							"internalType": "string",
							"name": "content",
							"type": "string"
						},
						{
							"indexed": false,
							"internalType": "uint256",
							"name": "timestamp",
							"type": "uint256"
						}
					],
					"name": "TweetCreated",
					"type": "event"
				},
				{
					"anonymous": false,
					"inputs": [
						{
							"indexed": false,
							"internalType": "address",
							"name": "liker",
							"type": "address"
						},
						{
							"indexed": false,
							"internalType": "address",
							"name": "tweetAuthor",
							"type": "address"
						},
						{
							"indexed": false,
							"internalType": "uint256",
							"name": "tweetID",
							"type": "uint256"
						},
						{
							"indexed": false,
							"internalType": "uint256",
							"name": "newLikeCount",
							"type": "uint256"
						}
					],
					"name": "TweetLiked",
					"type": "event"
				},
				{
					"anonymous": false,
					"inputs": [
						{
							"indexed": false,
							"internalType": "address",
							"name": "Unliker",
							"type": "address"
						},
						{
							"indexed": false,
							"internalType": "address",
							"name": "tweetAuthor",
							"type": "address"
						},
						{
							"indexed": false,
							"internalType": "uint256",
							"name": "tweetID",
							"type": "uint256"
						},
						{
							"indexed": false,
							"internalType": "uint256",
							"name": "newLikeCount",
							"type": "uint256"
						}
					],
					"name": "TweetUnliked",
					"type": "event"
				},
				{
					"inputs": [
						{
							"internalType": "uint16",
							"name": "newLength",
							"type": "uint16"
						}
					],
					"name": "changeTweetLength",
					"outputs": [],
					"stateMutability": "nonpayable",
					"type": "function"
				},
				{
					"inputs": [
						{
							"internalType": "string",
							"name": "tweet",
							"type": "string"
						}
					],
					"name": "createTweet",
					"outputs": [],
					"stateMutability": "nonpayable",
					"type": "function"
				},
				{
					"inputs": [
						{
							"internalType": "address",
							"name": "sender",
							"type": "address"
						}
					],
					"name": "getAlltweets",
					"outputs": [
						{
							"components": [
								{
									"internalType": "uint256",
									"name": "id",
									"type": "uint256"
								},
								{
									"internalType": "address",
									"name": "author",
									"type": "address"
								},
								{
									"internalType": "string",
									"name": "content",
									"type": "string"
								},
								{
									"internalType": "uint256",
									"name": "timestamp",
									"type": "uint256"
								},
								{
									"internalType": "uint256",
									"name": "likes",
									"type": "uint256"
								}
							],
							"internalType": "struct twitter.Stweet[]",
							"name": "",
							"type": "tuple[]"
						}
					],
					"stateMutability": "view",
					"type": "function"
				},
				{
					"inputs": [
						{
							"internalType": "address",
							"name": "_author",
							"type": "address"
						}
					],
					"name": "getTotalLikes",
					"outputs": [
						{
							"internalType": "uint256",
							"name": "",
							"type": "uint256"
						}
					],
					"stateMutability": "view",
					"type": "function"
				},
				{
					"inputs": [
						{
							"internalType": "uint256",
							"name": "i",
							"type": "uint256"
						}
					],
					"name": "getTweet",
					"outputs": [
						{
							"components": [
								{
									"internalType": "uint256",
									"name": "id",
									"type": "uint256"
								},
								{
									"internalType": "address",
									"name": "author",
									"type": "address"
								},
								{
									"internalType": "string",
									"name": "content",
									"type": "string"
								},
								{
									"internalType": "uint256",
									"name": "timestamp",
									"type": "uint256"
								},
								{
									"internalType": "uint256",
									"name": "likes",
									"type": "uint256"
								}
							],
							"internalType": "struct twitter.Stweet",
							"name": "",
							"type": "tuple"
						}
					],
					"stateMutability": "view",
					"type": "function"
				},
				{
					"inputs": [
						{
							"internalType": "address",
							"name": "author",
							"type": "address"
						},
						{
							"internalType": "uint256",
							"name": "id",
							"type": "uint256"
						}
					],
					"name": "likeTweet",
					"outputs": [],
					"stateMutability": "nonpayable",
					"type": "function"
				},
				{
					"inputs": [],
					"name": "max_length",
					"outputs": [
						{
							"internalType": "uint16",
							"name": "",
							"type": "uint16"
						}
					],
					"stateMutability": "view",
					"type": "function"
				},
				{
					"inputs": [],
					"name": "owner",
					"outputs": [
						{
							"internalType": "address",
							"name": "",
							"type": "address"
						}
					],
					"stateMutability": "view",
					"type": "function"
				},
				{
					"inputs": [],
					"name": "renounceOwnership",
					"outputs": [],
					"stateMutability": "nonpayable",
					"type": "function"
				},
				{
					"inputs": [
						{
							"internalType": "address",
							"name": "newOwner",
							"type": "address"
						}
					],
					"name": "transferOwnership",
					"outputs": [],
					"stateMutability": "nonpayable",
					"type": "function"
				},
				{
					"inputs": [
						{
							"internalType": "address",
							"name": "",
							"type": "address"
						},
						{
							"internalType": "uint256",
							"name": "",
							"type": "uint256"
						}
					],
					"name": "tweets",
					"outputs": [
						{
							"internalType": "uint256",
							"name": "id",
							"type": "uint256"
						},
						{
							"internalType": "address",
							"name": "author",
							"type": "address"
						},
						{
							"internalType": "string",
							"name": "content",
							"type": "string"
						},
						{
							"internalType": "uint256",
							"name": "timestamp",
							"type": "uint256"
						},
						{
							"internalType": "uint256",
							"name": "likes",
							"type": "uint256"
						}
					],
					"stateMutability": "view",
					"type": "function"
				},
				{
					"inputs": [
						{
							"internalType": "address",
							"name": "author",
							"type": "address"
						},
						{
							"internalType": "uint256",
							"name": "id",
							"type": "uint256"
						}
					],
					"name": "unlikeTweet",
					"outputs": [],
					"stateMutability": "nonpayable",
					"type": "function"
				}
			],
			"devdoc": {
				"errors": {
					"OwnableInvalidOwner(address)": [
						{
							"details": "The owner is not a valid owner account. (eg. `address(0)`)"
						}
					],
					"OwnableUnauthorizedAccount(address)": [
						{
							"details": "The caller account is not authorized to perform an operation."
						}
					]
				},
				"kind": "dev",
				"methods": {
					"owner()": {
						"details": "Returns the address of the current owner."
					},
					"renounceOwnership()": {
						"details": "Leaves the contract without owner. It will not be possible to call `onlyOwner` functions. Can only be called by the current owner. NOTE: Renouncing ownership will leave the contract without an owner, thereby disabling any functionality that is only available to the owner."
					},
					"transferOwnership(address)": {
						"details": "Transfers ownership of the contract to a new account (`newOwner`). Can only be called by the current owner."
					}
				},
				"version": 1
			},
			"evm": {
				"assembly": "    /* \"contracts/TWITTER PROJECT/Twitter.sol\":309:3285  contract twitter is Ownable{... */\n  mstore(0x40, 0x80)\n    /* \"contracts/TWITTER PROJECT/Twitter.sol\":370:373  280 */\n  0x0118\n    /* \"contracts/TWITTER PROJECT/Twitter.sol\":345:373  uint16 public max_length=280 */\n  0x00\n  exp(0x0100, 0x14)\n  dup2\n  sload\n  dup2\n  0xffff\n  mul\n  not\n  and\n  swap1\n  dup4\n  0xffff\n  and\n  mul\n  or\n  swap1\n  sstore\n  pop\n    /* \"contracts/TWITTER PROJECT/Twitter.sol\":1271:1390  constructor(address _profileContract)Ownable(msg.sender){... */\n  callvalue\n  dup1\n  iszero\n  tag_1\n  jumpi\n  0x00\n  dup1\n  revert\ntag_1:\n  pop\n  mload(0x40)\n  sub(codesize, bytecodeSize)\n  dup1\n  bytecodeSize\n  dup4\n  codecopy\n  dup2\n  dup2\n  add\n  0x40\n  mstore\n  dup2\n  add\n  swap1\n  tag_2\n  swap2\n  swap1\n  tag_3\n  jump\t// in\ntag_2:\n    /* \"contracts/TWITTER PROJECT/Twitter.sol\":1316:1326  msg.sender */\n  caller\n    /* \"@openzeppelin/contracts/access/Ownable.sol\":1297:1298  0 */\n  0x00\n    /* \"@openzeppelin/contracts/access/Ownable.sol\":1273:1299  initialOwner == address(0) */\n  0xffffffffffffffffffffffffffffffffffffffff\n  and\n    /* \"@openzeppelin/contracts/access/Ownable.sol\":1273:1285  initialOwner */\n  dup2\n    /* \"@openzeppelin/contracts/access/Ownable.sol\":1273:1299  initialOwner == address(0) */\n  0xffffffffffffffffffffffffffffffffffffffff\n  and\n  sub\n    /* \"@openzeppelin/contracts/access/Ownable.sol\":1269:1364  if (initialOwner == address(0)) {... */\n  tag_7\n  jumpi\n    /* \"@openzeppelin/contracts/access/Ownable.sol\":1350:1351  0 */\n  0x00\n    /* \"@openzeppelin/contracts/access/Ownable.sol\":1322:1353  OwnableInvalidOwner(address(0)) */\n  mload(0x40)\n  0x1e4fbdf700000000000000000000000000000000000000000000000000000000\n  dup2\n  mstore\n  0x04\n  add\n  tag_8\n  swap2\n  swap1\n  tag_9\n  jump\t// in\ntag_8:\n  mload(0x40)\n  dup1\n  swap2\n  sub\n  swap1\n  revert\n    /* \"@openzeppelin/contracts/access/Ownable.sol\":1269:1364  if (initialOwner == address(0)) {... */\ntag_7:\n    /* \"@openzeppelin/contracts/access/Ownable.sol\":1373:1405  _transferOwnership(initialOwner) */\n  tag_10\n    /* \"@openzeppelin/contracts/access/Ownable.sol\":1392:1404  initialOwner */\n  dup2\n    /* \"@openzeppelin/contracts/access/Ownable.sol\":1373:1391  _transferOwnership */\n  shl(0x20, tag_11)\n    /* \"@openzeppelin/contracts/access/Ownable.sol\":1373:1405  _transferOwnership(initialOwner) */\n  0x20\n  shr\n  jump\t// in\ntag_10:\n    /* \"@openzeppelin/contracts/access/Ownable.sol\":1225:1412  constructor(address initialOwner) {... */\n  pop\n    /* \"contracts/TWITTER PROJECT/Twitter.sol\":1365:1381  _profileContract */\n  dup1\n    /* \"contracts/TWITTER PROJECT/Twitter.sol\":1338:1353  profileContract */\n  0x02\n  0x00\n    /* \"contracts/TWITTER PROJECT/Twitter.sol\":1338:1382  profileContract = Iprofile(_profileContract) */\n  0x0100\n  exp\n  dup2\n  sload\n  dup2\n  0xffffffffffffffffffffffffffffffffffffffff\n  mul\n  not\n  and\n  swap1\n  dup4\n  0xffffffffffffffffffffffffffffffffffffffff\n  and\n  mul\n  or\n  swap1\n  sstore\n  pop\n    /* \"contracts/TWITTER PROJECT/Twitter.sol\":1271:1390  constructor(address _profileContract)Ownable(msg.sender){... */\n  pop\n    /* \"contracts/TWITTER PROJECT/Twitter.sol\":309:3285  contract twitter is Ownable{... */\n  jump(tag_13)\n    /* \"@openzeppelin/contracts/access/Ownable.sol\":2912:3099  function _transferOwnership(address newOwner) internal virtual {... */\ntag_11:\n    /* \"@openzeppelin/contracts/access/Ownable.sol\":2985:3001  address oldOwner */\n  0x00\n    /* \"@openzeppelin/contracts/access/Ownable.sol\":3004:3010  _owner */\n  dup1\n  0x00\n  swap1\n  sload\n  swap1\n  0x0100\n  exp\n  swap1\n  div\n  0xffffffffffffffffffffffffffffffffffffffff\n  and\n    /* \"@openzeppelin/contracts/access/Ownable.sol\":2985:3010  address oldOwner = _owner */\n  swap1\n  pop\n    /* \"@openzeppelin/contracts/access/Ownable.sol\":3029:3037  newOwner */\n  dup2\n    /* \"@openzeppelin/contracts/access/Ownable.sol\":3020:3026  _owner */\n  0x00\n  dup1\n    /* \"@openzeppelin/contracts/access/Ownable.sol\":3020:3037  _owner = newOwner */\n  0x0100\n  exp\n  dup2\n  sload\n  dup2\n  0xffffffffffffffffffffffffffffffffffffffff\n  mul\n  not\n  and\n  swap1\n  dup4\n  0xffffffffffffffffffffffffffffffffffffffff\n  and\n  mul\n  or\n  swap1\n  sstore\n  pop\n    /* \"@openzeppelin/contracts/access/Ownable.sol\":3083:3091  newOwner */\n  dup2\n    /* \"@openzeppelin/contracts/access/Ownable.sol\":3052:3092  OwnershipTransferred(oldOwner, newOwner) */\n  0xffffffffffffffffffffffffffffffffffffffff\n  and\n    /* \"@openzeppelin/contracts/access/Ownable.sol\":3073:3081  oldOwner */\n  dup2\n    /* \"@openzeppelin/contracts/access/Ownable.sol\":3052:3092  OwnershipTransferred(oldOwner, newOwner) */\n  0xffffffffffffffffffffffffffffffffffffffff\n  and\n  0x8be0079c531659141344cd1fd0a4f28419497f9722a3daafe3b4186f6b6457e0\n  mload(0x40)\n  mload(0x40)\n  dup1\n  swap2\n  sub\n  swap1\n  log3\n    /* \"@openzeppelin/contracts/access/Ownable.sol\":2975:3099  {... */\n  pop\n    /* \"@openzeppelin/contracts/access/Ownable.sol\":2912:3099  function _transferOwnership(address newOwner) internal virtual {... */\n  pop\n  jump\t// out\n    /* \"#utility.yul\":88:205   */\ntag_16:\n    /* \"#utility.yul\":197:198   */\n  0x00\n    /* \"#utility.yul\":194:195   */\n  dup1\n    /* \"#utility.yul\":187:199   */\n  revert\n    /* \"#utility.yul\":334:460   */\ntag_18:\n    /* \"#utility.yul\":371:378   */\n  0x00\n    /* \"#utility.yul\":411:453   */\n  0xffffffffffffffffffffffffffffffffffffffff\n    /* \"#utility.yul\":404:409   */\n  dup3\n    /* \"#utility.yul\":400:454   */\n  and\n    /* \"#utility.yul\":389:454   */\n  swap1\n  pop\n    /* \"#utility.yul\":334:460   */\n  swap2\n  swap1\n  pop\n  jump\t// out\n    /* \"#utility.yul\":466:562   */\ntag_19:\n    /* \"#utility.yul\":503:510   */\n  0x00\n    /* \"#utility.yul\":532:556   */\n  tag_29\n    /* \"#utility.yul\":550:555   */\n  dup3\n    /* \"#utility.yul\":532:556   */\n  tag_18\n  jump\t// in\ntag_29:\n    /* \"#utility.yul\":521:556   */\n  swap1\n  pop\n    /* \"#utility.yul\":466:562   */\n  swap2\n  swap1\n  pop\n  jump\t// out\n    /* \"#utility.yul\":568:690   */\ntag_20:\n    /* \"#utility.yul\":641:665   */\n  tag_31\n    /* \"#utility.yul\":659:664   */\n  dup2\n    /* \"#utility.yul\":641:665   */\n  tag_19\n  jump\t// in\ntag_31:\n    /* \"#utility.yul\":634:639   */\n  dup2\n    /* \"#utility.yul\":631:666   */\n  eq\n    /* \"#utility.yul\":621:684   */\n  tag_32\n  jumpi\n    /* \"#utility.yul\":680:681   */\n  0x00\n    /* \"#utility.yul\":677:678   */\n  dup1\n    /* \"#utility.yul\":670:682   */\n  revert\n    /* \"#utility.yul\":621:684   */\ntag_32:\n    /* \"#utility.yul\":568:690   */\n  pop\n  jump\t// out\n    /* \"#utility.yul\":696:839   */\ntag_21:\n    /* \"#utility.yul\":753:758   */\n  0x00\n    /* \"#utility.yul\":784:790   */\n  dup2\n    /* \"#utility.yul\":778:791   */\n  mload\n    /* \"#utility.yul\":769:791   */\n  swap1\n  pop\n    /* \"#utility.yul\":800:833   */\n  tag_34\n    /* \"#utility.yul\":827:832   */\n  dup2\n    /* \"#utility.yul\":800:833   */\n  tag_20\n  jump\t// in\ntag_34:\n    /* \"#utility.yul\":696:839   */\n  swap3\n  swap2\n  pop\n  pop\n  jump\t// out\n    /* \"#utility.yul\":845:1196   */\ntag_3:\n    /* \"#utility.yul\":915:921   */\n  0x00\n    /* \"#utility.yul\":964:966   */\n  0x20\n    /* \"#utility.yul\":952:961   */\n  dup3\n    /* \"#utility.yul\":943:950   */\n  dup5\n    /* \"#utility.yul\":939:962   */\n  sub\n    /* \"#utility.yul\":935:967   */\n  slt\n    /* \"#utility.yul\":932:1051   */\n  iszero\n  tag_36\n  jumpi\n    /* \"#utility.yul\":970:1049   */\n  tag_37\n  tag_16\n  jump\t// in\ntag_37:\n    /* \"#utility.yul\":932:1051   */\ntag_36:\n    /* \"#utility.yul\":1090:1091   */\n  0x00\n    /* \"#utility.yul\":1115:1179   */\n  tag_38\n    /* \"#utility.yul\":1171:1178   */\n  dup5\n    /* \"#utility.yul\":1162:1168   */\n  dup3\n    /* \"#utility.yul\":1151:1160   */\n  dup6\n    /* \"#utility.yul\":1147:1169   */\n  add\n    /* \"#utility.yul\":1115:1179   */\n  tag_21\n  jump\t// in\ntag_38:\n    /* \"#utility.yul\":1105:1179   */\n  swap2\n  pop\n    /* \"#utility.yul\":1061:1189   */\n  pop\n    /* \"#utility.yul\":845:1196   */\n  swap3\n  swap2\n  pop\n  pop\n  jump\t// out\n    /* \"#utility.yul\":1202:1320   */\ntag_22:\n    /* \"#utility.yul\":1289:1313   */\n  tag_40\n    /* \"#utility.yul\":1307:1312   */\n  dup2\n    /* \"#utility.yul\":1289:1313   */\n  tag_19\n  jump\t// in\ntag_40:\n    /* \"#utility.yul\":1284:1287   */\n  dup3\n    /* \"#utility.yul\":1277:1314   */\n  mstore\n    /* \"#utility.yul\":1202:1320   */\n  pop\n  pop\n  jump\t// out\n    /* \"#utility.yul\":1326:1548   */\ntag_9:\n    /* \"#utility.yul\":1419:1423   */\n  0x00\n    /* \"#utility.yul\":1457:1459   */\n  0x20\n    /* \"#utility.yul\":1446:1455   */\n  dup3\n    /* \"#utility.yul\":1442:1460   */\n  add\n    /* \"#utility.yul\":1434:1460   */\n  swap1\n  pop\n    /* \"#utility.yul\":1470:1541   */\n  tag_42\n    /* \"#utility.yul\":1538:1539   */\n  0x00\n    /* \"#utility.yul\":1527:1536   */\n  dup4\n    /* \"#utility.yul\":1523:1540   */\n  add\n    /* \"#utility.yul\":1514:1520   */\n  dup5\n    /* \"#utility.yul\":1470:1541   */\n  tag_22\n  jump\t// in\ntag_42:\n    /* \"#utility.yul\":1326:1548   */\n  swap3\n  swap2\n  pop\n  pop\n  jump\t// out\n    /* \"contracts/TWITTER PROJECT/Twitter.sol\":309:3285  contract twitter is Ownable{... */\ntag_13:\n  dataSize(sub_0)\n  dup1\n  dataOffset(sub_0)\n  0x00\n  codecopy\n  0x00\n  return\nstop\n\nsub_0: assembly {\n        /* \"contracts/TWITTER PROJECT/Twitter.sol\":309:3285  contract twitter is Ownable{... */\n      mstore(0x40, 0x80)\n      callvalue\n      dup1\n      iszero\n      tag_1\n      jumpi\n      0x00\n      dup1\n      revert\n    tag_1:\n      pop\n      jumpi(tag_2, lt(calldatasize, 0x04))\n      shr(0xe0, calldataload(0x00))\n      dup1\n      0x7c9cd2bc\n      gt\n      tag_15\n      jumpi\n      dup1\n      0x7c9cd2bc\n      eq\n      tag_9\n      jumpi\n      dup1\n      0x820785cc\n      eq\n      tag_10\n      jumpi\n      dup1\n      0x8da5cb5b\n      eq\n      tag_11\n      jumpi\n      dup1\n      0x9fedc6aa\n      eq\n      tag_12\n      jumpi\n      dup1\n      0xc3ad5ecb\n      eq\n      tag_13\n      jumpi\n      dup1\n      0xf2fde38b\n      eq\n      tag_14\n      jumpi\n      jump(tag_2)\n    tag_15:\n      dup1\n      0x05a1b4a9\n      eq\n      tag_3\n      jumpi\n      dup1\n      0x2b82b1b6\n      eq\n      tag_4\n      jumpi\n      dup1\n      0x3d9b569f\n      eq\n      tag_5\n      jumpi\n      dup1\n      0x58bfa4ab\n      eq\n      tag_6\n      jumpi\n      dup1\n      0x63378216\n      eq\n      tag_7\n      jumpi\n      dup1\n      0x715018a6\n      eq\n      tag_8\n      jumpi\n    tag_2:\n      0x00\n      dup1\n      revert\n        /* \"contracts/TWITTER PROJECT/Twitter.sol\":534:576  mapping(address => Stweet[]) public tweets */\n    tag_3:\n      tag_16\n      0x04\n      dup1\n      calldatasize\n      sub\n      dup2\n      add\n      swap1\n      tag_17\n      swap2\n      swap1\n      tag_18\n      jump\t// in\n    tag_17:\n      tag_19\n      jump\t// in\n    tag_16:\n      mload(0x40)\n      tag_20\n      swap6\n      swap5\n      swap4\n      swap3\n      swap2\n      swap1\n      tag_21\n      jump\t// in\n    tag_20:\n      mload(0x40)\n      dup1\n      swap2\n      sub\n      swap1\n      return\n        /* \"contracts/TWITTER PROJECT/Twitter.sol\":345:373  uint16 public max_length=280 */\n    tag_4:\n      tag_22\n      tag_23\n      jump\t// in\n    tag_22:\n      mload(0x40)\n      tag_24\n      swap2\n      swap1\n      tag_25\n      jump\t// in\n    tag_24:\n      mload(0x40)\n      dup1\n      swap2\n      sub\n      swap1\n      return\n        /* \"contracts/TWITTER PROJECT/Twitter.sol\":2429:2764  function unlikeTweet(address author, uint256 id) external onlyRegistered {... */\n    tag_5:\n      tag_26\n      0x04\n      dup1\n      calldatasize\n      sub\n      dup2\n      add\n      swap1\n      tag_27\n      swap2\n      swap1\n      tag_18\n      jump\t// in\n    tag_27:\n      tag_28\n      jump\t// in\n    tag_26:\n      stop\n        /* \"contracts/TWITTER PROJECT/Twitter.sol\":1520:1620  function changeTweetLength(uint16 newLength) public onlyOwner{... */\n    tag_6:\n      tag_29\n      0x04\n      dup1\n      calldatasize\n      sub\n      dup2\n      add\n      swap1\n      tag_30\n      swap2\n      swap1\n      tag_31\n      jump\t// in\n    tag_30:\n      tag_32\n      jump\t// in\n    tag_29:\n      stop\n        /* \"contracts/TWITTER PROJECT/Twitter.sol\":2158:2421  function likeTweet(address author, uint256 id) external onlyRegistered {... */\n    tag_7:\n      tag_33\n      0x04\n      dup1\n      calldatasize\n      sub\n      dup2\n      add\n      swap1\n      tag_34\n      swap2\n      swap1\n      tag_18\n      jump\t// in\n    tag_34:\n      tag_35\n      jump\t// in\n    tag_33:\n      stop\n        /* \"@openzeppelin/contracts/access/Ownable.sol\":2293:2394  function renounceOwnership() public virtual onlyOwner {... */\n    tag_8:\n      tag_36\n      tag_37\n      jump\t// in\n    tag_36:\n      stop\n        /* \"contracts/TWITTER PROJECT/Twitter.sol\":1628:2150  function createTweet(string memory tweet) public onlyRegistered {... */\n    tag_9:\n      tag_38\n      0x04\n      dup1\n      calldatasize\n      sub\n      dup2\n      add\n      swap1\n      tag_39\n      swap2\n      swap1\n      tag_40\n      jump\t// in\n    tag_39:\n      tag_41\n      jump\t// in\n    tag_38:\n      stop\n        /* \"contracts/TWITTER PROJECT/Twitter.sol\":2772:3040  function getTotalLikes(address _author) external view returns (uint256){... */\n    tag_10:\n      tag_42\n      0x04\n      dup1\n      calldatasize\n      sub\n      dup2\n      add\n      swap1\n      tag_43\n      swap2\n      swap1\n      tag_44\n      jump\t// in\n    tag_43:\n      tag_45\n      jump\t// in\n    tag_42:\n      mload(0x40)\n      tag_46\n      swap2\n      swap1\n      tag_47\n      jump\t// in\n    tag_46:\n      mload(0x40)\n      dup1\n      swap2\n      sub\n      swap1\n      return\n        /* \"@openzeppelin/contracts/access/Ownable.sol\":1638:1723  function owner() public view virtual returns (address) {... */\n    tag_11:\n      tag_48\n      tag_49\n      jump\t// in\n    tag_48:\n      mload(0x40)\n      tag_50\n      swap2\n      swap1\n      tag_51\n      jump\t// in\n    tag_50:\n      mload(0x40)\n      dup1\n      swap2\n      sub\n      swap1\n      return\n        /* \"contracts/TWITTER PROJECT/Twitter.sol\":3167:3280  function getAlltweets(address sender)public view returns(Stweet[] memory){... */\n    tag_12:\n      tag_52\n      0x04\n      dup1\n      calldatasize\n      sub\n      dup2\n      add\n      swap1\n      tag_53\n      swap2\n      swap1\n      tag_44\n      jump\t// in\n    tag_53:\n      tag_54\n      jump\t// in\n    tag_52:\n      mload(0x40)\n      tag_55\n      swap2\n      swap1\n      tag_56\n      jump\t// in\n    tag_55:\n      mload(0x40)\n      dup1\n      swap2\n      sub\n      swap1\n      return\n        /* \"contracts/TWITTER PROJECT/Twitter.sol\":3048:3159  function getTweet(uint256 i) public view returns (Stweet memory){... */\n    tag_13:\n      tag_57\n      0x04\n      dup1\n      calldatasize\n      sub\n      dup2\n      add\n      swap1\n      tag_58\n      swap2\n      swap1\n      tag_59\n      jump\t// in\n    tag_58:\n      tag_60\n      jump\t// in\n    tag_57:\n      mload(0x40)\n      tag_61\n      swap2\n      swap1\n      tag_62\n      jump\t// in\n    tag_61:\n      mload(0x40)\n      dup1\n      swap2\n      sub\n      swap1\n      return\n        /* \"@openzeppelin/contracts/access/Ownable.sol\":2543:2758  function transferOwnership(address newOwner) public virtual onlyOwner {... */\n    tag_14:\n      tag_63\n      0x04\n      dup1\n      calldatasize\n      sub\n      dup2\n      add\n      swap1\n      tag_64\n      swap2\n      swap1\n      tag_44\n      jump\t// in\n    tag_64:\n      tag_65\n      jump\t// in\n    tag_63:\n      stop\n        /* \"contracts/TWITTER PROJECT/Twitter.sol\":534:576  mapping(address => Stweet[]) public tweets */\n    tag_19:\n      mstore(0x20, 0x01)\n      dup2\n      0x00\n      mstore\n      keccak256(0x00, 0x40)\n      dup2\n      dup2\n      sload\n      dup2\n      lt\n      tag_66\n      jumpi\n      0x00\n      dup1\n      revert\n    tag_66:\n      swap1\n      0x00\n      mstore\n      keccak256(0x00, 0x20)\n      swap1\n      0x05\n      mul\n      add\n      0x00\n      swap2\n      pop\n      swap2\n      pop\n      pop\n      dup1\n      0x00\n      add\n      sload\n      swap1\n      dup1\n      0x01\n      add\n      0x00\n      swap1\n      sload\n      swap1\n      0x0100\n      exp\n      swap1\n      div\n      0xffffffffffffffffffffffffffffffffffffffff\n      and\n      swap1\n      dup1\n      0x02\n      add\n      dup1\n      sload\n      tag_68\n      swap1\n      tag_69\n      jump\t// in\n    tag_68:\n      dup1\n      0x1f\n      add\n      0x20\n      dup1\n      swap2\n      div\n      mul\n      0x20\n      add\n      mload(0x40)\n      swap1\n      dup2\n      add\n      0x40\n      mstore\n      dup1\n      swap3\n      swap2\n      swap1\n      dup2\n      dup2\n      mstore\n      0x20\n      add\n      dup3\n      dup1\n      sload\n      tag_70\n      swap1\n      tag_69\n      jump\t// in\n    tag_70:\n      dup1\n      iszero\n      tag_71\n      jumpi\n      dup1\n      0x1f\n      lt\n      tag_72\n      jumpi\n      0x0100\n      dup1\n      dup4\n      sload\n      div\n      mul\n      dup4\n      mstore\n      swap2\n      0x20\n      add\n      swap2\n      jump(tag_71)\n    tag_72:\n      dup3\n      add\n      swap2\n      swap1\n      0x00\n      mstore\n      keccak256(0x00, 0x20)\n      swap1\n    tag_73:\n      dup2\n      sload\n      dup2\n      mstore\n      swap1\n      0x01\n      add\n      swap1\n      0x20\n      add\n      dup1\n      dup4\n      gt\n      tag_73\n      jumpi\n      dup3\n      swap1\n      sub\n      0x1f\n      and\n      dup3\n      add\n      swap2\n    tag_71:\n      pop\n      pop\n      pop\n      pop\n      pop\n      swap1\n      dup1\n      0x03\n      add\n      sload\n      swap1\n      dup1\n      0x04\n      add\n      sload\n      swap1\n      pop\n      dup6\n      jump\t// out\n        /* \"contracts/TWITTER PROJECT/Twitter.sol\":345:373  uint16 public max_length=280 */\n    tag_23:\n      0x00\n      0x14\n      swap1\n      sload\n      swap1\n      0x0100\n      exp\n      swap1\n      div\n      0xffff\n      and\n      dup2\n      jump\t// out\n        /* \"contracts/TWITTER PROJECT/Twitter.sol\":2429:2764  function unlikeTweet(address author, uint256 id) external onlyRegistered {... */\n    tag_28:\n        /* \"contracts/TWITTER PROJECT/Twitter.sol\":1005:1048  Iprofile.UserProfile memory TempUserProfile */\n      0x00\n        /* \"contracts/TWITTER PROJECT/Twitter.sol\":1051:1066  profileContract */\n      0x02\n      0x00\n      swap1\n      sload\n      swap1\n      0x0100\n      exp\n      swap1\n      div\n      0xffffffffffffffffffffffffffffffffffffffff\n      and\n        /* \"contracts/TWITTER PROJECT/Twitter.sol\":1051:1077  profileContract.getProfile */\n      0xffffffffffffffffffffffffffffffffffffffff\n      and\n      0x0f53a470\n        /* \"contracts/TWITTER PROJECT/Twitter.sol\":1078:1088  msg.sender */\n      caller\n        /* \"contracts/TWITTER PROJECT/Twitter.sol\":1051:1089  profileContract.getProfile(msg.sender) */\n      mload(0x40)\n      dup3\n      0xffffffff\n      and\n      0xe0\n      shl\n      dup2\n      mstore\n      0x04\n      add\n      tag_75\n      swap2\n      swap1\n      tag_51\n      jump\t// in\n    tag_75:\n      0x00\n      mload(0x40)\n      dup1\n      dup4\n      sub\n      dup2\n      dup7\n      gas\n      staticcall\n      iszero\n      dup1\n      iszero\n      tag_77\n      jumpi\n      returndatasize\n      0x00\n      dup1\n      returndatacopy\n      revert(0x00, returndatasize)\n    tag_77:\n      pop\n      pop\n      pop\n      pop\n      mload(0x40)\n      returndatasize\n      0x00\n      dup3\n      returndatacopy\n      returndatasize\n      not(0x1f)\n      0x1f\n      dup3\n      add\n      and\n      dup3\n      add\n      dup1\n      0x40\n      mstore\n      pop\n      dup2\n      add\n      swap1\n      tag_78\n      swap2\n      swap1\n      tag_79\n      jump\t// in\n    tag_78:\n        /* \"contracts/TWITTER PROJECT/Twitter.sol\":1005:1089  Iprofile.UserProfile memory TempUserProfile = profileContract.getProfile(msg.sender) */\n      swap1\n      pop\n        /* \"contracts/TWITTER PROJECT/Twitter.sol\":1152:1153  0 */\n      0x00\n        /* \"contracts/TWITTER PROJECT/Twitter.sol\":1114:1129  TempUserProfile */\n      dup2\n        /* \"contracts/TWITTER PROJECT/Twitter.sol\":1114:1141  TempUserProfile.displayName */\n      0x00\n      add\n      mload\n        /* \"contracts/TWITTER PROJECT/Twitter.sol\":1108:1149  bytes(TempUserProfile.displayName).length */\n      mload\n        /* \"contracts/TWITTER PROJECT/Twitter.sol\":1108:1153  bytes(TempUserProfile.displayName).length > 0 */\n      gt\n        /* \"contracts/TWITTER PROJECT/Twitter.sol\":1100:1180  require(bytes(TempUserProfile.displayName).length > 0, \"User Not Registered !!\") */\n      tag_80\n      jumpi\n      mload(0x40)\n      0x08c379a000000000000000000000000000000000000000000000000000000000\n      dup2\n      mstore\n      0x04\n      add\n      tag_81\n      swap1\n      tag_82\n      jump\t// in\n    tag_81:\n      mload(0x40)\n      dup1\n      swap2\n      sub\n      swap1\n      revert\n    tag_80:\n        /* \"contracts/TWITTER PROJECT/Twitter.sol\":2544:2546  id */\n      dup2\n        /* \"contracts/TWITTER PROJECT/Twitter.sol\":2521:2527  tweets */\n      0x01\n        /* \"contracts/TWITTER PROJECT/Twitter.sol\":2521:2535  tweets[author] */\n      0x00\n        /* \"contracts/TWITTER PROJECT/Twitter.sol\":2528:2534  author */\n      dup6\n        /* \"contracts/TWITTER PROJECT/Twitter.sol\":2521:2535  tweets[author] */\n      0xffffffffffffffffffffffffffffffffffffffff\n      and\n      0xffffffffffffffffffffffffffffffffffffffff\n      and\n      dup2\n      mstore\n      0x20\n      add\n      swap1\n      dup2\n      mstore\n      0x20\n      add\n      0x00\n      keccak256\n        /* \"contracts/TWITTER PROJECT/Twitter.sol\":2536:2538  id */\n      dup4\n        /* \"contracts/TWITTER PROJECT/Twitter.sol\":2521:2539  tweets[author][id] */\n      dup2\n      sload\n      dup2\n      lt\n      tag_84\n      jumpi\n      tag_85\n      tag_86\n      jump\t// in\n    tag_85:\n    tag_84:\n      swap1\n      0x00\n      mstore\n      keccak256(0x00, 0x20)\n      swap1\n      0x05\n      mul\n      add\n        /* \"contracts/TWITTER PROJECT/Twitter.sol\":2521:2542  tweets[author][id].id */\n      0x00\n      add\n      sload\n        /* \"contracts/TWITTER PROJECT/Twitter.sol\":2521:2546  tweets[author][id].id==id */\n      eq\n        /* \"contracts/TWITTER PROJECT/Twitter.sol\":2513:2570  require(tweets[author][id].id==id,\"Tweet does not exist\") */\n      tag_88\n      jumpi\n      mload(0x40)\n      0x08c379a000000000000000000000000000000000000000000000000000000000\n      dup2\n      mstore\n      0x04\n      add\n      tag_89\n      swap1\n      tag_90\n      jump\t// in\n    tag_89:\n      mload(0x40)\n      dup1\n      swap2\n      sub\n      swap1\n      revert\n    tag_88:\n        /* \"contracts/TWITTER PROJECT/Twitter.sol\":2614:2615  0 */\n      0x00\n        /* \"contracts/TWITTER PROJECT/Twitter.sol\":2589:2595  tweets */\n      0x01\n        /* \"contracts/TWITTER PROJECT/Twitter.sol\":2589:2603  tweets[author] */\n      0x00\n        /* \"contracts/TWITTER PROJECT/Twitter.sol\":2596:2602  author */\n      dup6\n        /* \"contracts/TWITTER PROJECT/Twitter.sol\":2589:2603  tweets[author] */\n      0xffffffffffffffffffffffffffffffffffffffff\n      and\n      0xffffffffffffffffffffffffffffffffffffffff\n      and\n      dup2\n      mstore\n      0x20\n      add\n      swap1\n      dup2\n      mstore\n      0x20\n      add\n      0x00\n      keccak256\n        /* \"contracts/TWITTER PROJECT/Twitter.sol\":2604:2606  id */\n      dup4\n        /* \"contracts/TWITTER PROJECT/Twitter.sol\":2589:2607  tweets[author][id] */\n      dup2\n      sload\n      dup2\n      lt\n      tag_91\n      jumpi\n      tag_92\n      tag_86\n      jump\t// in\n    tag_92:\n    tag_91:\n      swap1\n      0x00\n      mstore\n      keccak256(0x00, 0x20)\n      swap1\n      0x05\n      mul\n      add\n        /* \"contracts/TWITTER PROJECT/Twitter.sol\":2589:2613  tweets[author][id].likes */\n      0x04\n      add\n      sload\n        /* \"contracts/TWITTER PROJECT/Twitter.sol\":2589:2615  tweets[author][id].likes>0 */\n      gt\n        /* \"contracts/TWITTER PROJECT/Twitter.sol\":2581:2637  require(tweets[author][id].likes>0,\"Tweet has no likes\") */\n      tag_94\n      jumpi\n      mload(0x40)\n      0x08c379a000000000000000000000000000000000000000000000000000000000\n      dup2\n      mstore\n      0x04\n      add\n      tag_95\n      swap1\n      tag_96\n      jump\t// in\n    tag_95:\n      mload(0x40)\n      dup1\n      swap2\n      sub\n      swap1\n      revert\n    tag_94:\n        /* \"contracts/TWITTER PROJECT/Twitter.sol\":2650:2656  tweets */\n      0x01\n        /* \"contracts/TWITTER PROJECT/Twitter.sol\":2650:2664  tweets[author] */\n      0x00\n        /* \"contracts/TWITTER PROJECT/Twitter.sol\":2657:2663  author */\n      dup5\n        /* \"contracts/TWITTER PROJECT/Twitter.sol\":2650:2664  tweets[author] */\n      0xffffffffffffffffffffffffffffffffffffffff\n      and\n      0xffffffffffffffffffffffffffffffffffffffff\n      and\n      dup2\n      mstore\n      0x20\n      add\n      swap1\n      dup2\n      mstore\n      0x20\n      add\n      0x00\n      keccak256\n        /* \"contracts/TWITTER PROJECT/Twitter.sol\":2665:2667  id */\n      dup3\n        /* \"contracts/TWITTER PROJECT/Twitter.sol\":2650:2668  tweets[author][id] */\n      dup2\n      sload\n      dup2\n      lt\n      tag_97\n      jumpi\n      tag_98\n      tag_86\n      jump\t// in\n    tag_98:\n    tag_97:\n      swap1\n      0x00\n      mstore\n      keccak256(0x00, 0x20)\n      swap1\n      0x05\n      mul\n      add\n        /* \"contracts/TWITTER PROJECT/Twitter.sol\":2650:2674  tweets[author][id].likes */\n      0x04\n      add\n      0x00\n        /* \"contracts/TWITTER PROJECT/Twitter.sol\":2650:2676  tweets[author][id].likes-- */\n      dup2\n      sload\n      dup1\n      swap3\n      swap2\n      swap1\n      tag_100\n      swap1\n      tag_101\n      jump\t// in\n    tag_100:\n      swap2\n      swap1\n      pop\n      sstore\n      pop\n        /* \"contracts/TWITTER PROJECT/Twitter.sol\":2694:2756  TweetUnliked(msg.sender, author, id, tweets[author][id].likes) */\n      0x762c2616349603ac16eba0de8e6141b79129a07ab63bd99e0a80b3a471716943\n        /* \"contracts/TWITTER PROJECT/Twitter.sol\":2707:2717  msg.sender */\n      caller\n        /* \"contracts/TWITTER PROJECT/Twitter.sol\":2719:2725  author */\n      dup5\n        /* \"contracts/TWITTER PROJECT/Twitter.sol\":2727:2729  id */\n      dup5\n        /* \"contracts/TWITTER PROJECT/Twitter.sol\":2731:2737  tweets */\n      0x01\n        /* \"contracts/TWITTER PROJECT/Twitter.sol\":2731:2745  tweets[author] */\n      0x00\n        /* \"contracts/TWITTER PROJECT/Twitter.sol\":2738:2744  author */\n      dup9\n        /* \"contracts/TWITTER PROJECT/Twitter.sol\":2731:2745  tweets[author] */\n      0xffffffffffffffffffffffffffffffffffffffff\n      and\n      0xffffffffffffffffffffffffffffffffffffffff\n      and\n      dup2\n      mstore\n      0x20\n      add\n      swap1\n      dup2\n      mstore\n      0x20\n      add\n      0x00\n      keccak256\n        /* \"contracts/TWITTER PROJECT/Twitter.sol\":2746:2748  id */\n      dup7\n        /* \"contracts/TWITTER PROJECT/Twitter.sol\":2731:2749  tweets[author][id] */\n      dup2\n      sload\n      dup2\n      lt\n      tag_102\n      jumpi\n      tag_103\n      tag_86\n      jump\t// in\n    tag_103:\n    tag_102:\n      swap1\n      0x00\n      mstore\n      keccak256(0x00, 0x20)\n      swap1\n      0x05\n      mul\n      add\n        /* \"contracts/TWITTER PROJECT/Twitter.sol\":2731:2755  tweets[author][id].likes */\n      0x04\n      add\n      sload\n        /* \"contracts/TWITTER PROJECT/Twitter.sol\":2694:2756  TweetUnliked(msg.sender, author, id, tweets[author][id].likes) */\n      mload(0x40)\n      tag_105\n      swap5\n      swap4\n      swap3\n      swap2\n      swap1\n      tag_106\n      jump\t// in\n    tag_105:\n      mload(0x40)\n      dup1\n      swap2\n      sub\n      swap1\n      log1\n        /* \"contracts/TWITTER PROJECT/Twitter.sol\":994:1200  {... */\n      pop\n        /* \"contracts/TWITTER PROJECT/Twitter.sol\":2429:2764  function unlikeTweet(address author, uint256 id) external onlyRegistered {... */\n      pop\n      pop\n      jump\t// out\n        /* \"contracts/TWITTER PROJECT/Twitter.sol\":1520:1620  function changeTweetLength(uint16 newLength) public onlyOwner{... */\n    tag_32:\n        /* \"@openzeppelin/contracts/access/Ownable.sol\":1531:1544  _checkOwner() */\n      tag_108\n        /* \"@openzeppelin/contracts/access/Ownable.sol\":1531:1542  _checkOwner */\n      tag_109\n        /* \"@openzeppelin/contracts/access/Ownable.sol\":1531:1544  _checkOwner() */\n      jump\t// in\n    tag_108:\n        /* \"contracts/TWITTER PROJECT/Twitter.sol\":1603:1612  newLength */\n      dup1\n        /* \"contracts/TWITTER PROJECT/Twitter.sol\":1592:1602  max_length */\n      0x00\n      0x14\n        /* \"contracts/TWITTER PROJECT/Twitter.sol\":1592:1612  max_length=newLength */\n      0x0100\n      exp\n      dup2\n      sload\n      dup2\n      0xffff\n      mul\n      not\n      and\n      swap1\n      dup4\n      0xffff\n      and\n      mul\n      or\n      swap1\n      sstore\n      pop\n        /* \"contracts/TWITTER PROJECT/Twitter.sol\":1520:1620  function changeTweetLength(uint16 newLength) public onlyOwner{... */\n      pop\n      jump\t// out\n        /* \"contracts/TWITTER PROJECT/Twitter.sol\":2158:2421  function likeTweet(address author, uint256 id) external onlyRegistered {... */\n    tag_35:\n        /* \"contracts/TWITTER PROJECT/Twitter.sol\":1005:1048  Iprofile.UserProfile memory TempUserProfile */\n      0x00\n        /* \"contracts/TWITTER PROJECT/Twitter.sol\":1051:1066  profileContract */\n      0x02\n      0x00\n      swap1\n      sload\n      swap1\n      0x0100\n      exp\n      swap1\n      div\n      0xffffffffffffffffffffffffffffffffffffffff\n      and\n        /* \"contracts/TWITTER PROJECT/Twitter.sol\":1051:1077  profileContract.getProfile */\n      0xffffffffffffffffffffffffffffffffffffffff\n      and\n      0x0f53a470\n        /* \"contracts/TWITTER PROJECT/Twitter.sol\":1078:1088  msg.sender */\n      caller\n        /* \"contracts/TWITTER PROJECT/Twitter.sol\":1051:1089  profileContract.getProfile(msg.sender) */\n      mload(0x40)\n      dup3\n      0xffffffff\n      and\n      0xe0\n      shl\n      dup2\n      mstore\n      0x04\n      add\n      tag_112\n      swap2\n      swap1\n      tag_51\n      jump\t// in\n    tag_112:\n      0x00\n      mload(0x40)\n      dup1\n      dup4\n      sub\n      dup2\n      dup7\n      gas\n      staticcall\n      iszero\n      dup1\n      iszero\n      tag_114\n      jumpi\n      returndatasize\n      0x00\n      dup1\n      returndatacopy\n      revert(0x00, returndatasize)\n    tag_114:\n      pop\n      pop\n      pop\n      pop\n      mload(0x40)\n      returndatasize\n      0x00\n      dup3\n      returndatacopy\n      returndatasize\n      not(0x1f)\n      0x1f\n      dup3\n      add\n      and\n      dup3\n      add\n      dup1\n      0x40\n      mstore\n      pop\n      dup2\n      add\n      swap1\n      tag_115\n      swap2\n      swap1\n      tag_79\n      jump\t// in\n    tag_115:\n        /* \"contracts/TWITTER PROJECT/Twitter.sol\":1005:1089  Iprofile.UserProfile memory TempUserProfile = profileContract.getProfile(msg.sender) */\n      swap1\n      pop\n        /* \"contracts/TWITTER PROJECT/Twitter.sol\":1152:1153  0 */\n      0x00\n        /* \"contracts/TWITTER PROJECT/Twitter.sol\":1114:1129  TempUserProfile */\n      dup2\n        /* \"contracts/TWITTER PROJECT/Twitter.sol\":1114:1141  TempUserProfile.displayName */\n      0x00\n      add\n      mload\n        /* \"contracts/TWITTER PROJECT/Twitter.sol\":1108:1149  bytes(TempUserProfile.displayName).length */\n      mload\n        /* \"contracts/TWITTER PROJECT/Twitter.sol\":1108:1153  bytes(TempUserProfile.displayName).length > 0 */\n      gt\n        /* \"contracts/TWITTER PROJECT/Twitter.sol\":1100:1180  require(bytes(TempUserProfile.displayName).length > 0, \"User Not Registered !!\") */\n      tag_116\n      jumpi\n      mload(0x40)\n      0x08c379a000000000000000000000000000000000000000000000000000000000\n      dup2\n      mstore\n      0x04\n      add\n      tag_117\n      swap1\n      tag_82\n      jump\t// in\n    tag_117:\n      mload(0x40)\n      dup1\n      swap2\n      sub\n      swap1\n      revert\n    tag_116:\n        /* \"contracts/TWITTER PROJECT/Twitter.sol\":2271:2273  id */\n      dup2\n        /* \"contracts/TWITTER PROJECT/Twitter.sol\":2248:2254  tweets */\n      0x01\n        /* \"contracts/TWITTER PROJECT/Twitter.sol\":2248:2262  tweets[author] */\n      0x00\n        /* \"contracts/TWITTER PROJECT/Twitter.sol\":2255:2261  author */\n      dup6\n        /* \"contracts/TWITTER PROJECT/Twitter.sol\":2248:2262  tweets[author] */\n      0xffffffffffffffffffffffffffffffffffffffff\n      and\n      0xffffffffffffffffffffffffffffffffffffffff\n      and\n      dup2\n      mstore\n      0x20\n      add\n      swap1\n      dup2\n      mstore\n      0x20\n      add\n      0x00\n      keccak256\n        /* \"contracts/TWITTER PROJECT/Twitter.sol\":2263:2265  id */\n      dup4\n        /* \"contracts/TWITTER PROJECT/Twitter.sol\":2248:2266  tweets[author][id] */\n      dup2\n      sload\n      dup2\n      lt\n      tag_119\n      jumpi\n      tag_120\n      tag_86\n      jump\t// in\n    tag_120:\n    tag_119:\n      swap1\n      0x00\n      mstore\n      keccak256(0x00, 0x20)\n      swap1\n      0x05\n      mul\n      add\n        /* \"contracts/TWITTER PROJECT/Twitter.sol\":2248:2269  tweets[author][id].id */\n      0x00\n      add\n      sload\n        /* \"contracts/TWITTER PROJECT/Twitter.sol\":2248:2273  tweets[author][id].id==id */\n      eq\n        /* \"contracts/TWITTER PROJECT/Twitter.sol\":2240:2296  require(tweets[author][id].id==id,\"Tweet doesnot exist\") */\n      tag_122\n      jumpi\n      mload(0x40)\n      0x08c379a000000000000000000000000000000000000000000000000000000000\n      dup2\n      mstore\n      0x04\n      add\n      tag_123\n      swap1\n      tag_124\n      jump\t// in\n    tag_123:\n      mload(0x40)\n      dup1\n      swap2\n      sub\n      swap1\n      revert\n    tag_122:\n        /* \"contracts/TWITTER PROJECT/Twitter.sol\":2309:2315  tweets */\n      0x01\n        /* \"contracts/TWITTER PROJECT/Twitter.sol\":2309:2323  tweets[author] */\n      0x00\n        /* \"contracts/TWITTER PROJECT/Twitter.sol\":2316:2322  author */\n      dup5\n        /* \"contracts/TWITTER PROJECT/Twitter.sol\":2309:2323  tweets[author] */\n      0xffffffffffffffffffffffffffffffffffffffff\n      and\n      0xffffffffffffffffffffffffffffffffffffffff\n      and\n      dup2\n      mstore\n      0x20\n      add\n      swap1\n      dup2\n      mstore\n      0x20\n      add\n      0x00\n      keccak256\n        /* \"contracts/TWITTER PROJECT/Twitter.sol\":2324:2326  id */\n      dup3\n        /* \"contracts/TWITTER PROJECT/Twitter.sol\":2309:2327  tweets[author][id] */\n      dup2\n      sload\n      dup2\n      lt\n      tag_125\n      jumpi\n      tag_126\n      tag_86\n      jump\t// in\n    tag_126:\n    tag_125:\n      swap1\n      0x00\n      mstore\n      keccak256(0x00, 0x20)\n      swap1\n      0x05\n      mul\n      add\n        /* \"contracts/TWITTER PROJECT/Twitter.sol\":2309:2333  tweets[author][id].likes */\n      0x04\n      add\n      0x00\n        /* \"contracts/TWITTER PROJECT/Twitter.sol\":2309:2335  tweets[author][id].likes++ */\n      dup2\n      sload\n      dup1\n      swap3\n      swap2\n      swap1\n      tag_128\n      swap1\n      tag_129\n      jump\t// in\n    tag_128:\n      swap2\n      swap1\n      pop\n      sstore\n      pop\n        /* \"contracts/TWITTER PROJECT/Twitter.sol\":2353:2413  TweetLiked(msg.sender, author, id, tweets[author][id].likes) */\n      0xe8a76fc0f16d11a00d1e93b689b63d76cf60af914dd3d915375dc41d01a0c3c8\n        /* \"contracts/TWITTER PROJECT/Twitter.sol\":2364:2374  msg.sender */\n      caller\n        /* \"contracts/TWITTER PROJECT/Twitter.sol\":2376:2382  author */\n      dup5\n        /* \"contracts/TWITTER PROJECT/Twitter.sol\":2384:2386  id */\n      dup5\n        /* \"contracts/TWITTER PROJECT/Twitter.sol\":2388:2394  tweets */\n      0x01\n        /* \"contracts/TWITTER PROJECT/Twitter.sol\":2388:2402  tweets[author] */\n      0x00\n        /* \"contracts/TWITTER PROJECT/Twitter.sol\":2395:2401  author */\n      dup9\n        /* \"contracts/TWITTER PROJECT/Twitter.sol\":2388:2402  tweets[author] */\n      0xffffffffffffffffffffffffffffffffffffffff\n      and\n      0xffffffffffffffffffffffffffffffffffffffff\n      and\n      dup2\n      mstore\n      0x20\n      add\n      swap1\n      dup2\n      mstore\n      0x20\n      add\n      0x00\n      keccak256\n        /* \"contracts/TWITTER PROJECT/Twitter.sol\":2403:2405  id */\n      dup7\n        /* \"contracts/TWITTER PROJECT/Twitter.sol\":2388:2406  tweets[author][id] */\n      dup2\n      sload\n      dup2\n      lt\n      tag_130\n      jumpi\n      tag_131\n      tag_86\n      jump\t// in\n    tag_131:\n    tag_130:\n      swap1\n      0x00\n      mstore\n      keccak256(0x00, 0x20)\n      swap1\n      0x05\n      mul\n      add\n        /* \"contracts/TWITTER PROJECT/Twitter.sol\":2388:2412  tweets[author][id].likes */\n      0x04\n      add\n      sload\n        /* \"contracts/TWITTER PROJECT/Twitter.sol\":2353:2413  TweetLiked(msg.sender, author, id, tweets[author][id].likes) */\n      mload(0x40)\n      tag_133\n      swap5\n      swap4\n      swap3\n      swap2\n      swap1\n      tag_106\n      jump\t// in\n    tag_133:\n      mload(0x40)\n      dup1\n      swap2\n      sub\n      swap1\n      log1\n        /* \"contracts/TWITTER PROJECT/Twitter.sol\":994:1200  {... */\n      pop\n        /* \"contracts/TWITTER PROJECT/Twitter.sol\":2158:2421  function likeTweet(address author, uint256 id) external onlyRegistered {... */\n      pop\n      pop\n      jump\t// out\n        /* \"@openzeppelin/contracts/access/Ownable.sol\":2293:2394  function renounceOwnership() public virtual onlyOwner {... */\n    tag_37:\n        /* \"@openzeppelin/contracts/access/Ownable.sol\":1531:1544  _checkOwner() */\n      tag_135\n        /* \"@openzeppelin/contracts/access/Ownable.sol\":1531:1542  _checkOwner */\n      tag_109\n        /* \"@openzeppelin/contracts/access/Ownable.sol\":1531:1544  _checkOwner() */\n      jump\t// in\n    tag_135:\n        /* \"@openzeppelin/contracts/access/Ownable.sol\":2357:2387  _transferOwnership(address(0)) */\n      tag_137\n        /* \"@openzeppelin/contracts/access/Ownable.sol\":2384:2385  0 */\n      0x00\n        /* \"@openzeppelin/contracts/access/Ownable.sol\":2357:2375  _transferOwnership */\n      tag_138\n        /* \"@openzeppelin/contracts/access/Ownable.sol\":2357:2387  _transferOwnership(address(0)) */\n      jump\t// in\n    tag_137:\n        /* \"@openzeppelin/contracts/access/Ownable.sol\":2293:2394  function renounceOwnership() public virtual onlyOwner {... */\n      jump\t// out\n        /* \"contracts/TWITTER PROJECT/Twitter.sol\":1628:2150  function createTweet(string memory tweet) public onlyRegistered {... */\n    tag_41:\n        /* \"contracts/TWITTER PROJECT/Twitter.sol\":1005:1048  Iprofile.UserProfile memory TempUserProfile */\n      0x00\n        /* \"contracts/TWITTER PROJECT/Twitter.sol\":1051:1066  profileContract */\n      0x02\n      0x00\n      swap1\n      sload\n      swap1\n      0x0100\n      exp\n      swap1\n      div\n      0xffffffffffffffffffffffffffffffffffffffff\n      and\n        /* \"contracts/TWITTER PROJECT/Twitter.sol\":1051:1077  profileContract.getProfile */\n      0xffffffffffffffffffffffffffffffffffffffff\n      and\n      0x0f53a470\n        /* \"contracts/TWITTER PROJECT/Twitter.sol\":1078:1088  msg.sender */\n      caller\n        /* \"contracts/TWITTER PROJECT/Twitter.sol\":1051:1089  profileContract.getProfile(msg.sender) */\n      mload(0x40)\n      dup3\n      0xffffffff\n      and\n      0xe0\n      shl\n      dup2\n      mstore\n      0x04\n      add\n      tag_140\n      swap2\n      swap1\n      tag_51\n      jump\t// in\n    tag_140:\n      0x00\n      mload(0x40)\n      dup1\n      dup4\n      sub\n      dup2\n      dup7\n      gas\n      staticcall\n      iszero\n      dup1\n      iszero\n      tag_142\n      jumpi\n      returndatasize\n      0x00\n      dup1\n      returndatacopy\n      revert(0x00, returndatasize)\n    tag_142:\n      pop\n      pop\n      pop\n      pop\n      mload(0x40)\n      returndatasize\n      0x00\n      dup3\n      returndatacopy\n      returndatasize\n      not(0x1f)\n      0x1f\n      dup3\n      add\n      and\n      dup3\n      add\n      dup1\n      0x40\n      mstore\n      pop\n      dup2\n      add\n      swap1\n      tag_143\n      swap2\n      swap1\n      tag_79\n      jump\t// in\n    tag_143:\n        /* \"contracts/TWITTER PROJECT/Twitter.sol\":1005:1089  Iprofile.UserProfile memory TempUserProfile = profileContract.getProfile(msg.sender) */\n      swap1\n      pop\n        /* \"contracts/TWITTER PROJECT/Twitter.sol\":1152:1153  0 */\n      0x00\n        /* \"contracts/TWITTER PROJECT/Twitter.sol\":1114:1129  TempUserProfile */\n      dup2\n        /* \"contracts/TWITTER PROJECT/Twitter.sol\":1114:1141  TempUserProfile.displayName */\n      0x00\n      add\n      mload\n        /* \"contracts/TWITTER PROJECT/Twitter.sol\":1108:1149  bytes(TempUserProfile.displayName).length */\n      mload\n        /* \"contracts/TWITTER PROJECT/Twitter.sol\":1108:1153  bytes(TempUserProfile.displayName).length > 0 */\n      gt\n        /* \"contracts/TWITTER PROJECT/Twitter.sol\":1100:1180  require(bytes(TempUserProfile.displayName).length > 0, \"User Not Registered !!\") */\n      tag_144\n      jumpi\n      mload(0x40)\n      0x08c379a000000000000000000000000000000000000000000000000000000000\n      dup2\n      mstore\n      0x04\n      add\n      tag_145\n      swap1\n      tag_82\n      jump\t// in\n    tag_145:\n      mload(0x40)\n      dup1\n      swap2\n      sub\n      swap1\n      revert\n    tag_144:\n        /* \"contracts/TWITTER PROJECT/Twitter.sol\":1734:1744  max_length */\n      0x00\n      0x14\n      swap1\n      sload\n      swap1\n      0x0100\n      exp\n      swap1\n      div\n      0xffff\n      and\n        /* \"contracts/TWITTER PROJECT/Twitter.sol\":1713:1744  bytes(tweet).length<=max_length */\n      0xffff\n      and\n        /* \"contracts/TWITTER PROJECT/Twitter.sol\":1719:1724  tweet */\n      dup3\n        /* \"contracts/TWITTER PROJECT/Twitter.sol\":1713:1732  bytes(tweet).length */\n      mload\n        /* \"contracts/TWITTER PROJECT/Twitter.sol\":1713:1744  bytes(tweet).length<=max_length */\n      gt\n      iszero\n        /* \"contracts/TWITTER PROJECT/Twitter.sol\":1705:1771  require(bytes(tweet).length<=max_length,\"Tweet is too long bro!!\") */\n      tag_147\n      jumpi\n      mload(0x40)\n      0x08c379a000000000000000000000000000000000000000000000000000000000\n      dup2\n      mstore\n      0x04\n      add\n      tag_148\n      swap1\n      tag_149\n      jump\t// in\n    tag_148:\n      mload(0x40)\n      dup1\n      swap2\n      sub\n      swap1\n      revert\n    tag_147:\n        /* \"contracts/TWITTER PROJECT/Twitter.sol\":1784:1806  Stweet memory newTweet */\n      0x00\n        /* \"contracts/TWITTER PROJECT/Twitter.sol\":1809:1998  Stweet({... */\n      mload(0x40)\n      dup1\n      0xa0\n      add\n      0x40\n      mstore\n      dup1\n        /* \"contracts/TWITTER PROJECT/Twitter.sol\":1835:1841  tweets */\n      0x01\n        /* \"contracts/TWITTER PROJECT/Twitter.sol\":1835:1853  tweets[msg.sender] */\n      0x00\n        /* \"contracts/TWITTER PROJECT/Twitter.sol\":1842:1852  msg.sender */\n      caller\n        /* \"contracts/TWITTER PROJECT/Twitter.sol\":1835:1853  tweets[msg.sender] */\n      0xffffffffffffffffffffffffffffffffffffffff\n      and\n      0xffffffffffffffffffffffffffffffffffffffff\n      and\n      dup2\n      mstore\n      0x20\n      add\n      swap1\n      dup2\n      mstore\n      0x20\n      add\n      0x00\n      keccak256\n        /* \"contracts/TWITTER PROJECT/Twitter.sol\":1835:1860  tweets[msg.sender].length */\n      dup1\n      sload\n      swap1\n      pop\n        /* \"contracts/TWITTER PROJECT/Twitter.sol\":1809:1998  Stweet({... */\n      dup2\n      mstore\n      0x20\n      add\n        /* \"contracts/TWITTER PROJECT/Twitter.sol\":1883:1893  msg.sender */\n      caller\n        /* \"contracts/TWITTER PROJECT/Twitter.sol\":1809:1998  Stweet({... */\n      0xffffffffffffffffffffffffffffffffffffffff\n      and\n      dup2\n      mstore\n      0x20\n      add\n        /* \"contracts/TWITTER PROJECT/Twitter.sol\":1917:1922  tweet */\n      dup5\n        /* \"contracts/TWITTER PROJECT/Twitter.sol\":1809:1998  Stweet({... */\n      dup2\n      mstore\n      0x20\n      add\n        /* \"contracts/TWITTER PROJECT/Twitter.sol\":1948:1963  block.timestamp */\n      timestamp\n        /* \"contracts/TWITTER PROJECT/Twitter.sol\":1809:1998  Stweet({... */\n      dup2\n      mstore\n      0x20\n      add\n        /* \"contracts/TWITTER PROJECT/Twitter.sol\":1985:1986  0 */\n      0x00\n        /* \"contracts/TWITTER PROJECT/Twitter.sol\":1809:1998  Stweet({... */\n      dup2\n      mstore\n      pop\n        /* \"contracts/TWITTER PROJECT/Twitter.sol\":1784:1998  Stweet memory newTweet = Stweet({... */\n      swap1\n      pop\n        /* \"contracts/TWITTER PROJECT/Twitter.sol\":2011:2017  tweets */\n      0x01\n        /* \"contracts/TWITTER PROJECT/Twitter.sol\":2011:2029  tweets[msg.sender] */\n      0x00\n        /* \"contracts/TWITTER PROJECT/Twitter.sol\":2018:2028  msg.sender */\n      caller\n        /* \"contracts/TWITTER PROJECT/Twitter.sol\":2011:2029  tweets[msg.sender] */\n      0xffffffffffffffffffffffffffffffffffffffff\n      and\n      0xffffffffffffffffffffffffffffffffffffffff\n      and\n      dup2\n      mstore\n      0x20\n      add\n      swap1\n      dup2\n      mstore\n      0x20\n      add\n      0x00\n      keccak256\n        /* \"contracts/TWITTER PROJECT/Twitter.sol\":2035:2043  newTweet */\n      dup2\n        /* \"contracts/TWITTER PROJECT/Twitter.sol\":2011:2044  tweets[msg.sender].push(newTweet) */\n      swap1\n      dup1\n      0x01\n      dup2\n      sload\n      add\n      dup1\n      dup3\n      sstore\n      dup1\n      swap2\n      pop\n      pop\n      0x01\n      swap1\n      sub\n      swap1\n      0x00\n      mstore\n      keccak256(0x00, 0x20)\n      swap1\n      0x05\n      mul\n      add\n      0x00\n      swap1\n      swap2\n      swap1\n      swap2\n      swap1\n      swap2\n      pop\n      0x00\n      dup3\n      add\n      mload\n      dup2\n      0x00\n      add\n      sstore\n      0x20\n      dup3\n      add\n      mload\n      dup2\n      0x01\n      add\n      exp(0x0100, 0x00)\n      dup2\n      sload\n      dup2\n      0xffffffffffffffffffffffffffffffffffffffff\n      mul\n      not\n      and\n      swap1\n      dup4\n      0xffffffffffffffffffffffffffffffffffffffff\n      and\n      mul\n      or\n      swap1\n      sstore\n      pop\n      0x40\n      dup3\n      add\n      mload\n      dup2\n      0x02\n      add\n      swap1\n      dup2\n      tag_151\n      swap2\n      swap1\n      tag_152\n      jump\t// in\n    tag_151:\n      pop\n      0x60\n      dup3\n      add\n      mload\n      dup2\n      0x03\n      add\n      sstore\n      0x80\n      dup3\n      add\n      mload\n      dup2\n      0x04\n      add\n      sstore\n      pop\n      pop\n        /* \"contracts/TWITTER PROJECT/Twitter.sol\":2062:2142  TweetCreated(newTweet.id, newTweet.author, newTweet.content, newTweet.timestamp) */\n      0x16fd3c13e9d46923e0a8bce11c7b473ec508a72e6c96cd2404b29ce972afc29e\n        /* \"contracts/TWITTER PROJECT/Twitter.sol\":2075:2083  newTweet */\n      dup2\n        /* \"contracts/TWITTER PROJECT/Twitter.sol\":2075:2086  newTweet.id */\n      0x00\n      add\n      mload\n        /* \"contracts/TWITTER PROJECT/Twitter.sol\":2088:2096  newTweet */\n      dup3\n        /* \"contracts/TWITTER PROJECT/Twitter.sol\":2088:2103  newTweet.author */\n      0x20\n      add\n      mload\n        /* \"contracts/TWITTER PROJECT/Twitter.sol\":2105:2113  newTweet */\n      dup4\n        /* \"contracts/TWITTER PROJECT/Twitter.sol\":2105:2121  newTweet.content */\n      0x40\n      add\n      mload\n        /* \"contracts/TWITTER PROJECT/Twitter.sol\":2123:2131  newTweet */\n      dup5\n        /* \"contracts/TWITTER PROJECT/Twitter.sol\":2123:2141  newTweet.timestamp */\n      0x60\n      add\n      mload\n        /* \"contracts/TWITTER PROJECT/Twitter.sol\":2062:2142  TweetCreated(newTweet.id, newTweet.author, newTweet.content, newTweet.timestamp) */\n      mload(0x40)\n      tag_153\n      swap5\n      swap4\n      swap3\n      swap2\n      swap1\n      tag_154\n      jump\t// in\n    tag_153:\n      mload(0x40)\n      dup1\n      swap2\n      sub\n      swap1\n      log1\n        /* \"contracts/TWITTER PROJECT/Twitter.sol\":1692:2150  {... */\n      pop\n        /* \"contracts/TWITTER PROJECT/Twitter.sol\":994:1200  {... */\n      pop\n        /* \"contracts/TWITTER PROJECT/Twitter.sol\":1628:2150  function createTweet(string memory tweet) public onlyRegistered {... */\n      pop\n      jump\t// out\n        /* \"contracts/TWITTER PROJECT/Twitter.sol\":2772:3040  function getTotalLikes(address _author) external view returns (uint256){... */\n    tag_45:\n        /* \"contracts/TWITTER PROJECT/Twitter.sol\":2835:2842  uint256 */\n      0x00\n        /* \"contracts/TWITTER PROJECT/Twitter.sol\":2854:2872  uint256 totalLikes */\n      dup1\n        /* \"contracts/TWITTER PROJECT/Twitter.sol\":2889:2898  uint256 i */\n      0x00\n        /* \"contracts/TWITTER PROJECT/Twitter.sol\":2885:2995  for(uint256 i=0;i<tweets[_author].length;i++){... */\n    tag_156:\n        /* \"contracts/TWITTER PROJECT/Twitter.sol\":2903:2909  tweets */\n      0x01\n        /* \"contracts/TWITTER PROJECT/Twitter.sol\":2903:2918  tweets[_author] */\n      0x00\n        /* \"contracts/TWITTER PROJECT/Twitter.sol\":2910:2917  _author */\n      dup6\n        /* \"contracts/TWITTER PROJECT/Twitter.sol\":2903:2918  tweets[_author] */\n      0xffffffffffffffffffffffffffffffffffffffff\n      and\n      0xffffffffffffffffffffffffffffffffffffffff\n      and\n      dup2\n      mstore\n      0x20\n      add\n      swap1\n      dup2\n      mstore\n      0x20\n      add\n      0x00\n      keccak256\n        /* \"contracts/TWITTER PROJECT/Twitter.sol\":2903:2925  tweets[_author].length */\n      dup1\n      sload\n      swap1\n      pop\n        /* \"contracts/TWITTER PROJECT/Twitter.sol\":2901:2902  i */\n      dup2\n        /* \"contracts/TWITTER PROJECT/Twitter.sol\":2901:2925  i<tweets[_author].length */\n      lt\n        /* \"contracts/TWITTER PROJECT/Twitter.sol\":2885:2995  for(uint256 i=0;i<tweets[_author].length;i++){... */\n      iszero\n      tag_157\n      jumpi\n        /* \"contracts/TWITTER PROJECT/Twitter.sol\":2959:2965  tweets */\n      0x01\n        /* \"contracts/TWITTER PROJECT/Twitter.sol\":2959:2974  tweets[_author] */\n      0x00\n        /* \"contracts/TWITTER PROJECT/Twitter.sol\":2966:2973  _author */\n      dup6\n        /* \"contracts/TWITTER PROJECT/Twitter.sol\":2959:2974  tweets[_author] */\n      0xffffffffffffffffffffffffffffffffffffffff\n      and\n      0xffffffffffffffffffffffffffffffffffffffff\n      and\n      dup2\n      mstore\n      0x20\n      add\n      swap1\n      dup2\n      mstore\n      0x20\n      add\n      0x00\n      keccak256\n        /* \"contracts/TWITTER PROJECT/Twitter.sol\":2975:2976  i */\n      dup2\n        /* \"contracts/TWITTER PROJECT/Twitter.sol\":2959:2977  tweets[_author][i] */\n      dup2\n      sload\n      dup2\n      lt\n      tag_159\n      jumpi\n      tag_160\n      tag_86\n      jump\t// in\n    tag_160:\n    tag_159:\n      swap1\n      0x00\n      mstore\n      keccak256(0x00, 0x20)\n      swap1\n      0x05\n      mul\n      add\n        /* \"contracts/TWITTER PROJECT/Twitter.sol\":2959:2983  tweets[_author][i].likes */\n      0x04\n      add\n      sload\n        /* \"contracts/TWITTER PROJECT/Twitter.sol\":2945:2983  totalLikes += tweets[_author][i].likes */\n      dup3\n      tag_162\n      swap2\n      swap1\n      tag_163\n      jump\t// in\n    tag_162:\n      swap2\n      pop\n        /* \"contracts/TWITTER PROJECT/Twitter.sol\":2926:2929  i++ */\n      dup1\n      dup1\n      0x01\n      add\n      swap2\n      pop\n      pop\n        /* \"contracts/TWITTER PROJECT/Twitter.sol\":2885:2995  for(uint256 i=0;i<tweets[_author].length;i++){... */\n      jump(tag_156)\n    tag_157:\n      pop\n        /* \"contracts/TWITTER PROJECT/Twitter.sol\":3022:3032  totalLikes */\n      dup1\n        /* \"contracts/TWITTER PROJECT/Twitter.sol\":3015:3032  return totalLikes */\n      swap2\n      pop\n      pop\n        /* \"contracts/TWITTER PROJECT/Twitter.sol\":2772:3040  function getTotalLikes(address _author) external view returns (uint256){... */\n      swap2\n      swap1\n      pop\n      jump\t// out\n        /* \"@openzeppelin/contracts/access/Ownable.sol\":1638:1723  function owner() public view virtual returns (address) {... */\n    tag_49:\n        /* \"@openzeppelin/contracts/access/Ownable.sol\":1684:1691  address */\n      0x00\n        /* \"@openzeppelin/contracts/access/Ownable.sol\":1710:1716  _owner */\n      dup1\n      0x00\n      swap1\n      sload\n      swap1\n      0x0100\n      exp\n      swap1\n      div\n      0xffffffffffffffffffffffffffffffffffffffff\n      and\n        /* \"@openzeppelin/contracts/access/Ownable.sol\":1703:1716  return _owner */\n      swap1\n      pop\n        /* \"@openzeppelin/contracts/access/Ownable.sol\":1638:1723  function owner() public view virtual returns (address) {... */\n      swap1\n      jump\t// out\n        /* \"contracts/TWITTER PROJECT/Twitter.sol\":3167:3280  function getAlltweets(address sender)public view returns(Stweet[] memory){... */\n    tag_54:\n        /* \"contracts/TWITTER PROJECT/Twitter.sol\":3224:3239  Stweet[] memory */\n      0x60\n        /* \"contracts/TWITTER PROJECT/Twitter.sol\":3258:3264  tweets */\n      0x01\n        /* \"contracts/TWITTER PROJECT/Twitter.sol\":3258:3272  tweets[sender] */\n      0x00\n        /* \"contracts/TWITTER PROJECT/Twitter.sol\":3265:3271  sender */\n      dup4\n        /* \"contracts/TWITTER PROJECT/Twitter.sol\":3258:3272  tweets[sender] */\n      0xffffffffffffffffffffffffffffffffffffffff\n      and\n      0xffffffffffffffffffffffffffffffffffffffff\n      and\n      dup2\n      mstore\n      0x20\n      add\n      swap1\n      dup2\n      mstore\n      0x20\n      add\n      0x00\n      keccak256\n        /* \"contracts/TWITTER PROJECT/Twitter.sol\":3251:3272  return tweets[sender] */\n      dup1\n      sload\n      dup1\n      0x20\n      mul\n      0x20\n      add\n      mload(0x40)\n      swap1\n      dup2\n      add\n      0x40\n      mstore\n      dup1\n      swap3\n      swap2\n      swap1\n      dup2\n      dup2\n      mstore\n      0x20\n      add\n      0x00\n      swap1\n    tag_166:\n      dup3\n      dup3\n      lt\n      iszero\n      tag_167\n      jumpi\n      dup4\n      dup3\n      swap1\n      0x00\n      mstore\n      keccak256(0x00, 0x20)\n      swap1\n      0x05\n      mul\n      add\n      mload(0x40)\n      dup1\n      0xa0\n      add\n      0x40\n      mstore\n      swap1\n      dup2\n      0x00\n      dup3\n      add\n      sload\n      dup2\n      mstore\n      0x20\n      add\n      0x01\n      dup3\n      add\n      0x00\n      swap1\n      sload\n      swap1\n      0x0100\n      exp\n      swap1\n      div\n      0xffffffffffffffffffffffffffffffffffffffff\n      and\n      0xffffffffffffffffffffffffffffffffffffffff\n      and\n      0xffffffffffffffffffffffffffffffffffffffff\n      and\n      dup2\n      mstore\n      0x20\n      add\n      0x02\n      dup3\n      add\n      dup1\n      sload\n      tag_169\n      swap1\n      tag_69\n      jump\t// in\n    tag_169:\n      dup1\n      0x1f\n      add\n      0x20\n      dup1\n      swap2\n      div\n      mul\n      0x20\n      add\n      mload(0x40)\n      swap1\n      dup2\n      add\n      0x40\n      mstore\n      dup1\n      swap3\n      swap2\n      swap1\n      dup2\n      dup2\n      mstore\n      0x20\n      add\n      dup3\n      dup1\n      sload\n      tag_170\n      swap1\n      tag_69\n      jump\t// in\n    tag_170:\n      dup1\n      iszero\n      tag_171\n      jumpi\n      dup1\n      0x1f\n      lt\n      tag_172\n      jumpi\n      0x0100\n      dup1\n      dup4\n      sload\n      div\n      mul\n      dup4\n      mstore\n      swap2\n      0x20\n      add\n      swap2\n      jump(tag_171)\n    tag_172:\n      dup3\n      add\n      swap2\n      swap1\n      0x00\n      mstore\n      keccak256(0x00, 0x20)\n      swap1\n    tag_173:\n      dup2\n      sload\n      dup2\n      mstore\n      swap1\n      0x01\n      add\n      swap1\n      0x20\n      add\n      dup1\n      dup4\n      gt\n      tag_173\n      jumpi\n      dup3\n      swap1\n      sub\n      0x1f\n      and\n      dup3\n      add\n      swap2\n    tag_171:\n      pop\n      pop\n      pop\n      pop\n      pop\n      dup2\n      mstore\n      0x20\n      add\n      0x03\n      dup3\n      add\n      sload\n      dup2\n      mstore\n      0x20\n      add\n      0x04\n      dup3\n      add\n      sload\n      dup2\n      mstore\n      pop\n      pop\n      dup2\n      mstore\n      0x20\n      add\n      swap1\n      0x01\n      add\n      swap1\n      jump(tag_166)\n    tag_167:\n      pop\n      pop\n      pop\n      pop\n      swap1\n      pop\n        /* \"contracts/TWITTER PROJECT/Twitter.sol\":3167:3280  function getAlltweets(address sender)public view returns(Stweet[] memory){... */\n      swap2\n      swap1\n      pop\n      jump\t// out\n        /* \"contracts/TWITTER PROJECT/Twitter.sol\":3048:3159  function getTweet(uint256 i) public view returns (Stweet memory){... */\n    tag_60:\n        /* \"contracts/TWITTER PROJECT/Twitter.sol\":3098:3111  Stweet memory */\n      tag_174\n      tag_175\n      jump\t// in\n    tag_174:\n        /* \"contracts/TWITTER PROJECT/Twitter.sol\":3130:3136  tweets */\n      0x01\n        /* \"contracts/TWITTER PROJECT/Twitter.sol\":3130:3148  tweets[msg.sender] */\n      0x00\n        /* \"contracts/TWITTER PROJECT/Twitter.sol\":3137:3147  msg.sender */\n      caller\n        /* \"contracts/TWITTER PROJECT/Twitter.sol\":3130:3148  tweets[msg.sender] */\n      0xffffffffffffffffffffffffffffffffffffffff\n      and\n      0xffffffffffffffffffffffffffffffffffffffff\n      and\n      dup2\n      mstore\n      0x20\n      add\n      swap1\n      dup2\n      mstore\n      0x20\n      add\n      0x00\n      keccak256\n        /* \"contracts/TWITTER PROJECT/Twitter.sol\":3149:3150  i */\n      dup3\n        /* \"contracts/TWITTER PROJECT/Twitter.sol\":3130:3151  tweets[msg.sender][i] */\n      dup2\n      sload\n      dup2\n      lt\n      tag_177\n      jumpi\n      tag_178\n      tag_86\n      jump\t// in\n    tag_178:\n    tag_177:\n      swap1\n      0x00\n      mstore\n      keccak256(0x00, 0x20)\n      swap1\n      0x05\n      mul\n      add\n        /* \"contracts/TWITTER PROJECT/Twitter.sol\":3123:3151  return tweets[msg.sender][i] */\n      mload(0x40)\n      dup1\n      0xa0\n      add\n      0x40\n      mstore\n      swap1\n      dup2\n      0x00\n      dup3\n      add\n      sload\n      dup2\n      mstore\n      0x20\n      add\n      0x01\n      dup3\n      add\n      0x00\n      swap1\n      sload\n      swap1\n      0x0100\n      exp\n      swap1\n      div\n      0xffffffffffffffffffffffffffffffffffffffff\n      and\n      0xffffffffffffffffffffffffffffffffffffffff\n      and\n      0xffffffffffffffffffffffffffffffffffffffff\n      and\n      dup2\n      mstore\n      0x20\n      add\n      0x02\n      dup3\n      add\n      dup1\n      sload\n      tag_180\n      swap1\n      tag_69\n      jump\t// in\n    tag_180:\n      dup1\n      0x1f\n      add\n      0x20\n      dup1\n      swap2\n      div\n      mul\n      0x20\n      add\n      mload(0x40)\n      swap1\n      dup2\n      add\n      0x40\n      mstore\n      dup1\n      swap3\n      swap2\n      swap1\n      dup2\n      dup2\n      mstore\n      0x20\n      add\n      dup3\n      dup1\n      sload\n      tag_181\n      swap1\n      tag_69\n      jump\t// in\n    tag_181:\n      dup1\n      iszero\n      tag_182\n      jumpi\n      dup1\n      0x1f\n      lt\n      tag_183\n      jumpi\n      0x0100\n      dup1\n      dup4\n      sload\n      div\n      mul\n      dup4\n      mstore\n      swap2\n      0x20\n      add\n      swap2\n      jump(tag_182)\n    tag_183:\n      dup3\n      add\n      swap2\n      swap1\n      0x00\n      mstore\n      keccak256(0x00, 0x20)\n      swap1\n    tag_184:\n      dup2\n      sload\n      dup2\n      mstore\n      swap1\n      0x01\n      add\n      swap1\n      0x20\n      add\n      dup1\n      dup4\n      gt\n      tag_184\n      jumpi\n      dup3\n      swap1\n      sub\n      0x1f\n      and\n      dup3\n      add\n      swap2\n    tag_182:\n      pop\n      pop\n      pop\n      pop\n      pop\n      dup2\n      mstore\n      0x20\n      add\n      0x03\n      dup3\n      add\n      sload\n      dup2\n      mstore\n      0x20\n      add\n      0x04\n      dup3\n      add\n      sload\n      dup2\n      mstore\n      pop\n      pop\n      swap1\n      pop\n        /* \"contracts/TWITTER PROJECT/Twitter.sol\":3048:3159  function getTweet(uint256 i) public view returns (Stweet memory){... */\n      swap2\n      swap1\n      pop\n      jump\t// out\n        /* \"@openzeppelin/contracts/access/Ownable.sol\":2543:2758  function transferOwnership(address newOwner) public virtual onlyOwner {... */\n    tag_65:\n        /* \"@openzeppelin/contracts/access/Ownable.sol\":1531:1544  _checkOwner() */\n      tag_186\n        /* \"@openzeppelin/contracts/access/Ownable.sol\":1531:1542  _checkOwner */\n      tag_109\n        /* \"@openzeppelin/contracts/access/Ownable.sol\":1531:1544  _checkOwner() */\n      jump\t// in\n    tag_186:\n        /* \"@openzeppelin/contracts/access/Ownable.sol\":2647:2648  0 */\n      0x00\n        /* \"@openzeppelin/contracts/access/Ownable.sol\":2627:2649  newOwner == address(0) */\n      0xffffffffffffffffffffffffffffffffffffffff\n      and\n        /* \"@openzeppelin/contracts/access/Ownable.sol\":2627:2635  newOwner */\n      dup2\n        /* \"@openzeppelin/contracts/access/Ownable.sol\":2627:2649  newOwner == address(0) */\n      0xffffffffffffffffffffffffffffffffffffffff\n      and\n      sub\n        /* \"@openzeppelin/contracts/access/Ownable.sol\":2623:2714  if (newOwner == address(0)) {... */\n      tag_188\n      jumpi\n        /* \"@openzeppelin/contracts/access/Ownable.sol\":2700:2701  0 */\n      0x00\n        /* \"@openzeppelin/contracts/access/Ownable.sol\":2672:2703  OwnableInvalidOwner(address(0)) */\n      mload(0x40)\n      0x1e4fbdf700000000000000000000000000000000000000000000000000000000\n      dup2\n      mstore\n      0x04\n      add\n      tag_189\n      swap2\n      swap1\n      tag_51\n      jump\t// in\n    tag_189:\n      mload(0x40)\n      dup1\n      swap2\n      sub\n      swap1\n      revert\n        /* \"@openzeppelin/contracts/access/Ownable.sol\":2623:2714  if (newOwner == address(0)) {... */\n    tag_188:\n        /* \"@openzeppelin/contracts/access/Ownable.sol\":2723:2751  _transferOwnership(newOwner) */\n      tag_190\n        /* \"@openzeppelin/contracts/access/Ownable.sol\":2742:2750  newOwner */\n      dup2\n        /* \"@openzeppelin/contracts/access/Ownable.sol\":2723:2741  _transferOwnership */\n      tag_138\n        /* \"@openzeppelin/contracts/access/Ownable.sol\":2723:2751  _transferOwnership(newOwner) */\n      jump\t// in\n    tag_190:\n        /* \"@openzeppelin/contracts/access/Ownable.sol\":2543:2758  function transferOwnership(address newOwner) public virtual onlyOwner {... */\n      pop\n      jump\t// out\n        /* \"@openzeppelin/contracts/access/Ownable.sol\":1796:1958  function _checkOwner() internal view virtual {... */\n    tag_109:\n        /* \"@openzeppelin/contracts/access/Ownable.sol\":1866:1878  _msgSender() */\n      tag_192\n        /* \"@openzeppelin/contracts/access/Ownable.sol\":1866:1876  _msgSender */\n      tag_193\n        /* \"@openzeppelin/contracts/access/Ownable.sol\":1866:1878  _msgSender() */\n      jump\t// in\n    tag_192:\n        /* \"@openzeppelin/contracts/access/Ownable.sol\":1855:1878  owner() != _msgSender() */\n      0xffffffffffffffffffffffffffffffffffffffff\n      and\n        /* \"@openzeppelin/contracts/access/Ownable.sol\":1855:1862  owner() */\n      tag_194\n        /* \"@openzeppelin/contracts/access/Ownable.sol\":1855:1860  owner */\n      tag_49\n        /* \"@openzeppelin/contracts/access/Ownable.sol\":1855:1862  owner() */\n      jump\t// in\n    tag_194:\n        /* \"@openzeppelin/contracts/access/Ownable.sol\":1855:1878  owner() != _msgSender() */\n      0xffffffffffffffffffffffffffffffffffffffff\n      and\n      eq\n        /* \"@openzeppelin/contracts/access/Ownable.sol\":1851:1952  if (owner() != _msgSender()) {... */\n      tag_195\n      jumpi\n        /* \"@openzeppelin/contracts/access/Ownable.sol\":1928:1940  _msgSender() */\n      tag_196\n        /* \"@openzeppelin/contracts/access/Ownable.sol\":1928:1938  _msgSender */\n      tag_193\n        /* \"@openzeppelin/contracts/access/Ownable.sol\":1928:1940  _msgSender() */\n      jump\t// in\n    tag_196:\n        /* \"@openzeppelin/contracts/access/Ownable.sol\":1901:1941  OwnableUnauthorizedAccount(_msgSender()) */\n      mload(0x40)\n      0x118cdaa700000000000000000000000000000000000000000000000000000000\n      dup2\n      mstore\n      0x04\n      add\n      tag_197\n      swap2\n      swap1\n      tag_51\n      jump\t// in\n    tag_197:\n      mload(0x40)\n      dup1\n      swap2\n      sub\n      swap1\n      revert\n        /* \"@openzeppelin/contracts/access/Ownable.sol\":1851:1952  if (owner() != _msgSender()) {... */\n    tag_195:\n        /* \"@openzeppelin/contracts/access/Ownable.sol\":1796:1958  function _checkOwner() internal view virtual {... */\n      jump\t// out\n        /* \"@openzeppelin/contracts/access/Ownable.sol\":2912:3099  function _transferOwnership(address newOwner) internal virtual {... */\n    tag_138:\n        /* \"@openzeppelin/contracts/access/Ownable.sol\":2985:3001  address oldOwner */\n      0x00\n        /* \"@openzeppelin/contracts/access/Ownable.sol\":3004:3010  _owner */\n      dup1\n      0x00\n      swap1\n      sload\n      swap1\n      0x0100\n      exp\n      swap1\n      div\n      0xffffffffffffffffffffffffffffffffffffffff\n      and\n        /* \"@openzeppelin/contracts/access/Ownable.sol\":2985:3010  address oldOwner = _owner */\n      swap1\n      pop\n        /* \"@openzeppelin/contracts/access/Ownable.sol\":3029:3037  newOwner */\n      dup2\n        /* \"@openzeppelin/contracts/access/Ownable.sol\":3020:3026  _owner */\n      0x00\n      dup1\n        /* \"@openzeppelin/contracts/access/Ownable.sol\":3020:3037  _owner = newOwner */\n      0x0100\n      exp\n      dup2\n      sload\n      dup2\n      0xffffffffffffffffffffffffffffffffffffffff\n      mul\n      not\n      and\n      swap1\n      dup4\n      0xffffffffffffffffffffffffffffffffffffffff\n      and\n      mul\n      or\n      swap1\n      sstore\n      pop\n        /* \"@openzeppelin/contracts/access/Ownable.sol\":3083:3091  newOwner */\n      dup2\n        /* \"@openzeppelin/contracts/access/Ownable.sol\":3052:3092  OwnershipTransferred(oldOwner, newOwner) */\n      0xffffffffffffffffffffffffffffffffffffffff\n      and\n        /* \"@openzeppelin/contracts/access/Ownable.sol\":3073:3081  oldOwner */\n      dup2\n        /* \"@openzeppelin/contracts/access/Ownable.sol\":3052:3092  OwnershipTransferred(oldOwner, newOwner) */\n      0xffffffffffffffffffffffffffffffffffffffff\n      and\n      0x8be0079c531659141344cd1fd0a4f28419497f9722a3daafe3b4186f6b6457e0\n      mload(0x40)\n      mload(0x40)\n      dup1\n      swap2\n      sub\n      swap1\n      log3\n        /* \"@openzeppelin/contracts/access/Ownable.sol\":2975:3099  {... */\n      pop\n        /* \"@openzeppelin/contracts/access/Ownable.sol\":2912:3099  function _transferOwnership(address newOwner) internal virtual {... */\n      pop\n      jump\t// out\n        /* \"@openzeppelin/contracts/utils/Context.sol\":656:752  function _msgSender() internal view virtual returns (address) {... */\n    tag_193:\n        /* \"@openzeppelin/contracts/utils/Context.sol\":709:716  address */\n      0x00\n        /* \"@openzeppelin/contracts/utils/Context.sol\":735:745  msg.sender */\n      caller\n        /* \"@openzeppelin/contracts/utils/Context.sol\":728:745  return msg.sender */\n      swap1\n      pop\n        /* \"@openzeppelin/contracts/utils/Context.sol\":656:752  function _msgSender() internal view virtual returns (address) {... */\n      swap1\n      jump\t// out\n    tag_175:\n      mload(0x40)\n      dup1\n      0xa0\n      add\n      0x40\n      mstore\n      dup1\n      0x00\n      dup2\n      mstore\n      0x20\n      add\n      and(0xffffffffffffffffffffffffffffffffffffffff, 0x00)\n      dup2\n      mstore\n      0x20\n      add\n      0x60\n      dup2\n      mstore\n      0x20\n      add\n      0x00\n      dup2\n      mstore\n      0x20\n      add\n      0x00\n      dup2\n      mstore\n      pop\n      swap1\n      jump\t// out\n        /* \"#utility.yul\":7:82   */\n    tag_200:\n        /* \"#utility.yul\":40:46   */\n      0x00\n        /* \"#utility.yul\":73:75   */\n      0x40\n        /* \"#utility.yul\":67:76   */\n      mload\n        /* \"#utility.yul\":57:76   */\n      swap1\n      pop\n        /* \"#utility.yul\":7:82   */\n      swap1\n      jump\t// out\n        /* \"#utility.yul\":88:205   */\n    tag_201:\n        /* \"#utility.yul\":197:198   */\n      0x00\n        /* \"#utility.yul\":194:195   */\n      dup1\n        /* \"#utility.yul\":187:199   */\n      revert\n        /* \"#utility.yul\":211:328   */\n    tag_202:\n        /* \"#utility.yul\":320:321   */\n      0x00\n        /* \"#utility.yul\":317:318   */\n      dup1\n        /* \"#utility.yul\":310:322   */\n      revert\n        /* \"#utility.yul\":334:460   */\n    tag_203:\n        /* \"#utility.yul\":371:378   */\n      0x00\n        /* \"#utility.yul\":411:453   */\n      0xffffffffffffffffffffffffffffffffffffffff\n        /* \"#utility.yul\":404:409   */\n      dup3\n        /* \"#utility.yul\":400:454   */\n      and\n        /* \"#utility.yul\":389:454   */\n      swap1\n      pop\n        /* \"#utility.yul\":334:460   */\n      swap2\n      swap1\n      pop\n      jump\t// out\n        /* \"#utility.yul\":466:562   */\n    tag_204:\n        /* \"#utility.yul\":503:510   */\n      0x00\n        /* \"#utility.yul\":532:556   */\n      tag_280\n        /* \"#utility.yul\":550:555   */\n      dup3\n        /* \"#utility.yul\":532:556   */\n      tag_203\n      jump\t// in\n    tag_280:\n        /* \"#utility.yul\":521:556   */\n      swap1\n      pop\n        /* \"#utility.yul\":466:562   */\n      swap2\n      swap1\n      pop\n      jump\t// out\n        /* \"#utility.yul\":568:690   */\n    tag_205:\n        /* \"#utility.yul\":641:665   */\n      tag_282\n        /* \"#utility.yul\":659:664   */\n      dup2\n        /* \"#utility.yul\":641:665   */\n      tag_204\n      jump\t// in\n    tag_282:\n        /* \"#utility.yul\":634:639   */\n      dup2\n        /* \"#utility.yul\":631:666   */\n      eq\n        /* \"#utility.yul\":621:684   */\n      tag_283\n      jumpi\n        /* \"#utility.yul\":680:681   */\n      0x00\n        /* \"#utility.yul\":677:678   */\n      dup1\n        /* \"#utility.yul\":670:682   */\n      revert\n        /* \"#utility.yul\":621:684   */\n    tag_283:\n        /* \"#utility.yul\":568:690   */\n      pop\n      jump\t// out\n        /* \"#utility.yul\":696:835   */\n    tag_206:\n        /* \"#utility.yul\":742:747   */\n      0x00\n        /* \"#utility.yul\":780:786   */\n      dup2\n        /* \"#utility.yul\":767:787   */\n      calldataload\n        /* \"#utility.yul\":758:787   */\n      swap1\n      pop\n        /* \"#utility.yul\":796:829   */\n      tag_285\n        /* \"#utility.yul\":823:828   */\n      dup2\n        /* \"#utility.yul\":796:829   */\n      tag_205\n      jump\t// in\n    tag_285:\n        /* \"#utility.yul\":696:835   */\n      swap3\n      swap2\n      pop\n      pop\n      jump\t// out\n        /* \"#utility.yul\":841:918   */\n    tag_207:\n        /* \"#utility.yul\":878:885   */\n      0x00\n        /* \"#utility.yul\":907:912   */\n      dup2\n        /* \"#utility.yul\":896:912   */\n      swap1\n      pop\n        /* \"#utility.yul\":841:918   */\n      swap2\n      swap1\n      pop\n      jump\t// out\n        /* \"#utility.yul\":924:1046   */\n    tag_208:\n        /* \"#utility.yul\":997:1021   */\n      tag_288\n        /* \"#utility.yul\":1015:1020   */\n      dup2\n        /* \"#utility.yul\":997:1021   */\n      tag_207\n      jump\t// in\n    tag_288:\n        /* \"#utility.yul\":990:995   */\n      dup2\n        /* \"#utility.yul\":987:1022   */\n      eq\n        /* \"#utility.yul\":977:1040   */\n      tag_289\n      jumpi\n        /* \"#utility.yul\":1036:1037   */\n      0x00\n        /* \"#utility.yul\":1033:1034   */\n      dup1\n        /* \"#utility.yul\":1026:1038   */\n      revert\n        /* \"#utility.yul\":977:1040   */\n    tag_289:\n        /* \"#utility.yul\":924:1046   */\n      pop\n      jump\t// out\n        /* \"#utility.yul\":1052:1191   */\n    tag_209:\n        /* \"#utility.yul\":1098:1103   */\n      0x00\n        /* \"#utility.yul\":1136:1142   */\n      dup2\n        /* \"#utility.yul\":1123:1143   */\n      calldataload\n        /* \"#utility.yul\":1114:1143   */\n      swap1\n      pop\n        /* \"#utility.yul\":1152:1185   */\n      tag_291\n        /* \"#utility.yul\":1179:1184   */\n      dup2\n        /* \"#utility.yul\":1152:1185   */\n      tag_208\n      jump\t// in\n    tag_291:\n        /* \"#utility.yul\":1052:1191   */\n      swap3\n      swap2\n      pop\n      pop\n      jump\t// out\n        /* \"#utility.yul\":1197:1671   */\n    tag_18:\n        /* \"#utility.yul\":1265:1271   */\n      0x00\n        /* \"#utility.yul\":1273:1279   */\n      dup1\n        /* \"#utility.yul\":1322:1324   */\n      0x40\n        /* \"#utility.yul\":1310:1319   */\n      dup4\n        /* \"#utility.yul\":1301:1308   */\n      dup6\n        /* \"#utility.yul\":1297:1320   */\n      sub\n        /* \"#utility.yul\":1293:1325   */\n      slt\n        /* \"#utility.yul\":1290:1409   */\n      iszero\n      tag_293\n      jumpi\n        /* \"#utility.yul\":1328:1407   */\n      tag_294\n      tag_201\n      jump\t// in\n    tag_294:\n        /* \"#utility.yul\":1290:1409   */\n    tag_293:\n        /* \"#utility.yul\":1448:1449   */\n      0x00\n        /* \"#utility.yul\":1473:1526   */\n      tag_295\n        /* \"#utility.yul\":1518:1525   */\n      dup6\n        /* \"#utility.yul\":1509:1515   */\n      dup3\n        /* \"#utility.yul\":1498:1507   */\n      dup7\n        /* \"#utility.yul\":1494:1516   */\n      add\n        /* \"#utility.yul\":1473:1526   */\n      tag_206\n      jump\t// in\n    tag_295:\n        /* \"#utility.yul\":1463:1526   */\n      swap3\n      pop\n        /* \"#utility.yul\":1419:1536   */\n      pop\n        /* \"#utility.yul\":1575:1577   */\n      0x20\n        /* \"#utility.yul\":1601:1654   */\n      tag_296\n        /* \"#utility.yul\":1646:1653   */\n      dup6\n        /* \"#utility.yul\":1637:1643   */\n      dup3\n        /* \"#utility.yul\":1626:1635   */\n      dup7\n        /* \"#utility.yul\":1622:1644   */\n      add\n        /* \"#utility.yul\":1601:1654   */\n      tag_209\n      jump\t// in\n    tag_296:\n        /* \"#utility.yul\":1591:1654   */\n      swap2\n      pop\n        /* \"#utility.yul\":1546:1664   */\n      pop\n        /* \"#utility.yul\":1197:1671   */\n      swap3\n      pop\n      swap3\n      swap1\n      pop\n      jump\t// out\n        /* \"#utility.yul\":1677:1795   */\n    tag_210:\n        /* \"#utility.yul\":1764:1788   */\n      tag_298\n        /* \"#utility.yul\":1782:1787   */\n      dup2\n        /* \"#utility.yul\":1764:1788   */\n      tag_207\n      jump\t// in\n    tag_298:\n        /* \"#utility.yul\":1759:1762   */\n      dup3\n        /* \"#utility.yul\":1752:1789   */\n      mstore\n        /* \"#utility.yul\":1677:1795   */\n      pop\n      pop\n      jump\t// out\n        /* \"#utility.yul\":1801:1919   */\n    tag_211:\n        /* \"#utility.yul\":1888:1912   */\n      tag_300\n        /* \"#utility.yul\":1906:1911   */\n      dup2\n        /* \"#utility.yul\":1888:1912   */\n      tag_204\n      jump\t// in\n    tag_300:\n        /* \"#utility.yul\":1883:1886   */\n      dup3\n        /* \"#utility.yul\":1876:1913   */\n      mstore\n        /* \"#utility.yul\":1801:1919   */\n      pop\n      pop\n      jump\t// out\n        /* \"#utility.yul\":1925:2024   */\n    tag_212:\n        /* \"#utility.yul\":1977:1983   */\n      0x00\n        /* \"#utility.yul\":2011:2016   */\n      dup2\n        /* \"#utility.yul\":2005:2017   */\n      mload\n        /* \"#utility.yul\":1995:2017   */\n      swap1\n      pop\n        /* \"#utility.yul\":1925:2024   */\n      swap2\n      swap1\n      pop\n      jump\t// out\n        /* \"#utility.yul\":2030:2199   */\n    tag_213:\n        /* \"#utility.yul\":2114:2125   */\n      0x00\n        /* \"#utility.yul\":2148:2154   */\n      dup3\n        /* \"#utility.yul\":2143:2146   */\n      dup3\n        /* \"#utility.yul\":2136:2155   */\n      mstore\n        /* \"#utility.yul\":2188:2192   */\n      0x20\n        /* \"#utility.yul\":2183:2186   */\n      dup3\n        /* \"#utility.yul\":2179:2193   */\n      add\n        /* \"#utility.yul\":2164:2193   */\n      swap1\n      pop\n        /* \"#utility.yul\":2030:2199   */\n      swap3\n      swap2\n      pop\n      pop\n      jump\t// out\n        /* \"#utility.yul\":2205:2344   */\n    tag_214:\n        /* \"#utility.yul\":2294:2300   */\n      dup3\n        /* \"#utility.yul\":2289:2292   */\n      dup2\n        /* \"#utility.yul\":2284:2287   */\n      dup4\n        /* \"#utility.yul\":2278:2301   */\n      mcopy\n        /* \"#utility.yul\":2335:2336   */\n      0x00\n        /* \"#utility.yul\":2326:2332   */\n      dup4\n        /* \"#utility.yul\":2321:2324   */\n      dup4\n        /* \"#utility.yul\":2317:2333   */\n      add\n        /* \"#utility.yul\":2310:2337   */\n      mstore\n        /* \"#utility.yul\":2205:2344   */\n      pop\n      pop\n      pop\n      jump\t// out\n        /* \"#utility.yul\":2350:2452   */\n    tag_215:\n        /* \"#utility.yul\":2391:2397   */\n      0x00\n        /* \"#utility.yul\":2442:2444   */\n      0x1f\n        /* \"#utility.yul\":2438:2445   */\n      not\n        /* \"#utility.yul\":2433:2435   */\n      0x1f\n        /* \"#utility.yul\":2426:2431   */\n      dup4\n        /* \"#utility.yul\":2422:2436   */\n      add\n        /* \"#utility.yul\":2418:2446   */\n      and\n        /* \"#utility.yul\":2408:2446   */\n      swap1\n      pop\n        /* \"#utility.yul\":2350:2452   */\n      swap2\n      swap1\n      pop\n      jump\t// out\n        /* \"#utility.yul\":2458:2835   */\n    tag_216:\n        /* \"#utility.yul\":2546:2549   */\n      0x00\n        /* \"#utility.yul\":2574:2613   */\n      tag_306\n        /* \"#utility.yul\":2607:2612   */\n      dup3\n        /* \"#utility.yul\":2574:2613   */\n      tag_212\n      jump\t// in\n    tag_306:\n        /* \"#utility.yul\":2629:2700   */\n      tag_307\n        /* \"#utility.yul\":2693:2699   */\n      dup2\n        /* \"#utility.yul\":2688:2691   */\n      dup6\n        /* \"#utility.yul\":2629:2700   */\n      tag_213\n      jump\t// in\n    tag_307:\n        /* \"#utility.yul\":2622:2700   */\n      swap4\n      pop\n        /* \"#utility.yul\":2709:2774   */\n      tag_308\n        /* \"#utility.yul\":2767:2773   */\n      dup2\n        /* \"#utility.yul\":2762:2765   */\n      dup6\n        /* \"#utility.yul\":2755:2759   */\n      0x20\n        /* \"#utility.yul\":2748:2753   */\n      dup7\n        /* \"#utility.yul\":2744:2760   */\n      add\n        /* \"#utility.yul\":2709:2774   */\n      tag_214\n      jump\t// in\n    tag_308:\n        /* \"#utility.yul\":2799:2828   */\n      tag_309\n        /* \"#utility.yul\":2821:2827   */\n      dup2\n        /* \"#utility.yul\":2799:2828   */\n      tag_215\n      jump\t// in\n    tag_309:\n        /* \"#utility.yul\":2794:2797   */\n      dup5\n        /* \"#utility.yul\":2790:2829   */\n      add\n        /* \"#utility.yul\":2783:2829   */\n      swap2\n      pop\n        /* \"#utility.yul\":2550:2835   */\n      pop\n        /* \"#utility.yul\":2458:2835   */\n      swap3\n      swap2\n      pop\n      pop\n      jump\t// out\n        /* \"#utility.yul\":2841:3596   */\n    tag_21:\n        /* \"#utility.yul\":3066:3070   */\n      0x00\n        /* \"#utility.yul\":3104:3107   */\n      0xa0\n        /* \"#utility.yul\":3093:3102   */\n      dup3\n        /* \"#utility.yul\":3089:3108   */\n      add\n        /* \"#utility.yul\":3081:3108   */\n      swap1\n      pop\n        /* \"#utility.yul\":3118:3189   */\n      tag_311\n        /* \"#utility.yul\":3186:3187   */\n      0x00\n        /* \"#utility.yul\":3175:3184   */\n      dup4\n        /* \"#utility.yul\":3171:3188   */\n      add\n        /* \"#utility.yul\":3162:3168   */\n      dup9\n        /* \"#utility.yul\":3118:3189   */\n      tag_210\n      jump\t// in\n    tag_311:\n        /* \"#utility.yul\":3199:3271   */\n      tag_312\n        /* \"#utility.yul\":3267:3269   */\n      0x20\n        /* \"#utility.yul\":3256:3265   */\n      dup4\n        /* \"#utility.yul\":3252:3270   */\n      add\n        /* \"#utility.yul\":3243:3249   */\n      dup8\n        /* \"#utility.yul\":3199:3271   */\n      tag_211\n      jump\t// in\n    tag_312:\n        /* \"#utility.yul\":3318:3327   */\n      dup2\n        /* \"#utility.yul\":3312:3316   */\n      dup2\n        /* \"#utility.yul\":3308:3328   */\n      sub\n        /* \"#utility.yul\":3303:3305   */\n      0x40\n        /* \"#utility.yul\":3292:3301   */\n      dup4\n        /* \"#utility.yul\":3288:3306   */\n      add\n        /* \"#utility.yul\":3281:3329   */\n      mstore\n        /* \"#utility.yul\":3346:3424   */\n      tag_313\n        /* \"#utility.yul\":3419:3423   */\n      dup2\n        /* \"#utility.yul\":3410:3416   */\n      dup7\n        /* \"#utility.yul\":3346:3424   */\n      tag_216\n      jump\t// in\n    tag_313:\n        /* \"#utility.yul\":3338:3424   */\n      swap1\n      pop\n        /* \"#utility.yul\":3434:3506   */\n      tag_314\n        /* \"#utility.yul\":3502:3504   */\n      0x60\n        /* \"#utility.yul\":3491:3500   */\n      dup4\n        /* \"#utility.yul\":3487:3505   */\n      add\n        /* \"#utility.yul\":3478:3484   */\n      dup6\n        /* \"#utility.yul\":3434:3506   */\n      tag_210\n      jump\t// in\n    tag_314:\n        /* \"#utility.yul\":3516:3589   */\n      tag_315\n        /* \"#utility.yul\":3584:3587   */\n      0x80\n        /* \"#utility.yul\":3573:3582   */\n      dup4\n        /* \"#utility.yul\":3569:3588   */\n      add\n        /* \"#utility.yul\":3560:3566   */\n      dup5\n        /* \"#utility.yul\":3516:3589   */\n      tag_210\n      jump\t// in\n    tag_315:\n        /* \"#utility.yul\":2841:3596   */\n      swap7\n      swap6\n      pop\n      pop\n      pop\n      pop\n      pop\n      pop\n      jump\t// out\n        /* \"#utility.yul\":3602:3691   */\n    tag_217:\n        /* \"#utility.yul\":3638:3645   */\n      0x00\n        /* \"#utility.yul\":3678:3684   */\n      0xffff\n        /* \"#utility.yul\":3671:3676   */\n      dup3\n        /* \"#utility.yul\":3667:3685   */\n      and\n        /* \"#utility.yul\":3656:3685   */\n      swap1\n      pop\n        /* \"#utility.yul\":3602:3691   */\n      swap2\n      swap1\n      pop\n      jump\t// out\n        /* \"#utility.yul\":3697:3812   */\n    tag_218:\n        /* \"#utility.yul\":3782:3805   */\n      tag_318\n        /* \"#utility.yul\":3799:3804   */\n      dup2\n        /* \"#utility.yul\":3782:3805   */\n      tag_217\n      jump\t// in\n    tag_318:\n        /* \"#utility.yul\":3777:3780   */\n      dup3\n        /* \"#utility.yul\":3770:3806   */\n      mstore\n        /* \"#utility.yul\":3697:3812   */\n      pop\n      pop\n      jump\t// out\n        /* \"#utility.yul\":3818:4036   */\n    tag_25:\n        /* \"#utility.yul\":3909:3913   */\n      0x00\n        /* \"#utility.yul\":3947:3949   */\n      0x20\n        /* \"#utility.yul\":3936:3945   */\n      dup3\n        /* \"#utility.yul\":3932:3950   */\n      add\n        /* \"#utility.yul\":3924:3950   */\n      swap1\n      pop\n        /* \"#utility.yul\":3960:4029   */\n      tag_320\n        /* \"#utility.yul\":4026:4027   */\n      0x00\n        /* \"#utility.yul\":4015:4024   */\n      dup4\n        /* \"#utility.yul\":4011:4028   */\n      add\n        /* \"#utility.yul\":4002:4008   */\n      dup5\n        /* \"#utility.yul\":3960:4029   */\n      tag_218\n      jump\t// in\n    tag_320:\n        /* \"#utility.yul\":3818:4036   */\n      swap3\n      swap2\n      pop\n      pop\n      jump\t// out\n        /* \"#utility.yul\":4042:4162   */\n    tag_219:\n        /* \"#utility.yul\":4114:4137   */\n      tag_322\n        /* \"#utility.yul\":4131:4136   */\n      dup2\n        /* \"#utility.yul\":4114:4137   */\n      tag_217\n      jump\t// in\n    tag_322:\n        /* \"#utility.yul\":4107:4112   */\n      dup2\n        /* \"#utility.yul\":4104:4138   */\n      eq\n        /* \"#utility.yul\":4094:4156   */\n      tag_323\n      jumpi\n        /* \"#utility.yul\":4152:4153   */\n      0x00\n        /* \"#utility.yul\":4149:4150   */\n      dup1\n        /* \"#utility.yul\":4142:4154   */\n      revert\n        /* \"#utility.yul\":4094:4156   */\n    tag_323:\n        /* \"#utility.yul\":4042:4162   */\n      pop\n      jump\t// out\n        /* \"#utility.yul\":4168:4305   */\n    tag_220:\n        /* \"#utility.yul\":4213:4218   */\n      0x00\n        /* \"#utility.yul\":4251:4257   */\n      dup2\n        /* \"#utility.yul\":4238:4258   */\n      calldataload\n        /* \"#utility.yul\":4229:4258   */\n      swap1\n      pop\n        /* \"#utility.yul\":4267:4299   */\n      tag_325\n        /* \"#utility.yul\":4293:4298   */\n      dup2\n        /* \"#utility.yul\":4267:4299   */\n      tag_219\n      jump\t// in\n    tag_325:\n        /* \"#utility.yul\":4168:4305   */\n      swap3\n      swap2\n      pop\n      pop\n      jump\t// out\n        /* \"#utility.yul\":4311:4638   */\n    tag_31:\n        /* \"#utility.yul\":4369:4375   */\n      0x00\n        /* \"#utility.yul\":4418:4420   */\n      0x20\n        /* \"#utility.yul\":4406:4415   */\n      dup3\n        /* \"#utility.yul\":4397:4404   */\n      dup5\n        /* \"#utility.yul\":4393:4416   */\n      sub\n        /* \"#utility.yul\":4389:4421   */\n      slt\n        /* \"#utility.yul\":4386:4505   */\n      iszero\n      tag_327\n      jumpi\n        /* \"#utility.yul\":4424:4503   */\n      tag_328\n      tag_201\n      jump\t// in\n    tag_328:\n        /* \"#utility.yul\":4386:4505   */\n    tag_327:\n        /* \"#utility.yul\":4544:4545   */\n      0x00\n        /* \"#utility.yul\":4569:4621   */\n      tag_329\n        /* \"#utility.yul\":4613:4620   */\n      dup5\n        /* \"#utility.yul\":4604:4610   */\n      dup3\n        /* \"#utility.yul\":4593:4602   */\n      dup6\n        /* \"#utility.yul\":4589:4611   */\n      add\n        /* \"#utility.yul\":4569:4621   */\n      tag_220\n      jump\t// in\n    tag_329:\n        /* \"#utility.yul\":4559:4621   */\n      swap2\n      pop\n        /* \"#utility.yul\":4515:4631   */\n      pop\n        /* \"#utility.yul\":4311:4638   */\n      swap3\n      swap2\n      pop\n      pop\n      jump\t// out\n        /* \"#utility.yul\":4644:4761   */\n    tag_221:\n        /* \"#utility.yul\":4753:4754   */\n      0x00\n        /* \"#utility.yul\":4750:4751   */\n      dup1\n        /* \"#utility.yul\":4743:4755   */\n      revert\n        /* \"#utility.yul\":4767:4884   */\n    tag_222:\n        /* \"#utility.yul\":4876:4877   */\n      0x00\n        /* \"#utility.yul\":4873:4874   */\n      dup1\n        /* \"#utility.yul\":4866:4878   */\n      revert\n        /* \"#utility.yul\":4890:5070   */\n    tag_223:\n        /* \"#utility.yul\":4938:5015   */\n      0x4e487b7100000000000000000000000000000000000000000000000000000000\n        /* \"#utility.yul\":4935:4936   */\n      0x00\n        /* \"#utility.yul\":4928:5016   */\n      mstore\n        /* \"#utility.yul\":5035:5039   */\n      0x41\n        /* \"#utility.yul\":5032:5033   */\n      0x04\n        /* \"#utility.yul\":5025:5040   */\n      mstore\n        /* \"#utility.yul\":5059:5063   */\n      0x24\n        /* \"#utility.yul\":5056:5057   */\n      0x00\n        /* \"#utility.yul\":5049:5064   */\n      revert\n        /* \"#utility.yul\":5076:5357   */\n    tag_224:\n        /* \"#utility.yul\":5159:5186   */\n      tag_334\n        /* \"#utility.yul\":5181:5185   */\n      dup3\n        /* \"#utility.yul\":5159:5186   */\n      tag_215\n      jump\t// in\n    tag_334:\n        /* \"#utility.yul\":5151:5157   */\n      dup2\n        /* \"#utility.yul\":5147:5187   */\n      add\n        /* \"#utility.yul\":5289:5295   */\n      dup2\n        /* \"#utility.yul\":5277:5287   */\n      dup2\n        /* \"#utility.yul\":5274:5296   */\n      lt\n        /* \"#utility.yul\":5253:5271   */\n      0xffffffffffffffff\n        /* \"#utility.yul\":5241:5251   */\n      dup3\n        /* \"#utility.yul\":5238:5272   */\n      gt\n        /* \"#utility.yul\":5235:5297   */\n      or\n        /* \"#utility.yul\":5232:5320   */\n      iszero\n      tag_335\n      jumpi\n        /* \"#utility.yul\":5300:5318   */\n      tag_336\n      tag_223\n      jump\t// in\n    tag_336:\n        /* \"#utility.yul\":5232:5320   */\n    tag_335:\n        /* \"#utility.yul\":5340:5350   */\n      dup1\n        /* \"#utility.yul\":5336:5338   */\n      0x40\n        /* \"#utility.yul\":5329:5351   */\n      mstore\n        /* \"#utility.yul\":5119:5357   */\n      pop\n        /* \"#utility.yul\":5076:5357   */\n      pop\n      pop\n      jump\t// out\n        /* \"#utility.yul\":5363:5492   */\n    tag_225:\n        /* \"#utility.yul\":5397:5403   */\n      0x00\n        /* \"#utility.yul\":5424:5444   */\n      tag_338\n      tag_200\n      jump\t// in\n    tag_338:\n        /* \"#utility.yul\":5414:5444   */\n      swap1\n      pop\n        /* \"#utility.yul\":5453:5486   */\n      tag_339\n        /* \"#utility.yul\":5481:5485   */\n      dup3\n        /* \"#utility.yul\":5473:5479   */\n      dup3\n        /* \"#utility.yul\":5453:5486   */\n      tag_224\n      jump\t// in\n    tag_339:\n        /* \"#utility.yul\":5363:5492   */\n      swap2\n      swap1\n      pop\n      jump\t// out\n        /* \"#utility.yul\":5498:5806   */\n    tag_226:\n        /* \"#utility.yul\":5560:5564   */\n      0x00\n        /* \"#utility.yul\":5650:5668   */\n      0xffffffffffffffff\n        /* \"#utility.yul\":5642:5648   */\n      dup3\n        /* \"#utility.yul\":5639:5669   */\n      gt\n        /* \"#utility.yul\":5636:5692   */\n      iszero\n      tag_341\n      jumpi\n        /* \"#utility.yul\":5672:5690   */\n      tag_342\n      tag_223\n      jump\t// in\n    tag_342:\n        /* \"#utility.yul\":5636:5692   */\n    tag_341:\n        /* \"#utility.yul\":5710:5739   */\n      tag_343\n        /* \"#utility.yul\":5732:5738   */\n      dup3\n        /* \"#utility.yul\":5710:5739   */\n      tag_215\n      jump\t// in\n    tag_343:\n        /* \"#utility.yul\":5702:5739   */\n      swap1\n      pop\n        /* \"#utility.yul\":5794:5798   */\n      0x20\n        /* \"#utility.yul\":5788:5792   */\n      dup2\n        /* \"#utility.yul\":5784:5799   */\n      add\n        /* \"#utility.yul\":5776:5799   */\n      swap1\n      pop\n        /* \"#utility.yul\":5498:5806   */\n      swap2\n      swap1\n      pop\n      jump\t// out\n        /* \"#utility.yul\":5812:5960   */\n    tag_227:\n        /* \"#utility.yul\":5910:5916   */\n      dup3\n        /* \"#utility.yul\":5905:5908   */\n      dup2\n        /* \"#utility.yul\":5900:5903   */\n      dup4\n        /* \"#utility.yul\":5887:5917   */\n      calldatacopy\n        /* \"#utility.yul\":5951:5952   */\n      0x00\n        /* \"#utility.yul\":5942:5948   */\n      dup4\n        /* \"#utility.yul\":5937:5940   */\n      dup4\n        /* \"#utility.yul\":5933:5949   */\n      add\n        /* \"#utility.yul\":5926:5953   */\n      mstore\n        /* \"#utility.yul\":5812:5960   */\n      pop\n      pop\n      pop\n      jump\t// out\n        /* \"#utility.yul\":5966:6391   */\n    tag_228:\n        /* \"#utility.yul\":6044:6049   */\n      0x00\n        /* \"#utility.yul\":6069:6135   */\n      tag_346\n        /* \"#utility.yul\":6085:6134   */\n      tag_347\n        /* \"#utility.yul\":6127:6133   */\n      dup5\n        /* \"#utility.yul\":6085:6134   */\n      tag_226\n      jump\t// in\n    tag_347:\n        /* \"#utility.yul\":6069:6135   */\n      tag_225\n      jump\t// in\n    tag_346:\n        /* \"#utility.yul\":6060:6135   */\n      swap1\n      pop\n        /* \"#utility.yul\":6158:6164   */\n      dup3\n        /* \"#utility.yul\":6151:6156   */\n      dup2\n        /* \"#utility.yul\":6144:6165   */\n      mstore\n        /* \"#utility.yul\":6196:6200   */\n      0x20\n        /* \"#utility.yul\":6189:6194   */\n      dup2\n        /* \"#utility.yul\":6185:6201   */\n      add\n        /* \"#utility.yul\":6234:6237   */\n      dup5\n        /* \"#utility.yul\":6225:6231   */\n      dup5\n        /* \"#utility.yul\":6220:6223   */\n      dup5\n        /* \"#utility.yul\":6216:6232   */\n      add\n        /* \"#utility.yul\":6213:6238   */\n      gt\n        /* \"#utility.yul\":6210:6322   */\n      iszero\n      tag_348\n      jumpi\n        /* \"#utility.yul\":6241:6320   */\n      tag_349\n      tag_222\n      jump\t// in\n    tag_349:\n        /* \"#utility.yul\":6210:6322   */\n    tag_348:\n        /* \"#utility.yul\":6331:6385   */\n      tag_350\n        /* \"#utility.yul\":6378:6384   */\n      dup5\n        /* \"#utility.yul\":6373:6376   */\n      dup3\n        /* \"#utility.yul\":6368:6371   */\n      dup6\n        /* \"#utility.yul\":6331:6385   */\n      tag_227\n      jump\t// in\n    tag_350:\n        /* \"#utility.yul\":6050:6391   */\n      pop\n        /* \"#utility.yul\":5966:6391   */\n      swap4\n      swap3\n      pop\n      pop\n      pop\n      jump\t// out\n        /* \"#utility.yul\":6411:6751   */\n    tag_229:\n        /* \"#utility.yul\":6467:6472   */\n      0x00\n        /* \"#utility.yul\":6516:6519   */\n      dup3\n        /* \"#utility.yul\":6509:6513   */\n      0x1f\n        /* \"#utility.yul\":6501:6507   */\n      dup4\n        /* \"#utility.yul\":6497:6514   */\n      add\n        /* \"#utility.yul\":6493:6520   */\n      slt\n        /* \"#utility.yul\":6483:6605   */\n      tag_352\n      jumpi\n        /* \"#utility.yul\":6524:6603   */\n      tag_353\n      tag_221\n      jump\t// in\n    tag_353:\n        /* \"#utility.yul\":6483:6605   */\n    tag_352:\n        /* \"#utility.yul\":6641:6647   */\n      dup2\n        /* \"#utility.yul\":6628:6648   */\n      calldataload\n        /* \"#utility.yul\":6666:6745   */\n      tag_354\n        /* \"#utility.yul\":6741:6744   */\n      dup5\n        /* \"#utility.yul\":6733:6739   */\n      dup3\n        /* \"#utility.yul\":6726:6730   */\n      0x20\n        /* \"#utility.yul\":6718:6724   */\n      dup7\n        /* \"#utility.yul\":6714:6731   */\n      add\n        /* \"#utility.yul\":6666:6745   */\n      tag_228\n      jump\t// in\n    tag_354:\n        /* \"#utility.yul\":6657:6745   */\n      swap2\n      pop\n        /* \"#utility.yul\":6473:6751   */\n      pop\n        /* \"#utility.yul\":6411:6751   */\n      swap3\n      swap2\n      pop\n      pop\n      jump\t// out\n        /* \"#utility.yul\":6757:7266   */\n    tag_40:\n        /* \"#utility.yul\":6826:6832   */\n      0x00\n        /* \"#utility.yul\":6875:6877   */\n      0x20\n        /* \"#utility.yul\":6863:6872   */\n      dup3\n        /* \"#utility.yul\":6854:6861   */\n      dup5\n        /* \"#utility.yul\":6850:6873   */\n      sub\n        /* \"#utility.yul\":6846:6878   */\n      slt\n        /* \"#utility.yul\":6843:6962   */\n      iszero\n      tag_356\n      jumpi\n        /* \"#utility.yul\":6881:6960   */\n      tag_357\n      tag_201\n      jump\t// in\n    tag_357:\n        /* \"#utility.yul\":6843:6962   */\n    tag_356:\n        /* \"#utility.yul\":7029:7030   */\n      0x00\n        /* \"#utility.yul\":7018:7027   */\n      dup3\n        /* \"#utility.yul\":7014:7031   */\n      add\n        /* \"#utility.yul\":7001:7032   */\n      calldataload\n        /* \"#utility.yul\":7059:7077   */\n      0xffffffffffffffff\n        /* \"#utility.yul\":7051:7057   */\n      dup2\n        /* \"#utility.yul\":7048:7078   */\n      gt\n        /* \"#utility.yul\":7045:7162   */\n      iszero\n      tag_358\n      jumpi\n        /* \"#utility.yul\":7081:7160   */\n      tag_359\n      tag_202\n      jump\t// in\n    tag_359:\n        /* \"#utility.yul\":7045:7162   */\n    tag_358:\n        /* \"#utility.yul\":7186:7249   */\n      tag_360\n        /* \"#utility.yul\":7241:7248   */\n      dup5\n        /* \"#utility.yul\":7232:7238   */\n      dup3\n        /* \"#utility.yul\":7221:7230   */\n      dup6\n        /* \"#utility.yul\":7217:7239   */\n      add\n        /* \"#utility.yul\":7186:7249   */\n      tag_229\n      jump\t// in\n    tag_360:\n        /* \"#utility.yul\":7176:7249   */\n      swap2\n      pop\n        /* \"#utility.yul\":6972:7259   */\n      pop\n        /* \"#utility.yul\":6757:7266   */\n      swap3\n      swap2\n      pop\n      pop\n      jump\t// out\n        /* \"#utility.yul\":7272:7601   */\n    tag_44:\n        /* \"#utility.yul\":7331:7337   */\n      0x00\n        /* \"#utility.yul\":7380:7382   */\n      0x20\n        /* \"#utility.yul\":7368:7377   */\n      dup3\n        /* \"#utility.yul\":7359:7366   */\n      dup5\n        /* \"#utility.yul\":7355:7378   */\n      sub\n        /* \"#utility.yul\":7351:7383   */\n      slt\n        /* \"#utility.yul\":7348:7467   */\n      iszero\n      tag_362\n      jumpi\n        /* \"#utility.yul\":7386:7465   */\n      tag_363\n      tag_201\n      jump\t// in\n    tag_363:\n        /* \"#utility.yul\":7348:7467   */\n    tag_362:\n        /* \"#utility.yul\":7506:7507   */\n      0x00\n        /* \"#utility.yul\":7531:7584   */\n      tag_364\n        /* \"#utility.yul\":7576:7583   */\n      dup5\n        /* \"#utility.yul\":7567:7573   */\n      dup3\n        /* \"#utility.yul\":7556:7565   */\n      dup6\n        /* \"#utility.yul\":7552:7574   */\n      add\n        /* \"#utility.yul\":7531:7584   */\n      tag_206\n      jump\t// in\n    tag_364:\n        /* \"#utility.yul\":7521:7584   */\n      swap2\n      pop\n        /* \"#utility.yul\":7477:7594   */\n      pop\n        /* \"#utility.yul\":7272:7601   */\n      swap3\n      swap2\n      pop\n      pop\n      jump\t// out\n        /* \"#utility.yul\":7607:7829   */\n    tag_47:\n        /* \"#utility.yul\":7700:7704   */\n      0x00\n        /* \"#utility.yul\":7738:7740   */\n      0x20\n        /* \"#utility.yul\":7727:7736   */\n      dup3\n        /* \"#utility.yul\":7723:7741   */\n      add\n        /* \"#utility.yul\":7715:7741   */\n      swap1\n      pop\n        /* \"#utility.yul\":7751:7822   */\n      tag_366\n        /* \"#utility.yul\":7819:7820   */\n      0x00\n        /* \"#utility.yul\":7808:7817   */\n      dup4\n        /* \"#utility.yul\":7804:7821   */\n      add\n        /* \"#utility.yul\":7795:7801   */\n      dup5\n        /* \"#utility.yul\":7751:7822   */\n      tag_210\n      jump\t// in\n    tag_366:\n        /* \"#utility.yul\":7607:7829   */\n      swap3\n      swap2\n      pop\n      pop\n      jump\t// out\n        /* \"#utility.yul\":7835:8057   */\n    tag_51:\n        /* \"#utility.yul\":7928:7932   */\n      0x00\n        /* \"#utility.yul\":7966:7968   */\n      0x20\n        /* \"#utility.yul\":7955:7964   */\n      dup3\n        /* \"#utility.yul\":7951:7969   */\n      add\n        /* \"#utility.yul\":7943:7969   */\n      swap1\n      pop\n        /* \"#utility.yul\":7979:8050   */\n      tag_368\n        /* \"#utility.yul\":8047:8048   */\n      0x00\n        /* \"#utility.yul\":8036:8045   */\n      dup4\n        /* \"#utility.yul\":8032:8049   */\n      add\n        /* \"#utility.yul\":8023:8029   */\n      dup5\n        /* \"#utility.yul\":7979:8050   */\n      tag_211\n      jump\t// in\n    tag_368:\n        /* \"#utility.yul\":7835:8057   */\n      swap3\n      swap2\n      pop\n      pop\n      jump\t// out\n        /* \"#utility.yul\":8063:8200   */\n    tag_230:\n        /* \"#utility.yul\":8153:8159   */\n      0x00\n        /* \"#utility.yul\":8187:8192   */\n      dup2\n        /* \"#utility.yul\":8181:8193   */\n      mload\n        /* \"#utility.yul\":8171:8193   */\n      swap1\n      pop\n        /* \"#utility.yul\":8063:8200   */\n      swap2\n      swap1\n      pop\n      jump\t// out\n        /* \"#utility.yul\":8206:8413   */\n    tag_231:\n        /* \"#utility.yul\":8328:8339   */\n      0x00\n        /* \"#utility.yul\":8362:8368   */\n      dup3\n        /* \"#utility.yul\":8357:8360   */\n      dup3\n        /* \"#utility.yul\":8350:8369   */\n      mstore\n        /* \"#utility.yul\":8402:8406   */\n      0x20\n        /* \"#utility.yul\":8397:8400   */\n      dup3\n        /* \"#utility.yul\":8393:8407   */\n      add\n        /* \"#utility.yul\":8378:8407   */\n      swap1\n      pop\n        /* \"#utility.yul\":8206:8413   */\n      swap3\n      swap2\n      pop\n      pop\n      jump\t// out\n        /* \"#utility.yul\":8419:8574   */\n    tag_232:\n        /* \"#utility.yul\":8509:8513   */\n      0x00\n        /* \"#utility.yul\":8532:8535   */\n      dup2\n        /* \"#utility.yul\":8524:8535   */\n      swap1\n      pop\n        /* \"#utility.yul\":8562:8566   */\n      0x20\n        /* \"#utility.yul\":8557:8560   */\n      dup3\n        /* \"#utility.yul\":8553:8567   */\n      add\n        /* \"#utility.yul\":8545:8567   */\n      swap1\n      pop\n        /* \"#utility.yul\":8419:8574   */\n      swap2\n      swap1\n      pop\n      jump\t// out\n        /* \"#utility.yul\":8580:8688   */\n    tag_233:\n        /* \"#utility.yul\":8657:8681   */\n      tag_373\n        /* \"#utility.yul\":8675:8680   */\n      dup2\n        /* \"#utility.yul\":8657:8681   */\n      tag_207\n      jump\t// in\n    tag_373:\n        /* \"#utility.yul\":8652:8655   */\n      dup3\n        /* \"#utility.yul\":8645:8682   */\n      mstore\n        /* \"#utility.yul\":8580:8688   */\n      pop\n      pop\n      jump\t// out\n        /* \"#utility.yul\":8694:8802   */\n    tag_234:\n        /* \"#utility.yul\":8771:8795   */\n      tag_375\n        /* \"#utility.yul\":8789:8794   */\n      dup2\n        /* \"#utility.yul\":8771:8795   */\n      tag_204\n      jump\t// in\n    tag_375:\n        /* \"#utility.yul\":8766:8769   */\n      dup3\n        /* \"#utility.yul\":8759:8796   */\n      mstore\n        /* \"#utility.yul\":8694:8802   */\n      pop\n      pop\n      jump\t// out\n        /* \"#utility.yul\":8808:8967   */\n    tag_235:\n        /* \"#utility.yul\":8882:8893   */\n      0x00\n        /* \"#utility.yul\":8916:8922   */\n      dup3\n        /* \"#utility.yul\":8911:8914   */\n      dup3\n        /* \"#utility.yul\":8904:8923   */\n      mstore\n        /* \"#utility.yul\":8956:8960   */\n      0x20\n        /* \"#utility.yul\":8951:8954   */\n      dup3\n        /* \"#utility.yul\":8947:8961   */\n      add\n        /* \"#utility.yul\":8932:8961   */\n      swap1\n      pop\n        /* \"#utility.yul\":8808:8967   */\n      swap3\n      swap2\n      pop\n      pop\n      jump\t// out\n        /* \"#utility.yul\":8973:9330   */\n    tag_236:\n        /* \"#utility.yul\":9051:9054   */\n      0x00\n        /* \"#utility.yul\":9079:9118   */\n      tag_378\n        /* \"#utility.yul\":9112:9117   */\n      dup3\n        /* \"#utility.yul\":9079:9118   */\n      tag_212\n      jump\t// in\n    tag_378:\n        /* \"#utility.yul\":9134:9195   */\n      tag_379\n        /* \"#utility.yul\":9188:9194   */\n      dup2\n        /* \"#utility.yul\":9183:9186   */\n      dup6\n        /* \"#utility.yul\":9134:9195   */\n      tag_235\n      jump\t// in\n    tag_379:\n        /* \"#utility.yul\":9127:9195   */\n      swap4\n      pop\n        /* \"#utility.yul\":9204:9269   */\n      tag_380\n        /* \"#utility.yul\":9262:9268   */\n      dup2\n        /* \"#utility.yul\":9257:9260   */\n      dup6\n        /* \"#utility.yul\":9250:9254   */\n      0x20\n        /* \"#utility.yul\":9243:9248   */\n      dup7\n        /* \"#utility.yul\":9239:9255   */\n      add\n        /* \"#utility.yul\":9204:9269   */\n      tag_214\n      jump\t// in\n    tag_380:\n        /* \"#utility.yul\":9294:9323   */\n      tag_381\n        /* \"#utility.yul\":9316:9322   */\n      dup2\n        /* \"#utility.yul\":9294:9323   */\n      tag_215\n      jump\t// in\n    tag_381:\n        /* \"#utility.yul\":9289:9292   */\n      dup5\n        /* \"#utility.yul\":9285:9324   */\n      add\n        /* \"#utility.yul\":9278:9324   */\n      swap2\n      pop\n        /* \"#utility.yul\":9055:9330   */\n      pop\n        /* \"#utility.yul\":8973:9330   */\n      swap3\n      swap2\n      pop\n      pop\n      jump\t// out\n        /* \"#utility.yul\":9390:10513   */\n    tag_237:\n        /* \"#utility.yul\":9495:9498   */\n      0x00\n        /* \"#utility.yul\":9531:9535   */\n      0xa0\n        /* \"#utility.yul\":9526:9529   */\n      dup4\n        /* \"#utility.yul\":9522:9536   */\n      add\n        /* \"#utility.yul\":9616:9620   */\n      0x00\n        /* \"#utility.yul\":9609:9614   */\n      dup4\n        /* \"#utility.yul\":9605:9621   */\n      add\n        /* \"#utility.yul\":9599:9622   */\n      mload\n        /* \"#utility.yul\":9635:9698   */\n      tag_383\n        /* \"#utility.yul\":9692:9696   */\n      0x00\n        /* \"#utility.yul\":9687:9690   */\n      dup7\n        /* \"#utility.yul\":9683:9697   */\n      add\n        /* \"#utility.yul\":9669:9681   */\n      dup3\n        /* \"#utility.yul\":9635:9698   */\n      tag_233\n      jump\t// in\n    tag_383:\n        /* \"#utility.yul\":9546:9708   */\n      pop\n        /* \"#utility.yul\":9792:9796   */\n      0x20\n        /* \"#utility.yul\":9785:9790   */\n      dup4\n        /* \"#utility.yul\":9781:9797   */\n      add\n        /* \"#utility.yul\":9775:9798   */\n      mload\n        /* \"#utility.yul\":9811:9874   */\n      tag_384\n        /* \"#utility.yul\":9868:9872   */\n      0x20\n        /* \"#utility.yul\":9863:9866   */\n      dup7\n        /* \"#utility.yul\":9859:9873   */\n      add\n        /* \"#utility.yul\":9845:9857   */\n      dup3\n        /* \"#utility.yul\":9811:9874   */\n      tag_234\n      jump\t// in\n    tag_384:\n        /* \"#utility.yul\":9718:9884   */\n      pop\n        /* \"#utility.yul\":9969:9973   */\n      0x40\n        /* \"#utility.yul\":9962:9967   */\n      dup4\n        /* \"#utility.yul\":9958:9974   */\n      add\n        /* \"#utility.yul\":9952:9975   */\n      mload\n        /* \"#utility.yul\":10022:10025   */\n      dup5\n        /* \"#utility.yul\":10016:10020   */\n      dup3\n        /* \"#utility.yul\":10012:10026   */\n      sub\n        /* \"#utility.yul\":10005:10009   */\n      0x40\n        /* \"#utility.yul\":10000:10003   */\n      dup7\n        /* \"#utility.yul\":9996:10010   */\n      add\n        /* \"#utility.yul\":9989:10027   */\n      mstore\n        /* \"#utility.yul\":10048:10121   */\n      tag_385\n        /* \"#utility.yul\":10116:10120   */\n      dup3\n        /* \"#utility.yul\":10102:10114   */\n      dup3\n        /* \"#utility.yul\":10048:10121   */\n      tag_236\n      jump\t// in\n    tag_385:\n        /* \"#utility.yul\":10040:10121   */\n      swap2\n      pop\n        /* \"#utility.yul\":9894:10132   */\n      pop\n        /* \"#utility.yul\":10219:10223   */\n      0x60\n        /* \"#utility.yul\":10212:10217   */\n      dup4\n        /* \"#utility.yul\":10208:10224   */\n      add\n        /* \"#utility.yul\":10202:10225   */\n      mload\n        /* \"#utility.yul\":10238:10301   */\n      tag_386\n        /* \"#utility.yul\":10295:10299   */\n      0x60\n        /* \"#utility.yul\":10290:10293   */\n      dup7\n        /* \"#utility.yul\":10286:10300   */\n      add\n        /* \"#utility.yul\":10272:10284   */\n      dup3\n        /* \"#utility.yul\":10238:10301   */\n      tag_233\n      jump\t// in\n    tag_386:\n        /* \"#utility.yul\":10142:10311   */\n      pop\n        /* \"#utility.yul\":10394:10398   */\n      0x80\n        /* \"#utility.yul\":10387:10392   */\n      dup4\n        /* \"#utility.yul\":10383:10399   */\n      add\n        /* \"#utility.yul\":10377:10400   */\n      mload\n        /* \"#utility.yul\":10413:10476   */\n      tag_387\n        /* \"#utility.yul\":10470:10474   */\n      0x80\n        /* \"#utility.yul\":10465:10468   */\n      dup7\n        /* \"#utility.yul\":10461:10475   */\n      add\n        /* \"#utility.yul\":10447:10459   */\n      dup3\n        /* \"#utility.yul\":10413:10476   */\n      tag_233\n      jump\t// in\n    tag_387:\n        /* \"#utility.yul\":10321:10486   */\n      pop\n        /* \"#utility.yul\":10503:10507   */\n      dup1\n        /* \"#utility.yul\":10496:10507   */\n      swap2\n      pop\n        /* \"#utility.yul\":9500:10513   */\n      pop\n        /* \"#utility.yul\":9390:10513   */\n      swap3\n      swap2\n      pop\n      pop\n      jump\t// out\n        /* \"#utility.yul\":10519:10767   */\n    tag_238:\n        /* \"#utility.yul\":10634:10644   */\n      0x00\n        /* \"#utility.yul\":10669:10761   */\n      tag_389\n        /* \"#utility.yul\":10757:10760   */\n      dup4\n        /* \"#utility.yul\":10749:10755   */\n      dup4\n        /* \"#utility.yul\":10669:10761   */\n      tag_237\n      jump\t// in\n    tag_389:\n        /* \"#utility.yul\":10655:10761   */\n      swap1\n      pop\n        /* \"#utility.yul\":10519:10767   */\n      swap3\n      swap2\n      pop\n      pop\n      jump\t// out\n        /* \"#utility.yul\":10773:10909   */\n    tag_239:\n        /* \"#utility.yul\":10866:10870   */\n      0x00\n        /* \"#utility.yul\":10898:10902   */\n      0x20\n        /* \"#utility.yul\":10893:10896   */\n      dup3\n        /* \"#utility.yul\":10889:10903   */\n      add\n        /* \"#utility.yul\":10881:10903   */\n      swap1\n      pop\n        /* \"#utility.yul\":10773:10909   */\n      swap2\n      swap1\n      pop\n      jump\t// out\n        /* \"#utility.yul\":10973:12068   */\n    tag_240:\n        /* \"#utility.yul\":11138:11141   */\n      0x00\n        /* \"#utility.yul\":11167:11244   */\n      tag_392\n        /* \"#utility.yul\":11238:11243   */\n      dup3\n        /* \"#utility.yul\":11167:11244   */\n      tag_230\n      jump\t// in\n    tag_392:\n        /* \"#utility.yul\":11260:11369   */\n      tag_393\n        /* \"#utility.yul\":11362:11368   */\n      dup2\n        /* \"#utility.yul\":11357:11360   */\n      dup6\n        /* \"#utility.yul\":11260:11369   */\n      tag_231\n      jump\t// in\n    tag_393:\n        /* \"#utility.yul\":11253:11369   */\n      swap4\n      pop\n        /* \"#utility.yul\":11395:11398   */\n      dup4\n        /* \"#utility.yul\":11440:11444   */\n      0x20\n        /* \"#utility.yul\":11432:11438   */\n      dup3\n        /* \"#utility.yul\":11428:11445   */\n      mul\n        /* \"#utility.yul\":11423:11426   */\n      dup6\n        /* \"#utility.yul\":11419:11446   */\n      add\n        /* \"#utility.yul\":11470:11549   */\n      tag_394\n        /* \"#utility.yul\":11543:11548   */\n      dup6\n        /* \"#utility.yul\":11470:11549   */\n      tag_232\n      jump\t// in\n    tag_394:\n        /* \"#utility.yul\":11572:11579   */\n      dup1\n        /* \"#utility.yul\":11603:11604   */\n      0x00\n        /* \"#utility.yul\":11588:12023   */\n    tag_395:\n        /* \"#utility.yul\":11613:11619   */\n      dup6\n        /* \"#utility.yul\":11610:11611   */\n      dup2\n        /* \"#utility.yul\":11607:11620   */\n      lt\n        /* \"#utility.yul\":11588:12023   */\n      iszero\n      tag_397\n      jumpi\n        /* \"#utility.yul\":11684:11693   */\n      dup5\n        /* \"#utility.yul\":11678:11682   */\n      dup5\n        /* \"#utility.yul\":11674:11694   */\n      sub\n        /* \"#utility.yul\":11669:11672   */\n      dup10\n        /* \"#utility.yul\":11662:11695   */\n      mstore\n        /* \"#utility.yul\":11735:11741   */\n      dup2\n        /* \"#utility.yul\":11729:11742   */\n      mload\n        /* \"#utility.yul\":11763:11873   */\n      tag_398\n        /* \"#utility.yul\":11868:11872   */\n      dup6\n        /* \"#utility.yul\":11853:11866   */\n      dup3\n        /* \"#utility.yul\":11763:11873   */\n      tag_238\n      jump\t// in\n    tag_398:\n        /* \"#utility.yul\":11755:11873   */\n      swap5\n      pop\n        /* \"#utility.yul\":11896:11979   */\n      tag_399\n        /* \"#utility.yul\":11972:11978   */\n      dup4\n        /* \"#utility.yul\":11896:11979   */\n      tag_239\n      jump\t// in\n    tag_399:\n        /* \"#utility.yul\":11886:11979   */\n      swap3\n      pop\n        /* \"#utility.yul\":12008:12012   */\n      0x20\n        /* \"#utility.yul\":12003:12006   */\n      dup11\n        /* \"#utility.yul\":11999:12013   */\n      add\n        /* \"#utility.yul\":11992:12013   */\n      swap10\n      pop\n        /* \"#utility.yul\":11648:12023   */\n      pop\n        /* \"#utility.yul\":11635:11636   */\n      0x01\n        /* \"#utility.yul\":11632:11633   */\n      dup2\n        /* \"#utility.yul\":11628:11637   */\n      add\n        /* \"#utility.yul\":11623:11637   */\n      swap1\n      pop\n        /* \"#utility.yul\":11588:12023   */\n      jump(tag_395)\n    tag_397:\n        /* \"#utility.yul\":11592:11606   */\n      pop\n        /* \"#utility.yul\":12039:12043   */\n      dup3\n        /* \"#utility.yul\":12032:12043   */\n      swap8\n      pop\n        /* \"#utility.yul\":12059:12062   */\n      dup8\n        /* \"#utility.yul\":12052:12062   */\n      swap6\n      pop\n        /* \"#utility.yul\":11143:12068   */\n      pop\n      pop\n      pop\n      pop\n      pop\n        /* \"#utility.yul\":10973:12068   */\n      swap3\n      swap2\n      pop\n      pop\n      jump\t// out\n        /* \"#utility.yul\":12074:12539   */\n    tag_56:\n        /* \"#utility.yul\":12263:12267   */\n      0x00\n        /* \"#utility.yul\":12301:12303   */\n      0x20\n        /* \"#utility.yul\":12290:12299   */\n      dup3\n        /* \"#utility.yul\":12286:12304   */\n      add\n        /* \"#utility.yul\":12278:12304   */\n      swap1\n      pop\n        /* \"#utility.yul\":12350:12359   */\n      dup2\n        /* \"#utility.yul\":12344:12348   */\n      dup2\n        /* \"#utility.yul\":12340:12360   */\n      sub\n        /* \"#utility.yul\":12336:12337   */\n      0x00\n        /* \"#utility.yul\":12325:12334   */\n      dup4\n        /* \"#utility.yul\":12321:12338   */\n      add\n        /* \"#utility.yul\":12314:12361   */\n      mstore\n        /* \"#utility.yul\":12378:12532   */\n      tag_401\n        /* \"#utility.yul\":12527:12531   */\n      dup2\n        /* \"#utility.yul\":12518:12524   */\n      dup5\n        /* \"#utility.yul\":12378:12532   */\n      tag_240\n      jump\t// in\n    tag_401:\n        /* \"#utility.yul\":12370:12532   */\n      swap1\n      pop\n        /* \"#utility.yul\":12074:12539   */\n      swap3\n      swap2\n      pop\n      pop\n      jump\t// out\n        /* \"#utility.yul\":12545:12874   */\n    tag_59:\n        /* \"#utility.yul\":12604:12610   */\n      0x00\n        /* \"#utility.yul\":12653:12655   */\n      0x20\n        /* \"#utility.yul\":12641:12650   */\n      dup3\n        /* \"#utility.yul\":12632:12639   */\n      dup5\n        /* \"#utility.yul\":12628:12651   */\n      sub\n        /* \"#utility.yul\":12624:12656   */\n      slt\n        /* \"#utility.yul\":12621:12740   */\n      iszero\n      tag_403\n      jumpi\n        /* \"#utility.yul\":12659:12738   */\n      tag_404\n      tag_201\n      jump\t// in\n    tag_404:\n        /* \"#utility.yul\":12621:12740   */\n    tag_403:\n        /* \"#utility.yul\":12779:12780   */\n      0x00\n        /* \"#utility.yul\":12804:12857   */\n      tag_405\n        /* \"#utility.yul\":12849:12856   */\n      dup5\n        /* \"#utility.yul\":12840:12846   */\n      dup3\n        /* \"#utility.yul\":12829:12838   */\n      dup6\n        /* \"#utility.yul\":12825:12847   */\n      add\n        /* \"#utility.yul\":12804:12857   */\n      tag_209\n      jump\t// in\n    tag_405:\n        /* \"#utility.yul\":12794:12857   */\n      swap2\n      pop\n        /* \"#utility.yul\":12750:12867   */\n      pop\n        /* \"#utility.yul\":12545:12874   */\n      swap3\n      swap2\n      pop\n      pop\n      jump\t// out\n        /* \"#utility.yul\":12934:14067   */\n    tag_241:\n        /* \"#utility.yul\":13049:13052   */\n      0x00\n        /* \"#utility.yul\":13085:13089   */\n      0xa0\n        /* \"#utility.yul\":13080:13083   */\n      dup4\n        /* \"#utility.yul\":13076:13090   */\n      add\n        /* \"#utility.yul\":13170:13174   */\n      0x00\n        /* \"#utility.yul\":13163:13168   */\n      dup4\n        /* \"#utility.yul\":13159:13175   */\n      add\n        /* \"#utility.yul\":13153:13176   */\n      mload\n        /* \"#utility.yul\":13189:13252   */\n      tag_407\n        /* \"#utility.yul\":13246:13250   */\n      0x00\n        /* \"#utility.yul\":13241:13244   */\n      dup7\n        /* \"#utility.yul\":13237:13251   */\n      add\n        /* \"#utility.yul\":13223:13235   */\n      dup3\n        /* \"#utility.yul\":13189:13252   */\n      tag_233\n      jump\t// in\n    tag_407:\n        /* \"#utility.yul\":13100:13262   */\n      pop\n        /* \"#utility.yul\":13346:13350   */\n      0x20\n        /* \"#utility.yul\":13339:13344   */\n      dup4\n        /* \"#utility.yul\":13335:13351   */\n      add\n        /* \"#utility.yul\":13329:13352   */\n      mload\n        /* \"#utility.yul\":13365:13428   */\n      tag_408\n        /* \"#utility.yul\":13422:13426   */\n      0x20\n        /* \"#utility.yul\":13417:13420   */\n      dup7\n        /* \"#utility.yul\":13413:13427   */\n      add\n        /* \"#utility.yul\":13399:13411   */\n      dup3\n        /* \"#utility.yul\":13365:13428   */\n      tag_234\n      jump\t// in\n    tag_408:\n        /* \"#utility.yul\":13272:13438   */\n      pop\n        /* \"#utility.yul\":13523:13527   */\n      0x40\n        /* \"#utility.yul\":13516:13521   */\n      dup4\n        /* \"#utility.yul\":13512:13528   */\n      add\n        /* \"#utility.yul\":13506:13529   */\n      mload\n        /* \"#utility.yul\":13576:13579   */\n      dup5\n        /* \"#utility.yul\":13570:13574   */\n      dup3\n        /* \"#utility.yul\":13566:13580   */\n      sub\n        /* \"#utility.yul\":13559:13563   */\n      0x40\n        /* \"#utility.yul\":13554:13557   */\n      dup7\n        /* \"#utility.yul\":13550:13564   */\n      add\n        /* \"#utility.yul\":13543:13581   */\n      mstore\n        /* \"#utility.yul\":13602:13675   */\n      tag_409\n        /* \"#utility.yul\":13670:13674   */\n      dup3\n        /* \"#utility.yul\":13656:13668   */\n      dup3\n        /* \"#utility.yul\":13602:13675   */\n      tag_236\n      jump\t// in\n    tag_409:\n        /* \"#utility.yul\":13594:13675   */\n      swap2\n      pop\n        /* \"#utility.yul\":13448:13686   */\n      pop\n        /* \"#utility.yul\":13773:13777   */\n      0x60\n        /* \"#utility.yul\":13766:13771   */\n      dup4\n        /* \"#utility.yul\":13762:13778   */\n      add\n        /* \"#utility.yul\":13756:13779   */\n      mload\n        /* \"#utility.yul\":13792:13855   */\n      tag_410\n        /* \"#utility.yul\":13849:13853   */\n      0x60\n        /* \"#utility.yul\":13844:13847   */\n      dup7\n        /* \"#utility.yul\":13840:13854   */\n      add\n        /* \"#utility.yul\":13826:13838   */\n      dup3\n        /* \"#utility.yul\":13792:13855   */\n      tag_233\n      jump\t// in\n    tag_410:\n        /* \"#utility.yul\":13696:13865   */\n      pop\n        /* \"#utility.yul\":13948:13952   */\n      0x80\n        /* \"#utility.yul\":13941:13946   */\n      dup4\n        /* \"#utility.yul\":13937:13953   */\n      add\n        /* \"#utility.yul\":13931:13954   */\n      mload\n        /* \"#utility.yul\":13967:14030   */\n      tag_411\n        /* \"#utility.yul\":14024:14028   */\n      0x80\n        /* \"#utility.yul\":14019:14022   */\n      dup7\n        /* \"#utility.yul\":14015:14029   */\n      add\n        /* \"#utility.yul\":14001:14013   */\n      dup3\n        /* \"#utility.yul\":13967:14030   */\n      tag_233\n      jump\t// in\n    tag_411:\n        /* \"#utility.yul\":13875:14040   */\n      pop\n        /* \"#utility.yul\":14057:14061   */\n      dup1\n        /* \"#utility.yul\":14050:14061   */\n      swap2\n      pop\n        /* \"#utility.yul\":13054:14067   */\n      pop\n        /* \"#utility.yul\":12934:14067   */\n      swap3\n      swap2\n      pop\n      pop\n      jump\t// out\n        /* \"#utility.yul\":14073:14438   */\n    tag_62:\n        /* \"#utility.yul\":14212:14216   */\n      0x00\n        /* \"#utility.yul\":14250:14252   */\n      0x20\n        /* \"#utility.yul\":14239:14248   */\n      dup3\n        /* \"#utility.yul\":14235:14253   */\n      add\n        /* \"#utility.yul\":14227:14253   */\n      swap1\n      pop\n        /* \"#utility.yul\":14299:14308   */\n      dup2\n        /* \"#utility.yul\":14293:14297   */\n      dup2\n        /* \"#utility.yul\":14289:14309   */\n      sub\n        /* \"#utility.yul\":14285:14286   */\n      0x00\n        /* \"#utility.yul\":14274:14283   */\n      dup4\n        /* \"#utility.yul\":14270:14287   */\n      add\n        /* \"#utility.yul\":14263:14310   */\n      mstore\n        /* \"#utility.yul\":14327:14431   */\n      tag_413\n        /* \"#utility.yul\":14426:14430   */\n      dup2\n        /* \"#utility.yul\":14417:14423   */\n      dup5\n        /* \"#utility.yul\":14327:14431   */\n      tag_241\n      jump\t// in\n    tag_413:\n        /* \"#utility.yul\":14319:14431   */\n      swap1\n      pop\n        /* \"#utility.yul\":14073:14438   */\n      swap3\n      swap2\n      pop\n      pop\n      jump\t// out\n        /* \"#utility.yul\":14444:14624   */\n    tag_242:\n        /* \"#utility.yul\":14492:14569   */\n      0x4e487b7100000000000000000000000000000000000000000000000000000000\n        /* \"#utility.yul\":14489:14490   */\n      0x00\n        /* \"#utility.yul\":14482:14570   */\n      mstore\n        /* \"#utility.yul\":14589:14593   */\n      0x22\n        /* \"#utility.yul\":14586:14587   */\n      0x04\n        /* \"#utility.yul\":14579:14594   */\n      mstore\n        /* \"#utility.yul\":14613:14617   */\n      0x24\n        /* \"#utility.yul\":14610:14611   */\n      0x00\n        /* \"#utility.yul\":14603:14618   */\n      revert\n        /* \"#utility.yul\":14630:14950   */\n    tag_69:\n        /* \"#utility.yul\":14674:14680   */\n      0x00\n        /* \"#utility.yul\":14711:14712   */\n      0x02\n        /* \"#utility.yul\":14705:14709   */\n      dup3\n        /* \"#utility.yul\":14701:14713   */\n      div\n        /* \"#utility.yul\":14691:14713   */\n      swap1\n      pop\n        /* \"#utility.yul\":14758:14759   */\n      0x01\n        /* \"#utility.yul\":14752:14756   */\n      dup3\n        /* \"#utility.yul\":14748:14760   */\n      and\n        /* \"#utility.yul\":14779:14797   */\n      dup1\n        /* \"#utility.yul\":14769:14850   */\n      tag_416\n      jumpi\n        /* \"#utility.yul\":14835:14839   */\n      0x7f\n        /* \"#utility.yul\":14827:14833   */\n      dup3\n        /* \"#utility.yul\":14823:14840   */\n      and\n        /* \"#utility.yul\":14813:14840   */\n      swap2\n      pop\n        /* \"#utility.yul\":14769:14850   */\n    tag_416:\n        /* \"#utility.yul\":14897:14899   */\n      0x20\n        /* \"#utility.yul\":14889:14895   */\n      dup3\n        /* \"#utility.yul\":14886:14900   */\n      lt\n        /* \"#utility.yul\":14866:14884   */\n      dup2\n        /* \"#utility.yul\":14863:14901   */\n      sub\n        /* \"#utility.yul\":14860:14944   */\n      tag_417\n      jumpi\n        /* \"#utility.yul\":14916:14934   */\n      tag_418\n      tag_242\n      jump\t// in\n    tag_418:\n        /* \"#utility.yul\":14860:14944   */\n    tag_417:\n        /* \"#utility.yul\":14681:14950   */\n      pop\n        /* \"#utility.yul\":14630:14950   */\n      swap2\n      swap1\n      pop\n      jump\t// out\n        /* \"#utility.yul\":14956:15073   */\n    tag_243:\n        /* \"#utility.yul\":15065:15066   */\n      0x00\n        /* \"#utility.yul\":15062:15063   */\n      dup1\n        /* \"#utility.yul\":15055:15067   */\n      revert\n        /* \"#utility.yul\":15079:15196   */\n    tag_244:\n        /* \"#utility.yul\":15188:15189   */\n      0x00\n        /* \"#utility.yul\":15185:15186   */\n      dup1\n        /* \"#utility.yul\":15178:15190   */\n      revert\n        /* \"#utility.yul\":15202:15636   */\n    tag_245:\n        /* \"#utility.yul\":15291:15296   */\n      0x00\n        /* \"#utility.yul\":15316:15382   */\n      tag_422\n        /* \"#utility.yul\":15332:15381   */\n      tag_423\n        /* \"#utility.yul\":15374:15380   */\n      dup5\n        /* \"#utility.yul\":15332:15381   */\n      tag_226\n      jump\t// in\n    tag_423:\n        /* \"#utility.yul\":15316:15382   */\n      tag_225\n      jump\t// in\n    tag_422:\n        /* \"#utility.yul\":15307:15382   */\n      swap1\n      pop\n        /* \"#utility.yul\":15405:15411   */\n      dup3\n        /* \"#utility.yul\":15398:15403   */\n      dup2\n        /* \"#utility.yul\":15391:15412   */\n      mstore\n        /* \"#utility.yul\":15443:15447   */\n      0x20\n        /* \"#utility.yul\":15436:15441   */\n      dup2\n        /* \"#utility.yul\":15432:15448   */\n      add\n        /* \"#utility.yul\":15481:15484   */\n      dup5\n        /* \"#utility.yul\":15472:15478   */\n      dup5\n        /* \"#utility.yul\":15467:15470   */\n      dup5\n        /* \"#utility.yul\":15463:15479   */\n      add\n        /* \"#utility.yul\":15460:15485   */\n      gt\n        /* \"#utility.yul\":15457:15569   */\n      iszero\n      tag_424\n      jumpi\n        /* \"#utility.yul\":15488:15567   */\n      tag_425\n      tag_222\n      jump\t// in\n    tag_425:\n        /* \"#utility.yul\":15457:15569   */\n    tag_424:\n        /* \"#utility.yul\":15578:15630   */\n      tag_426\n        /* \"#utility.yul\":15623:15629   */\n      dup5\n        /* \"#utility.yul\":15618:15621   */\n      dup3\n        /* \"#utility.yul\":15613:15616   */\n      dup6\n        /* \"#utility.yul\":15578:15630   */\n      tag_214\n      jump\t// in\n    tag_426:\n        /* \"#utility.yul\":15297:15636   */\n      pop\n        /* \"#utility.yul\":15202:15636   */\n      swap4\n      swap3\n      pop\n      pop\n      pop\n      jump\t// out\n        /* \"#utility.yul\":15656:16011   */\n    tag_246:\n        /* \"#utility.yul\":15723:15728   */\n      0x00\n        /* \"#utility.yul\":15772:15775   */\n      dup3\n        /* \"#utility.yul\":15765:15769   */\n      0x1f\n        /* \"#utility.yul\":15757:15763   */\n      dup4\n        /* \"#utility.yul\":15753:15770   */\n      add\n        /* \"#utility.yul\":15749:15776   */\n      slt\n        /* \"#utility.yul\":15739:15861   */\n      tag_428\n      jumpi\n        /* \"#utility.yul\":15780:15859   */\n      tag_429\n      tag_221\n      jump\t// in\n    tag_429:\n        /* \"#utility.yul\":15739:15861   */\n    tag_428:\n        /* \"#utility.yul\":15890:15896   */\n      dup2\n        /* \"#utility.yul\":15884:15897   */\n      mload\n        /* \"#utility.yul\":15915:16005   */\n      tag_430\n        /* \"#utility.yul\":16001:16004   */\n      dup5\n        /* \"#utility.yul\":15993:15999   */\n      dup3\n        /* \"#utility.yul\":15986:15990   */\n      0x20\n        /* \"#utility.yul\":15978:15984   */\n      dup7\n        /* \"#utility.yul\":15974:15991   */\n      add\n        /* \"#utility.yul\":15915:16005   */\n      tag_245\n      jump\t// in\n    tag_430:\n        /* \"#utility.yul\":15906:16005   */\n      swap2\n      pop\n        /* \"#utility.yul\":15729:16011   */\n      pop\n        /* \"#utility.yul\":15656:16011   */\n      swap3\n      swap2\n      pop\n      pop\n      jump\t// out\n        /* \"#utility.yul\":16052:16994   */\n    tag_247:\n        /* \"#utility.yul\":16140:16145   */\n      0x00\n        /* \"#utility.yul\":16184:16188   */\n      0x40\n        /* \"#utility.yul\":16172:16181   */\n      dup3\n        /* \"#utility.yul\":16167:16170   */\n      dup5\n        /* \"#utility.yul\":16163:16182   */\n      sub\n        /* \"#utility.yul\":16159:16189   */\n      slt\n        /* \"#utility.yul\":16156:16273   */\n      iszero\n      tag_432\n      jumpi\n        /* \"#utility.yul\":16192:16271   */\n      tag_433\n      tag_243\n      jump\t// in\n    tag_433:\n        /* \"#utility.yul\":16156:16273   */\n    tag_432:\n        /* \"#utility.yul\":16291:16312   */\n      tag_434\n        /* \"#utility.yul\":16307:16311   */\n      0x40\n        /* \"#utility.yul\":16291:16312   */\n      tag_225\n      jump\t// in\n    tag_434:\n        /* \"#utility.yul\":16282:16312   */\n      swap1\n      pop\n        /* \"#utility.yul\":16399:16400   */\n      0x00\n        /* \"#utility.yul\":16388:16397   */\n      dup3\n        /* \"#utility.yul\":16384:16401   */\n      add\n        /* \"#utility.yul\":16378:16402   */\n      mload\n        /* \"#utility.yul\":16429:16447   */\n      0xffffffffffffffff\n        /* \"#utility.yul\":16421:16427   */\n      dup2\n        /* \"#utility.yul\":16418:16448   */\n      gt\n        /* \"#utility.yul\":16415:16532   */\n      iszero\n      tag_435\n      jumpi\n        /* \"#utility.yul\":16451:16530   */\n      tag_436\n      tag_244\n      jump\t// in\n    tag_436:\n        /* \"#utility.yul\":16415:16532   */\n    tag_435:\n        /* \"#utility.yul\":16571:16641   */\n      tag_437\n        /* \"#utility.yul\":16637:16640   */\n      dup5\n        /* \"#utility.yul\":16628:16634   */\n      dup3\n        /* \"#utility.yul\":16617:16626   */\n      dup6\n        /* \"#utility.yul\":16613:16635   */\n      add\n        /* \"#utility.yul\":16571:16641   */\n      tag_246\n      jump\t// in\n    tag_437:\n        /* \"#utility.yul\":16564:16568   */\n      0x00\n        /* \"#utility.yul\":16557:16562   */\n      dup4\n        /* \"#utility.yul\":16553:16569   */\n      add\n        /* \"#utility.yul\":16546:16642   */\n      mstore\n        /* \"#utility.yul\":16322:16653   */\n      pop\n        /* \"#utility.yul\":16732:16734   */\n      0x20\n        /* \"#utility.yul\":16721:16730   */\n      dup3\n        /* \"#utility.yul\":16717:16735   */\n      add\n        /* \"#utility.yul\":16711:16736   */\n      mload\n        /* \"#utility.yul\":16763:16781   */\n      0xffffffffffffffff\n        /* \"#utility.yul\":16755:16761   */\n      dup2\n        /* \"#utility.yul\":16752:16782   */\n      gt\n        /* \"#utility.yul\":16749:16866   */\n      iszero\n      tag_438\n      jumpi\n        /* \"#utility.yul\":16785:16864   */\n      tag_439\n      tag_244\n      jump\t// in\n    tag_439:\n        /* \"#utility.yul\":16749:16866   */\n    tag_438:\n        /* \"#utility.yul\":16905:16975   */\n      tag_440\n        /* \"#utility.yul\":16971:16974   */\n      dup5\n        /* \"#utility.yul\":16962:16968   */\n      dup3\n        /* \"#utility.yul\":16951:16960   */\n      dup6\n        /* \"#utility.yul\":16947:16969   */\n      add\n        /* \"#utility.yul\":16905:16975   */\n      tag_246\n      jump\t// in\n    tag_440:\n        /* \"#utility.yul\":16898:16902   */\n      0x20\n        /* \"#utility.yul\":16891:16896   */\n      dup4\n        /* \"#utility.yul\":16887:16903   */\n      add\n        /* \"#utility.yul\":16880:16976   */\n      mstore\n        /* \"#utility.yul\":16663:16987   */\n      pop\n        /* \"#utility.yul\":16052:16994   */\n      swap3\n      swap2\n      pop\n      pop\n      jump\t// out\n        /* \"#utility.yul\":17000:17560   */\n    tag_79:\n        /* \"#utility.yul\":17098:17104   */\n      0x00\n        /* \"#utility.yul\":17147:17149   */\n      0x20\n        /* \"#utility.yul\":17135:17144   */\n      dup3\n        /* \"#utility.yul\":17126:17133   */\n      dup5\n        /* \"#utility.yul\":17122:17145   */\n      sub\n        /* \"#utility.yul\":17118:17150   */\n      slt\n        /* \"#utility.yul\":17115:17234   */\n      iszero\n      tag_442\n      jumpi\n        /* \"#utility.yul\":17153:17232   */\n      tag_443\n      tag_201\n      jump\t// in\n    tag_443:\n        /* \"#utility.yul\":17115:17234   */\n    tag_442:\n        /* \"#utility.yul\":17294:17295   */\n      0x00\n        /* \"#utility.yul\":17283:17292   */\n      dup3\n        /* \"#utility.yul\":17279:17296   */\n      add\n        /* \"#utility.yul\":17273:17297   */\n      mload\n        /* \"#utility.yul\":17324:17342   */\n      0xffffffffffffffff\n        /* \"#utility.yul\":17316:17322   */\n      dup2\n        /* \"#utility.yul\":17313:17343   */\n      gt\n        /* \"#utility.yul\":17310:17427   */\n      iszero\n      tag_444\n      jumpi\n        /* \"#utility.yul\":17346:17425   */\n      tag_445\n      tag_202\n      jump\t// in\n    tag_445:\n        /* \"#utility.yul\":17310:17427   */\n    tag_444:\n        /* \"#utility.yul\":17451:17543   */\n      tag_446\n        /* \"#utility.yul\":17535:17542   */\n      dup5\n        /* \"#utility.yul\":17526:17532   */\n      dup3\n        /* \"#utility.yul\":17515:17524   */\n      dup6\n        /* \"#utility.yul\":17511:17533   */\n      add\n        /* \"#utility.yul\":17451:17543   */\n      tag_247\n      jump\t// in\n    tag_446:\n        /* \"#utility.yul\":17441:17543   */\n      swap2\n      pop\n        /* \"#utility.yul\":17244:17553   */\n      pop\n        /* \"#utility.yul\":17000:17560   */\n      swap3\n      swap2\n      pop\n      pop\n      jump\t// out\n        /* \"#utility.yul\":17566:17738   */\n    tag_248:\n        /* \"#utility.yul\":17706:17730   */\n      0x55736572204e6f74205265676973746572656420212100000000000000000000\n        /* \"#utility.yul\":17702:17703   */\n      0x00\n        /* \"#utility.yul\":17694:17700   */\n      dup3\n        /* \"#utility.yul\":17690:17704   */\n      add\n        /* \"#utility.yul\":17683:17731   */\n      mstore\n        /* \"#utility.yul\":17566:17738   */\n      pop\n      jump\t// out\n        /* \"#utility.yul\":17744:18110   */\n    tag_249:\n        /* \"#utility.yul\":17886:17889   */\n      0x00\n        /* \"#utility.yul\":17907:17974   */\n      tag_449\n        /* \"#utility.yul\":17971:17973   */\n      0x16\n        /* \"#utility.yul\":17966:17969   */\n      dup4\n        /* \"#utility.yul\":17907:17974   */\n      tag_213\n      jump\t// in\n    tag_449:\n        /* \"#utility.yul\":17900:17974   */\n      swap2\n      pop\n        /* \"#utility.yul\":17983:18076   */\n      tag_450\n        /* \"#utility.yul\":18072:18075   */\n      dup3\n        /* \"#utility.yul\":17983:18076   */\n      tag_248\n      jump\t// in\n    tag_450:\n        /* \"#utility.yul\":18101:18103   */\n      0x20\n        /* \"#utility.yul\":18096:18099   */\n      dup3\n        /* \"#utility.yul\":18092:18104   */\n      add\n        /* \"#utility.yul\":18085:18104   */\n      swap1\n      pop\n        /* \"#utility.yul\":17744:18110   */\n      swap2\n      swap1\n      pop\n      jump\t// out\n        /* \"#utility.yul\":18116:18535   */\n    tag_82:\n        /* \"#utility.yul\":18282:18286   */\n      0x00\n        /* \"#utility.yul\":18320:18322   */\n      0x20\n        /* \"#utility.yul\":18309:18318   */\n      dup3\n        /* \"#utility.yul\":18305:18323   */\n      add\n        /* \"#utility.yul\":18297:18323   */\n      swap1\n      pop\n        /* \"#utility.yul\":18369:18378   */\n      dup2\n        /* \"#utility.yul\":18363:18367   */\n      dup2\n        /* \"#utility.yul\":18359:18379   */\n      sub\n        /* \"#utility.yul\":18355:18356   */\n      0x00\n        /* \"#utility.yul\":18344:18353   */\n      dup4\n        /* \"#utility.yul\":18340:18357   */\n      add\n        /* \"#utility.yul\":18333:18380   */\n      mstore\n        /* \"#utility.yul\":18397:18528   */\n      tag_452\n        /* \"#utility.yul\":18523:18527   */\n      dup2\n        /* \"#utility.yul\":18397:18528   */\n      tag_249\n      jump\t// in\n    tag_452:\n        /* \"#utility.yul\":18389:18528   */\n      swap1\n      pop\n        /* \"#utility.yul\":18116:18535   */\n      swap2\n      swap1\n      pop\n      jump\t// out\n        /* \"#utility.yul\":18541:18721   */\n    tag_86:\n        /* \"#utility.yul\":18589:18666   */\n      0x4e487b7100000000000000000000000000000000000000000000000000000000\n        /* \"#utility.yul\":18586:18587   */\n      0x00\n        /* \"#utility.yul\":18579:18667   */\n      mstore\n        /* \"#utility.yul\":18686:18690   */\n      0x32\n        /* \"#utility.yul\":18683:18684   */\n      0x04\n        /* \"#utility.yul\":18676:18691   */\n      mstore\n        /* \"#utility.yul\":18710:18714   */\n      0x24\n        /* \"#utility.yul\":18707:18708   */\n      0x00\n        /* \"#utility.yul\":18700:18715   */\n      revert\n        /* \"#utility.yul\":18727:18897   */\n    tag_250:\n        /* \"#utility.yul\":18867:18889   */\n      0x547765657420646f6573206e6f74206578697374000000000000000000000000\n        /* \"#utility.yul\":18863:18864   */\n      0x00\n        /* \"#utility.yul\":18855:18861   */\n      dup3\n        /* \"#utility.yul\":18851:18865   */\n      add\n        /* \"#utility.yul\":18844:18890   */\n      mstore\n        /* \"#utility.yul\":18727:18897   */\n      pop\n      jump\t// out\n        /* \"#utility.yul\":18903:19269   */\n    tag_251:\n        /* \"#utility.yul\":19045:19048   */\n      0x00\n        /* \"#utility.yul\":19066:19133   */\n      tag_456\n        /* \"#utility.yul\":19130:19132   */\n      0x14\n        /* \"#utility.yul\":19125:19128   */\n      dup4\n        /* \"#utility.yul\":19066:19133   */\n      tag_213\n      jump\t// in\n    tag_456:\n        /* \"#utility.yul\":19059:19133   */\n      swap2\n      pop\n        /* \"#utility.yul\":19142:19235   */\n      tag_457\n        /* \"#utility.yul\":19231:19234   */\n      dup3\n        /* \"#utility.yul\":19142:19235   */\n      tag_250\n      jump\t// in\n    tag_457:\n        /* \"#utility.yul\":19260:19262   */\n      0x20\n        /* \"#utility.yul\":19255:19258   */\n      dup3\n        /* \"#utility.yul\":19251:19263   */\n      add\n        /* \"#utility.yul\":19244:19263   */\n      swap1\n      pop\n        /* \"#utility.yul\":18903:19269   */\n      swap2\n      swap1\n      pop\n      jump\t// out\n        /* \"#utility.yul\":19275:19694   */\n    tag_90:\n        /* \"#utility.yul\":19441:19445   */\n      0x00\n        /* \"#utility.yul\":19479:19481   */\n      0x20\n        /* \"#utility.yul\":19468:19477   */\n      dup3\n        /* \"#utility.yul\":19464:19482   */\n      add\n        /* \"#utility.yul\":19456:19482   */\n      swap1\n      pop\n        /* \"#utility.yul\":19528:19537   */\n      dup2\n        /* \"#utility.yul\":19522:19526   */\n      dup2\n        /* \"#utility.yul\":19518:19538   */\n      sub\n        /* \"#utility.yul\":19514:19515   */\n      0x00\n        /* \"#utility.yul\":19503:19512   */\n      dup4\n        /* \"#utility.yul\":19499:19516   */\n      add\n        /* \"#utility.yul\":19492:19539   */\n      mstore\n        /* \"#utility.yul\":19556:19687   */\n      tag_459\n        /* \"#utility.yul\":19682:19686   */\n      dup2\n        /* \"#utility.yul\":19556:19687   */\n      tag_251\n      jump\t// in\n    tag_459:\n        /* \"#utility.yul\":19548:19687   */\n      swap1\n      pop\n        /* \"#utility.yul\":19275:19694   */\n      swap2\n      swap1\n      pop\n      jump\t// out\n        /* \"#utility.yul\":19700:19868   */\n    tag_252:\n        /* \"#utility.yul\":19840:19860   */\n      0x547765657420686173206e6f206c696b65730000000000000000000000000000\n        /* \"#utility.yul\":19836:19837   */\n      0x00\n        /* \"#utility.yul\":19828:19834   */\n      dup3\n        /* \"#utility.yul\":19824:19838   */\n      add\n        /* \"#utility.yul\":19817:19861   */\n      mstore\n        /* \"#utility.yul\":19700:19868   */\n      pop\n      jump\t// out\n        /* \"#utility.yul\":19874:20240   */\n    tag_253:\n        /* \"#utility.yul\":20016:20019   */\n      0x00\n        /* \"#utility.yul\":20037:20104   */\n      tag_462\n        /* \"#utility.yul\":20101:20103   */\n      0x12\n        /* \"#utility.yul\":20096:20099   */\n      dup4\n        /* \"#utility.yul\":20037:20104   */\n      tag_213\n      jump\t// in\n    tag_462:\n        /* \"#utility.yul\":20030:20104   */\n      swap2\n      pop\n        /* \"#utility.yul\":20113:20206   */\n      tag_463\n        /* \"#utility.yul\":20202:20205   */\n      dup3\n        /* \"#utility.yul\":20113:20206   */\n      tag_252\n      jump\t// in\n    tag_463:\n        /* \"#utility.yul\":20231:20233   */\n      0x20\n        /* \"#utility.yul\":20226:20229   */\n      dup3\n        /* \"#utility.yul\":20222:20234   */\n      add\n        /* \"#utility.yul\":20215:20234   */\n      swap1\n      pop\n        /* \"#utility.yul\":19874:20240   */\n      swap2\n      swap1\n      pop\n      jump\t// out\n        /* \"#utility.yul\":20246:20665   */\n    tag_96:\n        /* \"#utility.yul\":20412:20416   */\n      0x00\n        /* \"#utility.yul\":20450:20452   */\n      0x20\n        /* \"#utility.yul\":20439:20448   */\n      dup3\n        /* \"#utility.yul\":20435:20453   */\n      add\n        /* \"#utility.yul\":20427:20453   */\n      swap1\n      pop\n        /* \"#utility.yul\":20499:20508   */\n      dup2\n        /* \"#utility.yul\":20493:20497   */\n      dup2\n        /* \"#utility.yul\":20489:20509   */\n      sub\n        /* \"#utility.yul\":20485:20486   */\n      0x00\n        /* \"#utility.yul\":20474:20483   */\n      dup4\n        /* \"#utility.yul\":20470:20487   */\n      add\n        /* \"#utility.yul\":20463:20510   */\n      mstore\n        /* \"#utility.yul\":20527:20658   */\n      tag_465\n        /* \"#utility.yul\":20653:20657   */\n      dup2\n        /* \"#utility.yul\":20527:20658   */\n      tag_253\n      jump\t// in\n    tag_465:\n        /* \"#utility.yul\":20519:20658   */\n      swap1\n      pop\n        /* \"#utility.yul\":20246:20665   */\n      swap2\n      swap1\n      pop\n      jump\t// out\n        /* \"#utility.yul\":20671:20851   */\n    tag_254:\n        /* \"#utility.yul\":20719:20796   */\n      0x4e487b7100000000000000000000000000000000000000000000000000000000\n        /* \"#utility.yul\":20716:20717   */\n      0x00\n        /* \"#utility.yul\":20709:20797   */\n      mstore\n        /* \"#utility.yul\":20816:20820   */\n      0x11\n        /* \"#utility.yul\":20813:20814   */\n      0x04\n        /* \"#utility.yul\":20806:20821   */\n      mstore\n        /* \"#utility.yul\":20840:20844   */\n      0x24\n        /* \"#utility.yul\":20837:20838   */\n      0x00\n        /* \"#utility.yul\":20830:20845   */\n      revert\n        /* \"#utility.yul\":20857:21028   */\n    tag_101:\n        /* \"#utility.yul\":20896:20899   */\n      0x00\n        /* \"#utility.yul\":20919:20943   */\n      tag_468\n        /* \"#utility.yul\":20937:20942   */\n      dup3\n        /* \"#utility.yul\":20919:20943   */\n      tag_207\n      jump\t// in\n    tag_468:\n        /* \"#utility.yul\":20910:20943   */\n      swap2\n      pop\n        /* \"#utility.yul\":20965:20969   */\n      0x00\n        /* \"#utility.yul\":20958:20963   */\n      dup3\n        /* \"#utility.yul\":20955:20970   */\n      sub\n        /* \"#utility.yul\":20952:20993   */\n      tag_469\n      jumpi\n        /* \"#utility.yul\":20973:20991   */\n      tag_470\n      tag_254\n      jump\t// in\n    tag_470:\n        /* \"#utility.yul\":20952:20993   */\n    tag_469:\n        /* \"#utility.yul\":21020:21021   */\n      0x01\n        /* \"#utility.yul\":21013:21018   */\n      dup3\n        /* \"#utility.yul\":21009:21022   */\n      sub\n        /* \"#utility.yul\":21002:21022   */\n      swap1\n      pop\n        /* \"#utility.yul\":20857:21028   */\n      swap2\n      swap1\n      pop\n      jump\t// out\n        /* \"#utility.yul\":21034:21587   */\n    tag_106:\n        /* \"#utility.yul\":21211:21215   */\n      0x00\n        /* \"#utility.yul\":21249:21252   */\n      0x80\n        /* \"#utility.yul\":21238:21247   */\n      dup3\n        /* \"#utility.yul\":21234:21253   */\n      add\n        /* \"#utility.yul\":21226:21253   */\n      swap1\n      pop\n        /* \"#utility.yul\":21263:21334   */\n      tag_472\n        /* \"#utility.yul\":21331:21332   */\n      0x00\n        /* \"#utility.yul\":21320:21329   */\n      dup4\n        /* \"#utility.yul\":21316:21333   */\n      add\n        /* \"#utility.yul\":21307:21313   */\n      dup8\n        /* \"#utility.yul\":21263:21334   */\n      tag_211\n      jump\t// in\n    tag_472:\n        /* \"#utility.yul\":21344:21416   */\n      tag_473\n        /* \"#utility.yul\":21412:21414   */\n      0x20\n        /* \"#utility.yul\":21401:21410   */\n      dup4\n        /* \"#utility.yul\":21397:21415   */\n      add\n        /* \"#utility.yul\":21388:21394   */\n      dup7\n        /* \"#utility.yul\":21344:21416   */\n      tag_211\n      jump\t// in\n    tag_473:\n        /* \"#utility.yul\":21426:21498   */\n      tag_474\n        /* \"#utility.yul\":21494:21496   */\n      0x40\n        /* \"#utility.yul\":21483:21492   */\n      dup4\n        /* \"#utility.yul\":21479:21497   */\n      add\n        /* \"#utility.yul\":21470:21476   */\n      dup6\n        /* \"#utility.yul\":21426:21498   */\n      tag_210\n      jump\t// in\n    tag_474:\n        /* \"#utility.yul\":21508:21580   */\n      tag_475\n        /* \"#utility.yul\":21576:21578   */\n      0x60\n        /* \"#utility.yul\":21565:21574   */\n      dup4\n        /* \"#utility.yul\":21561:21579   */\n      add\n        /* \"#utility.yul\":21552:21558   */\n      dup5\n        /* \"#utility.yul\":21508:21580   */\n      tag_210\n      jump\t// in\n    tag_475:\n        /* \"#utility.yul\":21034:21587   */\n      swap6\n      swap5\n      pop\n      pop\n      pop\n      pop\n      pop\n      jump\t// out\n        /* \"#utility.yul\":21593:21762   */\n    tag_255:\n        /* \"#utility.yul\":21733:21754   */\n      0x547765657420646f65736e6f7420657869737400000000000000000000000000\n        /* \"#utility.yul\":21729:21730   */\n      0x00\n        /* \"#utility.yul\":21721:21727   */\n      dup3\n        /* \"#utility.yul\":21717:21731   */\n      add\n        /* \"#utility.yul\":21710:21755   */\n      mstore\n        /* \"#utility.yul\":21593:21762   */\n      pop\n      jump\t// out\n        /* \"#utility.yul\":21768:22134   */\n    tag_256:\n        /* \"#utility.yul\":21910:21913   */\n      0x00\n        /* \"#utility.yul\":21931:21998   */\n      tag_478\n        /* \"#utility.yul\":21995:21997   */\n      0x13\n        /* \"#utility.yul\":21990:21993   */\n      dup4\n        /* \"#utility.yul\":21931:21998   */\n      tag_213\n      jump\t// in\n    tag_478:\n        /* \"#utility.yul\":21924:21998   */\n      swap2\n      pop\n        /* \"#utility.yul\":22007:22100   */\n      tag_479\n        /* \"#utility.yul\":22096:22099   */\n      dup3\n        /* \"#utility.yul\":22007:22100   */\n      tag_255\n      jump\t// in\n    tag_479:\n        /* \"#utility.yul\":22125:22127   */\n      0x20\n        /* \"#utility.yul\":22120:22123   */\n      dup3\n        /* \"#utility.yul\":22116:22128   */\n      add\n        /* \"#utility.yul\":22109:22128   */\n      swap1\n      pop\n        /* \"#utility.yul\":21768:22134   */\n      swap2\n      swap1\n      pop\n      jump\t// out\n        /* \"#utility.yul\":22140:22559   */\n    tag_124:\n        /* \"#utility.yul\":22306:22310   */\n      0x00\n        /* \"#utility.yul\":22344:22346   */\n      0x20\n        /* \"#utility.yul\":22333:22342   */\n      dup3\n        /* \"#utility.yul\":22329:22347   */\n      add\n        /* \"#utility.yul\":22321:22347   */\n      swap1\n      pop\n        /* \"#utility.yul\":22393:22402   */\n      dup2\n        /* \"#utility.yul\":22387:22391   */\n      dup2\n        /* \"#utility.yul\":22383:22403   */\n      sub\n        /* \"#utility.yul\":22379:22380   */\n      0x00\n        /* \"#utility.yul\":22368:22377   */\n      dup4\n        /* \"#utility.yul\":22364:22381   */\n      add\n        /* \"#utility.yul\":22357:22404   */\n      mstore\n        /* \"#utility.yul\":22421:22552   */\n      tag_481\n        /* \"#utility.yul\":22547:22551   */\n      dup2\n        /* \"#utility.yul\":22421:22552   */\n      tag_256\n      jump\t// in\n    tag_481:\n        /* \"#utility.yul\":22413:22552   */\n      swap1\n      pop\n        /* \"#utility.yul\":22140:22559   */\n      swap2\n      swap1\n      pop\n      jump\t// out\n        /* \"#utility.yul\":22565:22798   */\n    tag_129:\n        /* \"#utility.yul\":22604:22607   */\n      0x00\n        /* \"#utility.yul\":22627:22651   */\n      tag_483\n        /* \"#utility.yul\":22645:22650   */\n      dup3\n        /* \"#utility.yul\":22627:22651   */\n      tag_207\n      jump\t// in\n    tag_483:\n        /* \"#utility.yul\":22618:22651   */\n      swap2\n      pop\n        /* \"#utility.yul\":22673:22739   */\n      0xffffffffffffffffffffffffffffffffffffffffffffffffffffffffffffffff\n        /* \"#utility.yul\":22666:22671   */\n      dup3\n        /* \"#utility.yul\":22663:22740   */\n      sub\n        /* \"#utility.yul\":22660:22763   */\n      tag_484\n      jumpi\n        /* \"#utility.yul\":22743:22761   */\n      tag_485\n      tag_254\n      jump\t// in\n    tag_485:\n        /* \"#utility.yul\":22660:22763   */\n    tag_484:\n        /* \"#utility.yul\":22790:22791   */\n      0x01\n        /* \"#utility.yul\":22783:22788   */\n      dup3\n        /* \"#utility.yul\":22779:22792   */\n      add\n        /* \"#utility.yul\":22772:22792   */\n      swap1\n      pop\n        /* \"#utility.yul\":22565:22798   */\n      swap2\n      swap1\n      pop\n      jump\t// out\n        /* \"#utility.yul\":22804:22977   */\n    tag_257:\n        /* \"#utility.yul\":22944:22969   */\n      0x547765657420697320746f6f206c6f6e672062726f2121000000000000000000\n        /* \"#utility.yul\":22940:22941   */\n      0x00\n        /* \"#utility.yul\":22932:22938   */\n      dup3\n        /* \"#utility.yul\":22928:22942   */\n      add\n        /* \"#utility.yul\":22921:22970   */\n      mstore\n        /* \"#utility.yul\":22804:22977   */\n      pop\n      jump\t// out\n        /* \"#utility.yul\":22983:23349   */\n    tag_258:\n        /* \"#utility.yul\":23125:23128   */\n      0x00\n        /* \"#utility.yul\":23146:23213   */\n      tag_488\n        /* \"#utility.yul\":23210:23212   */\n      0x17\n        /* \"#utility.yul\":23205:23208   */\n      dup4\n        /* \"#utility.yul\":23146:23213   */\n      tag_213\n      jump\t// in\n    tag_488:\n        /* \"#utility.yul\":23139:23213   */\n      swap2\n      pop\n        /* \"#utility.yul\":23222:23315   */\n      tag_489\n        /* \"#utility.yul\":23311:23314   */\n      dup3\n        /* \"#utility.yul\":23222:23315   */\n      tag_257\n      jump\t// in\n    tag_489:\n        /* \"#utility.yul\":23340:23342   */\n      0x20\n        /* \"#utility.yul\":23335:23338   */\n      dup3\n        /* \"#utility.yul\":23331:23343   */\n      add\n        /* \"#utility.yul\":23324:23343   */\n      swap1\n      pop\n        /* \"#utility.yul\":22983:23349   */\n      swap2\n      swap1\n      pop\n      jump\t// out\n        /* \"#utility.yul\":23355:23774   */\n    tag_149:\n        /* \"#utility.yul\":23521:23525   */\n      0x00\n        /* \"#utility.yul\":23559:23561   */\n      0x20\n        /* \"#utility.yul\":23548:23557   */\n      dup3\n        /* \"#utility.yul\":23544:23562   */\n      add\n        /* \"#utility.yul\":23536:23562   */\n      swap1\n      pop\n        /* \"#utility.yul\":23608:23617   */\n      dup2\n        /* \"#utility.yul\":23602:23606   */\n      dup2\n        /* \"#utility.yul\":23598:23618   */\n      sub\n        /* \"#utility.yul\":23594:23595   */\n      0x00\n        /* \"#utility.yul\":23583:23592   */\n      dup4\n        /* \"#utility.yul\":23579:23596   */\n      add\n        /* \"#utility.yul\":23572:23619   */\n      mstore\n        /* \"#utility.yul\":23636:23767   */\n      tag_491\n        /* \"#utility.yul\":23762:23766   */\n      dup2\n        /* \"#utility.yul\":23636:23767   */\n      tag_258\n      jump\t// in\n    tag_491:\n        /* \"#utility.yul\":23628:23767   */\n      swap1\n      pop\n        /* \"#utility.yul\":23355:23774   */\n      swap2\n      swap1\n      pop\n      jump\t// out\n        /* \"#utility.yul\":23780:23921   */\n    tag_259:\n        /* \"#utility.yul\":23829:23833   */\n      0x00\n        /* \"#utility.yul\":23852:23855   */\n      dup2\n        /* \"#utility.yul\":23844:23855   */\n      swap1\n      pop\n        /* \"#utility.yul\":23875:23878   */\n      dup2\n        /* \"#utility.yul\":23872:23873   */\n      0x00\n        /* \"#utility.yul\":23865:23879   */\n      mstore\n        /* \"#utility.yul\":23909:23913   */\n      0x20\n        /* \"#utility.yul\":23906:23907   */\n      0x00\n        /* \"#utility.yul\":23896:23914   */\n      keccak256\n        /* \"#utility.yul\":23888:23914   */\n      swap1\n      pop\n        /* \"#utility.yul\":23780:23921   */\n      swap2\n      swap1\n      pop\n      jump\t// out\n        /* \"#utility.yul\":23927:24020   */\n    tag_260:\n        /* \"#utility.yul\":23964:23970   */\n      0x00\n        /* \"#utility.yul\":24011:24013   */\n      0x20\n        /* \"#utility.yul\":24006:24008   */\n      0x1f\n        /* \"#utility.yul\":23999:24004   */\n      dup4\n        /* \"#utility.yul\":23995:24009   */\n      add\n        /* \"#utility.yul\":23991:24014   */\n      div\n        /* \"#utility.yul\":23981:24014   */\n      swap1\n      pop\n        /* \"#utility.yul\":23927:24020   */\n      swap2\n      swap1\n      pop\n      jump\t// out\n        /* \"#utility.yul\":24026:24133   */\n    tag_261:\n        /* \"#utility.yul\":24070:24078   */\n      0x00\n        /* \"#utility.yul\":24120:24125   */\n      dup3\n        /* \"#utility.yul\":24114:24118   */\n      dup3\n        /* \"#utility.yul\":24110:24126   */\n      shl\n        /* \"#utility.yul\":24089:24126   */\n      swap1\n      pop\n        /* \"#utility.yul\":24026:24133   */\n      swap3\n      swap2\n      pop\n      pop\n      jump\t// out\n        /* \"#utility.yul\":24139:24532   */\n    tag_262:\n        /* \"#utility.yul\":24208:24214   */\n      0x00\n        /* \"#utility.yul\":24258:24259   */\n      0x08\n        /* \"#utility.yul\":24246:24256   */\n      dup4\n        /* \"#utility.yul\":24242:24260   */\n      mul\n        /* \"#utility.yul\":24281:24378   */\n      tag_496\n        /* \"#utility.yul\":24311:24377   */\n      0xffffffffffffffffffffffffffffffffffffffffffffffffffffffffffffffff\n        /* \"#utility.yul\":24300:24309   */\n      dup3\n        /* \"#utility.yul\":24281:24378   */\n      tag_261\n      jump\t// in\n    tag_496:\n        /* \"#utility.yul\":24399:24438   */\n      tag_497\n        /* \"#utility.yul\":24429:24437   */\n      dup7\n        /* \"#utility.yul\":24418:24427   */\n      dup4\n        /* \"#utility.yul\":24399:24438   */\n      tag_261\n      jump\t// in\n    tag_497:\n        /* \"#utility.yul\":24387:24438   */\n      swap6\n      pop\n        /* \"#utility.yul\":24471:24475   */\n      dup1\n        /* \"#utility.yul\":24467:24476   */\n      not\n        /* \"#utility.yul\":24460:24465   */\n      dup5\n        /* \"#utility.yul\":24456:24477   */\n      and\n        /* \"#utility.yul\":24447:24477   */\n      swap4\n      pop\n        /* \"#utility.yul\":24520:24524   */\n      dup1\n        /* \"#utility.yul\":24510:24518   */\n      dup7\n        /* \"#utility.yul\":24506:24525   */\n      and\n        /* \"#utility.yul\":24499:24504   */\n      dup5\n        /* \"#utility.yul\":24496:24526   */\n      or\n        /* \"#utility.yul\":24486:24526   */\n      swap3\n      pop\n        /* \"#utility.yul\":24215:24532   */\n      pop\n      pop\n        /* \"#utility.yul\":24139:24532   */\n      swap4\n      swap3\n      pop\n      pop\n      pop\n      jump\t// out\n        /* \"#utility.yul\":24538:24598   */\n    tag_263:\n        /* \"#utility.yul\":24566:24569   */\n      0x00\n        /* \"#utility.yul\":24587:24592   */\n      dup2\n        /* \"#utility.yul\":24580:24592   */\n      swap1\n      pop\n        /* \"#utility.yul\":24538:24598   */\n      swap2\n      swap1\n      pop\n      jump\t// out\n        /* \"#utility.yul\":24604:24746   */\n    tag_264:\n        /* \"#utility.yul\":24654:24663   */\n      0x00\n        /* \"#utility.yul\":24687:24740   */\n      tag_500\n        /* \"#utility.yul\":24705:24739   */\n      tag_501\n        /* \"#utility.yul\":24714:24738   */\n      tag_502\n        /* \"#utility.yul\":24732:24737   */\n      dup5\n        /* \"#utility.yul\":24714:24738   */\n      tag_207\n      jump\t// in\n    tag_502:\n        /* \"#utility.yul\":24705:24739   */\n      tag_263\n      jump\t// in\n    tag_501:\n        /* \"#utility.yul\":24687:24740   */\n      tag_207\n      jump\t// in\n    tag_500:\n        /* \"#utility.yul\":24674:24740   */\n      swap1\n      pop\n        /* \"#utility.yul\":24604:24746   */\n      swap2\n      swap1\n      pop\n      jump\t// out\n        /* \"#utility.yul\":24752:24827   */\n    tag_265:\n        /* \"#utility.yul\":24795:24798   */\n      0x00\n        /* \"#utility.yul\":24816:24821   */\n      dup2\n        /* \"#utility.yul\":24809:24821   */\n      swap1\n      pop\n        /* \"#utility.yul\":24752:24827   */\n      swap2\n      swap1\n      pop\n      jump\t// out\n        /* \"#utility.yul\":24833:25102   */\n    tag_266:\n        /* \"#utility.yul\":24943:24982   */\n      tag_505\n        /* \"#utility.yul\":24974:24981   */\n      dup4\n        /* \"#utility.yul\":24943:24982   */\n      tag_264\n      jump\t// in\n    tag_505:\n        /* \"#utility.yul\":25004:25095   */\n      tag_506\n        /* \"#utility.yul\":25053:25094   */\n      tag_507\n        /* \"#utility.yul\":25077:25093   */\n      dup3\n        /* \"#utility.yul\":25053:25094   */\n      tag_265\n      jump\t// in\n    tag_507:\n        /* \"#utility.yul\":25045:25051   */\n      dup5\n        /* \"#utility.yul\":25038:25042   */\n      dup5\n        /* \"#utility.yul\":25032:25043   */\n      sload\n        /* \"#utility.yul\":25004:25095   */\n      tag_262\n      jump\t// in\n    tag_506:\n        /* \"#utility.yul\":24998:25002   */\n      dup3\n        /* \"#utility.yul\":24991:25096   */\n      sstore\n        /* \"#utility.yul\":24909:25102   */\n      pop\n        /* \"#utility.yul\":24833:25102   */\n      pop\n      pop\n      pop\n      jump\t// out\n        /* \"#utility.yul\":25108:25181   */\n    tag_267:\n        /* \"#utility.yul\":25153:25156   */\n      0x00\n        /* \"#utility.yul\":25108:25181   */\n      swap1\n      jump\t// out\n        /* \"#utility.yul\":25187:25376   */\n    tag_268:\n        /* \"#utility.yul\":25264:25296   */\n      tag_510\n      tag_267\n      jump\t// in\n    tag_510:\n        /* \"#utility.yul\":25305:25370   */\n      tag_511\n        /* \"#utility.yul\":25363:25369   */\n      dup2\n        /* \"#utility.yul\":25355:25361   */\n      dup5\n        /* \"#utility.yul\":25349:25353   */\n      dup5\n        /* \"#utility.yul\":25305:25370   */\n      tag_266\n      jump\t// in\n    tag_511:\n        /* \"#utility.yul\":25240:25376   */\n      pop\n        /* \"#utility.yul\":25187:25376   */\n      pop\n      pop\n      jump\t// out\n        /* \"#utility.yul\":25382:25568   */\n    tag_269:\n        /* \"#utility.yul\":25442:25562   */\n    tag_513:\n        /* \"#utility.yul\":25459:25462   */\n      dup2\n        /* \"#utility.yul\":25452:25457   */\n      dup2\n        /* \"#utility.yul\":25449:25463   */\n      lt\n        /* \"#utility.yul\":25442:25562   */\n      iszero\n      tag_515\n      jumpi\n        /* \"#utility.yul\":25513:25552   */\n      tag_516\n        /* \"#utility.yul\":25550:25551   */\n      0x00\n        /* \"#utility.yul\":25543:25548   */\n      dup3\n        /* \"#utility.yul\":25513:25552   */\n      tag_268\n      jump\t// in\n    tag_516:\n        /* \"#utility.yul\":25486:25487   */\n      0x01\n        /* \"#utility.yul\":25479:25484   */\n      dup2\n        /* \"#utility.yul\":25475:25488   */\n      add\n        /* \"#utility.yul\":25466:25488   */\n      swap1\n      pop\n        /* \"#utility.yul\":25442:25562   */\n      jump(tag_513)\n    tag_515:\n        /* \"#utility.yul\":25382:25568   */\n      pop\n      pop\n      jump\t// out\n        /* \"#utility.yul\":25574:26117   */\n    tag_270:\n        /* \"#utility.yul\":25675:25677   */\n      0x1f\n        /* \"#utility.yul\":25670:25673   */\n      dup3\n        /* \"#utility.yul\":25667:25678   */\n      gt\n        /* \"#utility.yul\":25664:26110   */\n      iszero\n      tag_518\n      jumpi\n        /* \"#utility.yul\":25709:25747   */\n      tag_519\n        /* \"#utility.yul\":25741:25746   */\n      dup2\n        /* \"#utility.yul\":25709:25747   */\n      tag_259\n      jump\t// in\n    tag_519:\n        /* \"#utility.yul\":25793:25822   */\n      tag_520\n        /* \"#utility.yul\":25811:25821   */\n      dup5\n        /* \"#utility.yul\":25793:25822   */\n      tag_260\n      jump\t// in\n    tag_520:\n        /* \"#utility.yul\":25783:25791   */\n      dup2\n        /* \"#utility.yul\":25779:25823   */\n      add\n        /* \"#utility.yul\":25976:25978   */\n      0x20\n        /* \"#utility.yul\":25964:25974   */\n      dup6\n        /* \"#utility.yul\":25961:25979   */\n      lt\n        /* \"#utility.yul\":25958:26007   */\n      iszero\n      tag_521\n      jumpi\n        /* \"#utility.yul\":25997:26005   */\n      dup2\n        /* \"#utility.yul\":25982:26005   */\n      swap1\n      pop\n        /* \"#utility.yul\":25958:26007   */\n    tag_521:\n        /* \"#utility.yul\":26020:26100   */\n      tag_522\n        /* \"#utility.yul\":26076:26098   */\n      tag_523\n        /* \"#utility.yul\":26094:26097   */\n      dup6\n        /* \"#utility.yul\":26076:26098   */\n      tag_260\n      jump\t// in\n    tag_523:\n        /* \"#utility.yul\":26066:26074   */\n      dup4\n        /* \"#utility.yul\":26062:26099   */\n      add\n        /* \"#utility.yul\":26049:26060   */\n      dup3\n        /* \"#utility.yul\":26020:26100   */\n      tag_269\n      jump\t// in\n    tag_522:\n        /* \"#utility.yul\":25679:26110   */\n      pop\n      pop\n        /* \"#utility.yul\":25664:26110   */\n    tag_518:\n        /* \"#utility.yul\":25574:26117   */\n      pop\n      pop\n      pop\n      jump\t// out\n        /* \"#utility.yul\":26123:26240   */\n    tag_271:\n        /* \"#utility.yul\":26177:26185   */\n      0x00\n        /* \"#utility.yul\":26227:26232   */\n      dup3\n        /* \"#utility.yul\":26221:26225   */\n      dup3\n        /* \"#utility.yul\":26217:26233   */\n      shr\n        /* \"#utility.yul\":26196:26233   */\n      swap1\n      pop\n        /* \"#utility.yul\":26123:26240   */\n      swap3\n      swap2\n      pop\n      pop\n      jump\t// out\n        /* \"#utility.yul\":26246:26415   */\n    tag_272:\n        /* \"#utility.yul\":26290:26296   */\n      0x00\n        /* \"#utility.yul\":26323:26374   */\n      tag_526\n        /* \"#utility.yul\":26371:26372   */\n      0x00\n        /* \"#utility.yul\":26367:26373   */\n      not\n        /* \"#utility.yul\":26359:26364   */\n      dup5\n        /* \"#utility.yul\":26356:26357   */\n      0x08\n        /* \"#utility.yul\":26352:26365   */\n      mul\n        /* \"#utility.yul\":26323:26374   */\n      tag_271\n      jump\t// in\n    tag_526:\n        /* \"#utility.yul\":26319:26375   */\n      not\n        /* \"#utility.yul\":26404:26408   */\n      dup1\n        /* \"#utility.yul\":26398:26402   */\n      dup4\n        /* \"#utility.yul\":26394:26409   */\n      and\n        /* \"#utility.yul\":26384:26409   */\n      swap2\n      pop\n        /* \"#utility.yul\":26297:26415   */\n      pop\n        /* \"#utility.yul\":26246:26415   */\n      swap3\n      swap2\n      pop\n      pop\n      jump\t// out\n        /* \"#utility.yul\":26420:26715   */\n    tag_273:\n        /* \"#utility.yul\":26496:26500   */\n      0x00\n        /* \"#utility.yul\":26642:26671   */\n      tag_528\n        /* \"#utility.yul\":26667:26670   */\n      dup4\n        /* \"#utility.yul\":26661:26665   */\n      dup4\n        /* \"#utility.yul\":26642:26671   */\n      tag_272\n      jump\t// in\n    tag_528:\n        /* \"#utility.yul\":26634:26671   */\n      swap2\n      pop\n        /* \"#utility.yul\":26704:26707   */\n      dup3\n        /* \"#utility.yul\":26701:26702   */\n      0x02\n        /* \"#utility.yul\":26697:26708   */\n      mul\n        /* \"#utility.yul\":26691:26695   */\n      dup3\n        /* \"#utility.yul\":26688:26709   */\n      or\n        /* \"#utility.yul\":26680:26709   */\n      swap1\n      pop\n        /* \"#utility.yul\":26420:26715   */\n      swap3\n      swap2\n      pop\n      pop\n      jump\t// out\n        /* \"#utility.yul\":26720:28115   */\n    tag_152:\n        /* \"#utility.yul\":26837:26874   */\n      tag_530\n        /* \"#utility.yul\":26870:26873   */\n      dup3\n        /* \"#utility.yul\":26837:26874   */\n      tag_212\n      jump\t// in\n    tag_530:\n        /* \"#utility.yul\":26939:26957   */\n      0xffffffffffffffff\n        /* \"#utility.yul\":26931:26937   */\n      dup2\n        /* \"#utility.yul\":26928:26958   */\n      gt\n        /* \"#utility.yul\":26925:26981   */\n      iszero\n      tag_531\n      jumpi\n        /* \"#utility.yul\":26961:26979   */\n      tag_532\n      tag_223\n      jump\t// in\n    tag_532:\n        /* \"#utility.yul\":26925:26981   */\n    tag_531:\n        /* \"#utility.yul\":27005:27043   */\n      tag_533\n        /* \"#utility.yul\":27037:27041   */\n      dup3\n        /* \"#utility.yul\":27031:27042   */\n      sload\n        /* \"#utility.yul\":27005:27043   */\n      tag_69\n      jump\t// in\n    tag_533:\n        /* \"#utility.yul\":27090:27157   */\n      tag_534\n        /* \"#utility.yul\":27150:27156   */\n      dup3\n        /* \"#utility.yul\":27142:27148   */\n      dup3\n        /* \"#utility.yul\":27136:27140   */\n      dup6\n        /* \"#utility.yul\":27090:27157   */\n      tag_270\n      jump\t// in\n    tag_534:\n        /* \"#utility.yul\":27184:27185   */\n      0x00\n        /* \"#utility.yul\":27208:27212   */\n      0x20\n        /* \"#utility.yul\":27195:27212   */\n      swap1\n      pop\n        /* \"#utility.yul\":27240:27242   */\n      0x1f\n        /* \"#utility.yul\":27232:27238   */\n      dup4\n        /* \"#utility.yul\":27229:27243   */\n      gt\n        /* \"#utility.yul\":27257:27258   */\n      0x01\n        /* \"#utility.yul\":27252:27870   */\n      dup2\n      eq\n      tag_536\n      jumpi\n        /* \"#utility.yul\":27914:27915   */\n      0x00\n        /* \"#utility.yul\":27931:27937   */\n      dup5\n        /* \"#utility.yul\":27928:28005   */\n      iszero\n      tag_537\n      jumpi\n        /* \"#utility.yul\":27980:27989   */\n      dup3\n        /* \"#utility.yul\":27975:27978   */\n      dup8\n        /* \"#utility.yul\":27971:27990   */\n      add\n        /* \"#utility.yul\":27965:27991   */\n      mload\n        /* \"#utility.yul\":27956:27991   */\n      swap1\n      pop\n        /* \"#utility.yul\":27928:28005   */\n    tag_537:\n        /* \"#utility.yul\":28031:28098   */\n      tag_538\n        /* \"#utility.yul\":28091:28097   */\n      dup6\n        /* \"#utility.yul\":28084:28089   */\n      dup3\n        /* \"#utility.yul\":28031:28098   */\n      tag_273\n      jump\t// in\n    tag_538:\n        /* \"#utility.yul\":28025:28029   */\n      dup7\n        /* \"#utility.yul\":28018:28099   */\n      sstore\n        /* \"#utility.yul\":27887:28109   */\n      pop\n        /* \"#utility.yul\":27222:28109   */\n      jump(tag_535)\n        /* \"#utility.yul\":27252:27870   */\n    tag_536:\n        /* \"#utility.yul\":27304:27308   */\n      0x1f\n        /* \"#utility.yul\":27300:27309   */\n      not\n        /* \"#utility.yul\":27292:27298   */\n      dup5\n        /* \"#utility.yul\":27288:27310   */\n      and\n        /* \"#utility.yul\":27338:27375   */\n      tag_539\n        /* \"#utility.yul\":27370:27374   */\n      dup7\n        /* \"#utility.yul\":27338:27375   */\n      tag_259\n      jump\t// in\n    tag_539:\n        /* \"#utility.yul\":27397:27398   */\n      0x00\n        /* \"#utility.yul\":27411:27619   */\n    tag_540:\n        /* \"#utility.yul\":27425:27432   */\n      dup3\n        /* \"#utility.yul\":27422:27423   */\n      dup2\n        /* \"#utility.yul\":27419:27433   */\n      lt\n        /* \"#utility.yul\":27411:27619   */\n      iszero\n      tag_542\n      jumpi\n        /* \"#utility.yul\":27504:27513   */\n      dup5\n        /* \"#utility.yul\":27499:27502   */\n      dup10\n        /* \"#utility.yul\":27495:27514   */\n      add\n        /* \"#utility.yul\":27489:27515   */\n      mload\n        /* \"#utility.yul\":27481:27487   */\n      dup3\n        /* \"#utility.yul\":27474:27516   */\n      sstore\n        /* \"#utility.yul\":27555:27556   */\n      0x01\n        /* \"#utility.yul\":27547:27553   */\n      dup3\n        /* \"#utility.yul\":27543:27557   */\n      add\n        /* \"#utility.yul\":27533:27557   */\n      swap2\n      pop\n        /* \"#utility.yul\":27602:27604   */\n      0x20\n        /* \"#utility.yul\":27591:27600   */\n      dup6\n        /* \"#utility.yul\":27587:27605   */\n      add\n        /* \"#utility.yul\":27574:27605   */\n      swap5\n      pop\n        /* \"#utility.yul\":27448:27452   */\n      0x20\n        /* \"#utility.yul\":27445:27446   */\n      dup2\n        /* \"#utility.yul\":27441:27453   */\n      add\n        /* \"#utility.yul\":27436:27453   */\n      swap1\n      pop\n        /* \"#utility.yul\":27411:27619   */\n      jump(tag_540)\n    tag_542:\n        /* \"#utility.yul\":27647:27653   */\n      dup7\n        /* \"#utility.yul\":27638:27645   */\n      dup4\n        /* \"#utility.yul\":27635:27654   */\n      lt\n        /* \"#utility.yul\":27632:27811   */\n      iszero\n      tag_543\n      jumpi\n        /* \"#utility.yul\":27705:27714   */\n      dup5\n        /* \"#utility.yul\":27700:27703   */\n      dup10\n        /* \"#utility.yul\":27696:27715   */\n      add\n        /* \"#utility.yul\":27690:27716   */\n      mload\n        /* \"#utility.yul\":27748:27796   */\n      tag_544\n        /* \"#utility.yul\":27790:27794   */\n      0x1f\n        /* \"#utility.yul\":27782:27788   */\n      dup10\n        /* \"#utility.yul\":27778:27795   */\n      and\n        /* \"#utility.yul\":27767:27776   */\n      dup3\n        /* \"#utility.yul\":27748:27796   */\n      tag_272\n      jump\t// in\n    tag_544:\n        /* \"#utility.yul\":27740:27746   */\n      dup4\n        /* \"#utility.yul\":27733:27797   */\n      sstore\n        /* \"#utility.yul\":27655:27811   */\n      pop\n        /* \"#utility.yul\":27632:27811   */\n    tag_543:\n        /* \"#utility.yul\":27857:27858   */\n      0x01\n        /* \"#utility.yul\":27853:27854   */\n      0x02\n        /* \"#utility.yul\":27845:27851   */\n      dup9\n        /* \"#utility.yul\":27841:27855   */\n      mul\n        /* \"#utility.yul\":27837:27859   */\n      add\n        /* \"#utility.yul\":27831:27835   */\n      dup9\n        /* \"#utility.yul\":27824:27860   */\n      sstore\n        /* \"#utility.yul\":27259:27870   */\n      pop\n      pop\n      pop\n        /* \"#utility.yul\":27222:28109   */\n    tag_535:\n      pop\n        /* \"#utility.yul\":26812:28115   */\n      pop\n      pop\n      pop\n        /* \"#utility.yul\":26720:28115   */\n      pop\n      pop\n      jump\t// out\n        /* \"#utility.yul\":28121:28765   */\n    tag_154:\n        /* \"#utility.yul\":28318:28322   */\n      0x00\n        /* \"#utility.yul\":28356:28359   */\n      0x80\n        /* \"#utility.yul\":28345:28354   */\n      dup3\n        /* \"#utility.yul\":28341:28360   */\n      add\n        /* \"#utility.yul\":28333:28360   */\n      swap1\n      pop\n        /* \"#utility.yul\":28370:28441   */\n      tag_546\n        /* \"#utility.yul\":28438:28439   */\n      0x00\n        /* \"#utility.yul\":28427:28436   */\n      dup4\n        /* \"#utility.yul\":28423:28440   */\n      add\n        /* \"#utility.yul\":28414:28420   */\n      dup8\n        /* \"#utility.yul\":28370:28441   */\n      tag_210\n      jump\t// in\n    tag_546:\n        /* \"#utility.yul\":28451:28523   */\n      tag_547\n        /* \"#utility.yul\":28519:28521   */\n      0x20\n        /* \"#utility.yul\":28508:28517   */\n      dup4\n        /* \"#utility.yul\":28504:28522   */\n      add\n        /* \"#utility.yul\":28495:28501   */\n      dup7\n        /* \"#utility.yul\":28451:28523   */\n      tag_211\n      jump\t// in\n    tag_547:\n        /* \"#utility.yul\":28570:28579   */\n      dup2\n        /* \"#utility.yul\":28564:28568   */\n      dup2\n        /* \"#utility.yul\":28560:28580   */\n      sub\n        /* \"#utility.yul\":28555:28557   */\n      0x40\n        /* \"#utility.yul\":28544:28553   */\n      dup4\n        /* \"#utility.yul\":28540:28558   */\n      add\n        /* \"#utility.yul\":28533:28581   */\n      mstore\n        /* \"#utility.yul\":28598:28676   */\n      tag_548\n        /* \"#utility.yul\":28671:28675   */\n      dup2\n        /* \"#utility.yul\":28662:28668   */\n      dup6\n        /* \"#utility.yul\":28598:28676   */\n      tag_216\n      jump\t// in\n    tag_548:\n        /* \"#utility.yul\":28590:28676   */\n      swap1\n      pop\n        /* \"#utility.yul\":28686:28758   */\n      tag_549\n        /* \"#utility.yul\":28754:28756   */\n      0x60\n        /* \"#utility.yul\":28743:28752   */\n      dup4\n        /* \"#utility.yul\":28739:28757   */\n      add\n        /* \"#utility.yul\":28730:28736   */\n      dup5\n        /* \"#utility.yul\":28686:28758   */\n      tag_210\n      jump\t// in\n    tag_549:\n        /* \"#utility.yul\":28121:28765   */\n      swap6\n      swap5\n      pop\n      pop\n      pop\n      pop\n      pop\n      jump\t// out\n        /* \"#utility.yul\":28771:28962   */\n    tag_163:\n        /* \"#utility.yul\":28811:28814   */\n      0x00\n        /* \"#utility.yul\":28830:28850   */\n      tag_551\n        /* \"#utility.yul\":28848:28849   */\n      dup3\n        /* \"#utility.yul\":28830:28850   */\n      tag_207\n      jump\t// in\n    tag_551:\n        /* \"#utility.yul\":28825:28850   */\n      swap2\n      pop\n        /* \"#utility.yul\":28864:28884   */\n      tag_552\n        /* \"#utility.yul\":28882:28883   */\n      dup4\n        /* \"#utility.yul\":28864:28884   */\n      tag_207\n      jump\t// in\n    tag_552:\n        /* \"#utility.yul\":28859:28884   */\n      swap3\n      pop\n        /* \"#utility.yul\":28907:28908   */\n      dup3\n        /* \"#utility.yul\":28904:28905   */\n      dup3\n        /* \"#utility.yul\":28900:28909   */\n      add\n        /* \"#utility.yul\":28893:28909   */\n      swap1\n      pop\n        /* \"#utility.yul\":28928:28931   */\n      dup1\n        /* \"#utility.yul\":28925:28926   */\n      dup3\n        /* \"#utility.yul\":28922:28932   */\n      gt\n        /* \"#utility.yul\":28919:28955   */\n      iszero\n      tag_553\n      jumpi\n        /* \"#utility.yul\":28935:28953   */\n      tag_554\n      tag_254\n      jump\t// in\n    tag_554:\n        /* \"#utility.yul\":28919:28955   */\n    tag_553:\n        /* \"#utility.yul\":28771:28962   */\n      swap3\n      swap2\n      pop\n      pop\n      jump\t// out\n\n    auxdata: 0xa2646970667358221220dfdde242e67a97e55ac2f07f246c5143c473f4c4b784939c7770a4fadfb10ec764736f6c634300081a0033\n}\n",
				"bytecode": {
					"linkReferences": {},
					"object": "60806040526101185f60146101000a81548161ffff021916908361ffff16021790555034801561002d575f80fd5b50604051612353380380612353833981810160405281019061004f9190610235565b335f73ffffffffffffffffffffffffffffffffffffffff168173ffffffffffffffffffffffffffffffffffffffff16036100c0575f6040517f1e4fbdf70000000000000000000000000000000000000000000000000000000081526004016100b7919061026f565b60405180910390fd5b6100cf8161011660201b60201c565b508060025f6101000a81548173ffffffffffffffffffffffffffffffffffffffff021916908373ffffffffffffffffffffffffffffffffffffffff16021790555050610288565b5f805f9054906101000a900473ffffffffffffffffffffffffffffffffffffffff169050815f806101000a81548173ffffffffffffffffffffffffffffffffffffffff021916908373ffffffffffffffffffffffffffffffffffffffff1602179055508173ffffffffffffffffffffffffffffffffffffffff168173ffffffffffffffffffffffffffffffffffffffff167f8be0079c531659141344cd1fd0a4f28419497f9722a3daafe3b4186f6b6457e060405160405180910390a35050565b5f80fd5b5f73ffffffffffffffffffffffffffffffffffffffff82169050919050565b5f610204826101db565b9050919050565b610214816101fa565b811461021e575f80fd5b50565b5f8151905061022f8161020b565b92915050565b5f6020828403121561024a576102496101d7565b5b5f61025784828501610221565b91505092915050565b610269816101fa565b82525050565b5f6020820190506102825f830184610260565b92915050565b6120be806102955f395ff3fe608060405234801561000f575f80fd5b50600436106100b2575f3560e01c80637c9cd2bc1161006f5780637c9cd2bc14610166578063820785cc146101825780638da5cb5b146101b25780639fedc6aa146101d0578063c3ad5ecb14610200578063f2fde38b14610230576100b2565b806305a1b4a9146100b65780632b82b1b6146100ea5780633d9b569f1461010857806358bfa4ab146101245780636337821614610140578063715018a61461015c575b5f80fd5b6100d060048036038101906100cb91906112fd565b61024c565b6040516100e19594939291906113c9565b60405180910390f35b6100f261033d565b6040516100ff919061143d565b60405180910390f35b610122600480360381019061011d91906112fd565b610350565b005b61013e60048036038101906101399190611480565b610687565b005b61015a600480360381019061015591906112fd565b6106ae565b005b610164610945565b005b610180600480360381019061017b91906115d7565b610958565b005b61019c6004803603810190610197919061161e565b610c43565b6040516101a99190611649565b60405180910390f35b6101ba610d12565b6040516101c79190611662565b60405180910390f35b6101ea60048036038101906101e5919061161e565b610d39565b6040516101f7919061180f565b60405180910390f35b61021a6004803603810190610215919061182f565b610ed4565b60405161022791906118cd565b60405180910390f35b61024a6004803603810190610245919061161e565b61104b565b005b6001602052815f5260405f208181548110610265575f80fd5b905f5260205f2090600502015f9150915050805f015490806001015f9054906101000a900473ffffffffffffffffffffffffffffffffffffffff16908060020180546102b09061191a565b80601f01602080910402602001604051908101604052809291908181526020018280546102dc9061191a565b80156103275780601f106102fe57610100808354040283529160200191610327565b820191905f5260205f20905b81548152906001019060200180831161030a57829003601f168201915b5050505050908060030154908060040154905085565b5f60149054906101000a900461ffff1681565b5f60025f9054906101000a900473ffffffffffffffffffffffffffffffffffffffff1673ffffffffffffffffffffffffffffffffffffffff16630f53a470336040518263ffffffff1660e01b81526004016103ab9190611662565b5f60405180830381865afa1580156103c5573d5f803e3d5ffd5b505050506040513d5f823e3d601f19601f820116820180604052508101906103ed9190611a45565b90505f815f01515111610435576040517f08c379a000000000000000000000000000000000000000000000000000000000815260040161042c90611ad6565b60405180910390fd5b8160015f8573ffffffffffffffffffffffffffffffffffffffff1673ffffffffffffffffffffffffffffffffffffffff1681526020019081526020015f20838154811061048557610484611af4565b5b905f5260205f2090600502015f0154146104d4576040517f08c379a00000000000000000000000000000000000000000000000000000000081526004016104cb90611b6b565b60405180910390fd5b5f60015f8573ffffffffffffffffffffffffffffffffffffffff1673ffffffffffffffffffffffffffffffffffffffff1681526020019081526020015f20838154811061052457610523611af4565b5b905f5260205f2090600502016004015411610574576040517f08c379a000000000000000000000000000000000000000000000000000000000815260040161056b90611bd3565b60405180910390fd5b60015f8473ffffffffffffffffffffffffffffffffffffffff1673ffffffffffffffffffffffffffffffffffffffff1681526020019081526020015f2082815481106105c3576105c2611af4565b5b905f5260205f2090600502016004015f8154809291906105e290611c1e565b91905055507f762c2616349603ac16eba0de8e6141b79129a07ab63bd99e0a80b3a47171694333848460015f8873ffffffffffffffffffffffffffffffffffffffff1673ffffffffffffffffffffffffffffffffffffffff1681526020019081526020015f20868154811061065a57610659611af4565b5b905f5260205f2090600502016004015460405161067a9493929190611c45565b60405180910390a1505050565b61068f6110cf565b805f60146101000a81548161ffff021916908361ffff16021790555050565b5f60025f9054906101000a900473ffffffffffffffffffffffffffffffffffffffff1673ffffffffffffffffffffffffffffffffffffffff16630f53a470336040518263ffffffff1660e01b81526004016107099190611662565b5f60405180830381865afa158015610723573d5f803e3d5ffd5b505050506040513d5f823e3d601f19601f8201168201806040525081019061074b9190611a45565b90505f815f01515111610793576040517f08c379a000000000000000000000000000000000000000000000000000000000815260040161078a90611ad6565b60405180910390fd5b8160015f8573ffffffffffffffffffffffffffffffffffffffff1673ffffffffffffffffffffffffffffffffffffffff1681526020019081526020015f2083815481106107e3576107e2611af4565b5b905f5260205f2090600502015f015414610832576040517f08c379a000000000000000000000000000000000000000000000000000000000815260040161082990611cd2565b60405180910390fd5b60015f8473ffffffffffffffffffffffffffffffffffffffff1673ffffffffffffffffffffffffffffffffffffffff1681526020019081526020015f20828154811061088157610880611af4565b5b905f5260205f2090600502016004015f8154809291906108a090611cf0565b91905055507fe8a76fc0f16d11a00d1e93b689b63d76cf60af914dd3d915375dc41d01a0c3c833848460015f8873ffffffffffffffffffffffffffffffffffffffff1673ffffffffffffffffffffffffffffffffffffffff1681526020019081526020015f20868154811061091857610917611af4565b5b905f5260205f209060050201600401546040516109389493929190611c45565b60405180910390a1505050565b61094d6110cf565b6109565f611156565b565b5f60025f9054906101000a900473ffffffffffffffffffffffffffffffffffffffff1673ffffffffffffffffffffffffffffffffffffffff16630f53a470336040518263ffffffff1660e01b81526004016109b39190611662565b5f60405180830381865afa1580156109cd573d5f803e3d5ffd5b505050506040513d5f823e3d601f19601f820116820180604052508101906109f59190611a45565b90505f815f01515111610a3d576040517f08c379a0000000000000000000000000000000000000000000000000000000008152600401610a3490611ad6565b60405180910390fd5b5f60149054906101000a900461ffff1661ffff1682511115610a94576040517f08c379a0000000000000000000000000000000000000000000000000000000008152600401610a8b90611d81565b60405180910390fd5b5f6040518060a0016040528060015f3373ffffffffffffffffffffffffffffffffffffffff1673ffffffffffffffffffffffffffffffffffffffff1681526020019081526020015f208054905081526020013373ffffffffffffffffffffffffffffffffffffffff1681526020018481526020014281526020015f815250905060015f3373ffffffffffffffffffffffffffffffffffffffff1673ffffffffffffffffffffffffffffffffffffffff1681526020019081526020015f2081908060018154018082558091505060019003905f5260205f2090600502015f909190919091505f820151815f01556020820151816001015f6101000a81548173ffffffffffffffffffffffffffffffffffffffff021916908373ffffffffffffffffffffffffffffffffffffffff1602179055506040820151816002019081610bdb9190611f3c565b50606082015181600301556080820151816004015550507f16fd3c13e9d46923e0a8bce11c7b473ec508a72e6c96cd2404b29ce972afc29e815f0151826020015183604001518460600151604051610c36949392919061200b565b60405180910390a1505050565b5f805f5b60015f8573ffffffffffffffffffffffffffffffffffffffff1673ffffffffffffffffffffffffffffffffffffffff1681526020019081526020015f2080549050811015610d085760015f8573ffffffffffffffffffffffffffffffffffffffff1673ffffffffffffffffffffffffffffffffffffffff1681526020019081526020015f208181548110610cde57610cdd611af4565b5b905f5260205f2090600502016004015482610cf99190612055565b91508080600101915050610c47565b5080915050919050565b5f805f9054906101000a900473ffffffffffffffffffffffffffffffffffffffff16905090565b606060015f8373ffffffffffffffffffffffffffffffffffffffff1673ffffffffffffffffffffffffffffffffffffffff1681526020019081526020015f20805480602002602001604051908101604052809291908181526020015f905b82821015610ec9578382905f5260205f2090600502016040518060a00160405290815f8201548152602001600182015f9054906101000a900473ffffffffffffffffffffffffffffffffffffffff1673ffffffffffffffffffffffffffffffffffffffff1673ffffffffffffffffffffffffffffffffffffffff168152602001600282018054610e269061191a565b80601f0160208091040260200160405190810160405280929190818152602001828054610e529061191a565b8015610e9d5780601f10610e7457610100808354040283529160200191610e9d565b820191905f5260205f20905b815481529060010190602001808311610e8057829003601f168201915b505050505081526020016003820154815260200160048201548152505081526020019060010190610d97565b505050509050919050565b610edc61121e565b60015f3373ffffffffffffffffffffffffffffffffffffffff1673ffffffffffffffffffffffffffffffffffffffff1681526020019081526020015f208281548110610f2b57610f2a611af4565b5b905f5260205f2090600502016040518060a00160405290815f8201548152602001600182015f9054906101000a900473ffffffffffffffffffffffffffffffffffffffff1673ffffffffffffffffffffffffffffffffffffffff1673ffffffffffffffffffffffffffffffffffffffff168152602001600282018054610fb09061191a565b80601f0160208091040260200160405190810160405280929190818152602001828054610fdc9061191a565b80156110275780601f10610ffe57610100808354040283529160200191611027565b820191905f5260205f20905b81548152906001019060200180831161100a57829003601f168201915b50505050508152602001600382015481526020016004820154815250509050919050565b6110536110cf565b5f73ffffffffffffffffffffffffffffffffffffffff168173ffffffffffffffffffffffffffffffffffffffff16036110c3575f6040517f1e4fbdf70000000000000000000000000000000000000000000000000000000081526004016110ba9190611662565b60405180910390fd5b6110cc81611156565b50565b6110d7611217565b73ffffffffffffffffffffffffffffffffffffffff166110f5610d12565b73ffffffffffffffffffffffffffffffffffffffff161461115457611118611217565b6040517f118cdaa700000000000000000000000000000000000000000000000000000000815260040161114b9190611662565b60405180910390fd5b565b5f805f9054906101000a900473ffffffffffffffffffffffffffffffffffffffff169050815f806101000a81548173ffffffffffffffffffffffffffffffffffffffff021916908373ffffffffffffffffffffffffffffffffffffffff1602179055508173ffffffffffffffffffffffffffffffffffffffff168173ffffffffffffffffffffffffffffffffffffffff167f8be0079c531659141344cd1fd0a4f28419497f9722a3daafe3b4186f6b6457e060405160405180910390a35050565b5f33905090565b6040518060a001604052805f81526020015f73ffffffffffffffffffffffffffffffffffffffff168152602001606081526020015f81526020015f81525090565b5f604051905090565b5f80fd5b5f80fd5b5f73ffffffffffffffffffffffffffffffffffffffff82169050919050565b5f61129982611270565b9050919050565b6112a98161128f565b81146112b3575f80fd5b50565b5f813590506112c4816112a0565b92915050565b5f819050919050565b6112dc816112ca565b81146112e6575f80fd5b50565b5f813590506112f7816112d3565b92915050565b5f806040838503121561131357611312611268565b5b5f611320858286016112b6565b9250506020611331858286016112e9565b9150509250929050565b611344816112ca565b82525050565b6113538161128f565b82525050565b5f81519050919050565b5f82825260208201905092915050565b8281835e5f83830152505050565b5f601f19601f8301169050919050565b5f61139b82611359565b6113a58185611363565b93506113b5818560208601611373565b6113be81611381565b840191505092915050565b5f60a0820190506113dc5f83018861133b565b6113e9602083018761134a565b81810360408301526113fb8186611391565b905061140a606083018561133b565b611417608083018461133b565b9695505050505050565b5f61ffff82169050919050565b61143781611421565b82525050565b5f6020820190506114505f83018461142e565b92915050565b61145f81611421565b8114611469575f80fd5b50565b5f8135905061147a81611456565b92915050565b5f6020828403121561149557611494611268565b5b5f6114a28482850161146c565b91505092915050565b5f80fd5b5f80fd5b7f4e487b71000000000000000000000000000000000000000000000000000000005f52604160045260245ffd5b6114e982611381565b810181811067ffffffffffffffff82111715611508576115076114b3565b5b80604052505050565b5f61151a61125f565b905061152682826114e0565b919050565b5f67ffffffffffffffff821115611545576115446114b3565b5b61154e82611381565b9050602081019050919050565b828183375f83830152505050565b5f61157b6115768461152b565b611511565b905082815260208101848484011115611597576115966114af565b5b6115a284828561155b565b509392505050565b5f82601f8301126115be576115bd6114ab565b5b81356115ce848260208601611569565b91505092915050565b5f602082840312156115ec576115eb611268565b5b5f82013567ffffffffffffffff8111156116095761160861126c565b5b611615848285016115aa565b91505092915050565b5f6020828403121561163357611632611268565b5b5f611640848285016112b6565b91505092915050565b5f60208201905061165c5f83018461133b565b92915050565b5f6020820190506116755f83018461134a565b92915050565b5f81519050919050565b5f82825260208201905092915050565b5f819050602082019050919050565b6116ad816112ca565b82525050565b6116bc8161128f565b82525050565b5f82825260208201905092915050565b5f6116dc82611359565b6116e681856116c2565b93506116f6818560208601611373565b6116ff81611381565b840191505092915050565b5f60a083015f83015161171f5f8601826116a4565b50602083015161173260208601826116b3565b506040830151848203604086015261174a82826116d2565b915050606083015161175f60608601826116a4565b50608083015161177260808601826116a4565b508091505092915050565b5f611788838361170a565b905092915050565b5f602082019050919050565b5f6117a68261167b565b6117b08185611685565b9350836020820285016117c285611695565b805f5b858110156117fd57848403895281516117de858261177d565b94506117e983611790565b925060208a019950506001810190506117c5565b50829750879550505050505092915050565b5f6020820190508181035f830152611827818461179c565b905092915050565b5f6020828403121561184457611843611268565b5b5f611851848285016112e9565b91505092915050565b5f60a083015f83015161186f5f8601826116a4565b50602083015161188260208601826116b3565b506040830151848203604086015261189a82826116d2565b91505060608301516118af60608601826116a4565b5060808301516118c260808601826116a4565b508091505092915050565b5f6020820190508181035f8301526118e5818461185a565b905092915050565b7f4e487b71000000000000000000000000000000000000000000000000000000005f52602260045260245ffd5b5f600282049050600182168061193157607f821691505b602082108103611944576119436118ed565b5b50919050565b5f80fd5b5f80fd5b5f61196461195f8461152b565b611511565b9050828152602081018484840111156119805761197f6114af565b5b61198b848285611373565b509392505050565b5f82601f8301126119a7576119a66114ab565b5b81516119b7848260208601611952565b91505092915050565b5f604082840312156119d5576119d461194a565b5b6119df6040611511565b90505f82015167ffffffffffffffff8111156119fe576119fd61194e565b5b611a0a84828501611993565b5f83015250602082015167ffffffffffffffff811115611a2d57611a2c61194e565b5b611a3984828501611993565b60208301525092915050565b5f60208284031215611a5a57611a59611268565b5b5f82015167ffffffffffffffff811115611a7757611a7661126c565b5b611a83848285016119c0565b91505092915050565b7f55736572204e6f742052656769737465726564202121000000000000000000005f82015250565b5f611ac0601683611363565b9150611acb82611a8c565b602082019050919050565b5f6020820190508181035f830152611aed81611ab4565b9050919050565b7f4e487b71000000000000000000000000000000000000000000000000000000005f52603260045260245ffd5b7f547765657420646f6573206e6f742065786973740000000000000000000000005f82015250565b5f611b55601483611363565b9150611b6082611b21565b602082019050919050565b5f6020820190508181035f830152611b8281611b49565b9050919050565b7f547765657420686173206e6f206c696b657300000000000000000000000000005f82015250565b5f611bbd601283611363565b9150611bc882611b89565b602082019050919050565b5f6020820190508181035f830152611bea81611bb1565b9050919050565b7f4e487b71000000000000000000000000000000000000000000000000000000005f52601160045260245ffd5b5f611c28826112ca565b91505f8203611c3a57611c39611bf1565b5b600182039050919050565b5f608082019050611c585f83018761134a565b611c65602083018661134a565b611c72604083018561133b565b611c7f606083018461133b565b95945050505050565b7f547765657420646f65736e6f74206578697374000000000000000000000000005f82015250565b5f611cbc601383611363565b9150611cc782611c88565b602082019050919050565b5f6020820190508181035f830152611ce981611cb0565b9050919050565b5f611cfa826112ca565b91507fffffffffffffffffffffffffffffffffffffffffffffffffffffffffffffffff8203611d2c57611d2b611bf1565b5b600182019050919050565b7f547765657420697320746f6f206c6f6e672062726f21210000000000000000005f82015250565b5f611d6b601783611363565b9150611d7682611d37565b602082019050919050565b5f6020820190508181035f830152611d9881611d5f565b9050919050565b5f819050815f5260205f209050919050565b5f6020601f8301049050919050565b5f82821b905092915050565b5f60088302611dfb7fffffffffffffffffffffffffffffffffffffffffffffffffffffffffffffffff82611dc0565b611e058683611dc0565b95508019841693508086168417925050509392505050565b5f819050919050565b5f611e40611e3b611e36846112ca565b611e1d565b6112ca565b9050919050565b5f819050919050565b611e5983611e26565b611e6d611e6582611e47565b848454611dcc565b825550505050565b5f90565b611e81611e75565b611e8c818484611e50565b505050565b5b81811015611eaf57611ea45f82611e79565b600181019050611e92565b5050565b601f821115611ef457611ec581611d9f565b611ece84611db1565b81016020851015611edd578190505b611ef1611ee985611db1565b830182611e91565b50505b505050565b5f82821c905092915050565b5f611f145f1984600802611ef9565b1980831691505092915050565b5f611f2c8383611f05565b9150826002028217905092915050565b611f4582611359565b67ffffffffffffffff811115611f5e57611f5d6114b3565b5b611f68825461191a565b611f73828285611eb3565b5f60209050601f831160018114611fa4575f8415611f92578287015190505b611f9c8582611f21565b865550612003565b601f198416611fb286611d9f565b5f5b82811015611fd957848901518255600182019150602085019450602081019050611fb4565b86831015611ff65784890151611ff2601f891682611f05565b8355505b6001600288020188555050505b505050505050565b5f60808201905061201e5f83018761133b565b61202b602083018661134a565b818103604083015261203d8185611391565b905061204c606083018461133b565b95945050505050565b5f61205f826112ca565b915061206a836112ca565b925082820190508082111561208257612081611bf1565b5b9291505056fea2646970667358221220dfdde242e67a97e55ac2f07f246c5143c473f4c4b784939c7770a4fadfb10ec764736f6c634300081a0033",
					"opcodes": "PUSH1 0x80 PUSH1 0x40 MSTORE PUSH2 0x118 PUSH0 PUSH1 0x14 PUSH2 0x100 EXP DUP2 SLOAD DUP2 PUSH2 0xFFFF MUL NOT AND SWAP1 DUP4 PUSH2 0xFFFF AND MUL OR SWAP1 SSTORE POP CALLVALUE DUP1 ISZERO PUSH2 0x2D JUMPI PUSH0 DUP1 REVERT JUMPDEST POP PUSH1 0x40 MLOAD PUSH2 0x2353 CODESIZE SUB DUP1 PUSH2 0x2353 DUP4 CODECOPY DUP2 DUP2 ADD PUSH1 0x40 MSTORE DUP2 ADD SWAP1 PUSH2 0x4F SWAP2 SWAP1 PUSH2 0x235 JUMP JUMPDEST CALLER PUSH0 PUSH20 0xFFFFFFFFFFFFFFFFFFFFFFFFFFFFFFFFFFFFFFFF AND DUP2 PUSH20 0xFFFFFFFFFFFFFFFFFFFFFFFFFFFFFFFFFFFFFFFF AND SUB PUSH2 0xC0 JUMPI PUSH0 PUSH1 0x40 MLOAD PUSH32 0x1E4FBDF700000000000000000000000000000000000000000000000000000000 DUP2 MSTORE PUSH1 0x4 ADD PUSH2 0xB7 SWAP2 SWAP1 PUSH2 0x26F JUMP JUMPDEST PUSH1 0x40 MLOAD DUP1 SWAP2 SUB SWAP1 REVERT JUMPDEST PUSH2 0xCF DUP2 PUSH2 0x116 PUSH1 0x20 SHL PUSH1 0x20 SHR JUMP JUMPDEST POP DUP1 PUSH1 0x2 PUSH0 PUSH2 0x100 EXP DUP2 SLOAD DUP2 PUSH20 0xFFFFFFFFFFFFFFFFFFFFFFFFFFFFFFFFFFFFFFFF MUL NOT AND SWAP1 DUP4 PUSH20 0xFFFFFFFFFFFFFFFFFFFFFFFFFFFFFFFFFFFFFFFF AND MUL OR SWAP1 SSTORE POP POP PUSH2 0x288 JUMP JUMPDEST PUSH0 DUP1 PUSH0 SWAP1 SLOAD SWAP1 PUSH2 0x100 EXP SWAP1 DIV PUSH20 0xFFFFFFFFFFFFFFFFFFFFFFFFFFFFFFFFFFFFFFFF AND SWAP1 POP DUP2 PUSH0 DUP1 PUSH2 0x100 EXP DUP2 SLOAD DUP2 PUSH20 0xFFFFFFFFFFFFFFFFFFFFFFFFFFFFFFFFFFFFFFFF MUL NOT AND SWAP1 DUP4 PUSH20 0xFFFFFFFFFFFFFFFFFFFFFFFFFFFFFFFFFFFFFFFF AND MUL OR SWAP1 SSTORE POP DUP2 PUSH20 0xFFFFFFFFFFFFFFFFFFFFFFFFFFFFFFFFFFFFFFFF AND DUP2 PUSH20 0xFFFFFFFFFFFFFFFFFFFFFFFFFFFFFFFFFFFFFFFF AND PUSH32 0x8BE0079C531659141344CD1FD0A4F28419497F9722A3DAAFE3B4186F6B6457E0 PUSH1 0x40 MLOAD PUSH1 0x40 MLOAD DUP1 SWAP2 SUB SWAP1 LOG3 POP POP JUMP JUMPDEST PUSH0 DUP1 REVERT JUMPDEST PUSH0 PUSH20 0xFFFFFFFFFFFFFFFFFFFFFFFFFFFFFFFFFFFFFFFF DUP3 AND SWAP1 POP SWAP2 SWAP1 POP JUMP JUMPDEST PUSH0 PUSH2 0x204 DUP3 PUSH2 0x1DB JUMP JUMPDEST SWAP1 POP SWAP2 SWAP1 POP JUMP JUMPDEST PUSH2 0x214 DUP2 PUSH2 0x1FA JUMP JUMPDEST DUP2 EQ PUSH2 0x21E JUMPI PUSH0 DUP1 REVERT JUMPDEST POP JUMP JUMPDEST PUSH0 DUP2 MLOAD SWAP1 POP PUSH2 0x22F DUP2 PUSH2 0x20B JUMP JUMPDEST SWAP3 SWAP2 POP POP JUMP JUMPDEST PUSH0 PUSH1 0x20 DUP3 DUP5 SUB SLT ISZERO PUSH2 0x24A JUMPI PUSH2 0x249 PUSH2 0x1D7 JUMP JUMPDEST JUMPDEST PUSH0 PUSH2 0x257 DUP5 DUP3 DUP6 ADD PUSH2 0x221 JUMP JUMPDEST SWAP2 POP POP SWAP3 SWAP2 POP POP JUMP JUMPDEST PUSH2 0x269 DUP2 PUSH2 0x1FA JUMP JUMPDEST DUP3 MSTORE POP POP JUMP JUMPDEST PUSH0 PUSH1 0x20 DUP3 ADD SWAP1 POP PUSH2 0x282 PUSH0 DUP4 ADD DUP5 PUSH2 0x260 JUMP JUMPDEST SWAP3 SWAP2 POP POP JUMP JUMPDEST PUSH2 0x20BE DUP1 PUSH2 0x295 PUSH0 CODECOPY PUSH0 RETURN INVALID PUSH1 0x80 PUSH1 0x40 MSTORE CALLVALUE DUP1 ISZERO PUSH2 0xF JUMPI PUSH0 DUP1 REVERT JUMPDEST POP PUSH1 0x4 CALLDATASIZE LT PUSH2 0xB2 JUMPI PUSH0 CALLDATALOAD PUSH1 0xE0 SHR DUP1 PUSH4 0x7C9CD2BC GT PUSH2 0x6F JUMPI DUP1 PUSH4 0x7C9CD2BC EQ PUSH2 0x166 JUMPI DUP1 PUSH4 0x820785CC EQ PUSH2 0x182 JUMPI DUP1 PUSH4 0x8DA5CB5B EQ PUSH2 0x1B2 JUMPI DUP1 PUSH4 0x9FEDC6AA EQ PUSH2 0x1D0 JUMPI DUP1 PUSH4 0xC3AD5ECB EQ PUSH2 0x200 JUMPI DUP1 PUSH4 0xF2FDE38B EQ PUSH2 0x230 JUMPI PUSH2 0xB2 JUMP JUMPDEST DUP1 PUSH4 0x5A1B4A9 EQ PUSH2 0xB6 JUMPI DUP1 PUSH4 0x2B82B1B6 EQ PUSH2 0xEA JUMPI DUP1 PUSH4 0x3D9B569F EQ PUSH2 0x108 JUMPI DUP1 PUSH4 0x58BFA4AB EQ PUSH2 0x124 JUMPI DUP1 PUSH4 0x63378216 EQ PUSH2 0x140 JUMPI DUP1 PUSH4 0x715018A6 EQ PUSH2 0x15C JUMPI JUMPDEST PUSH0 DUP1 REVERT JUMPDEST PUSH2 0xD0 PUSH1 0x4 DUP1 CALLDATASIZE SUB DUP2 ADD SWAP1 PUSH2 0xCB SWAP2 SWAP1 PUSH2 0x12FD JUMP JUMPDEST PUSH2 0x24C JUMP JUMPDEST PUSH1 0x40 MLOAD PUSH2 0xE1 SWAP6 SWAP5 SWAP4 SWAP3 SWAP2 SWAP1 PUSH2 0x13C9 JUMP JUMPDEST PUSH1 0x40 MLOAD DUP1 SWAP2 SUB SWAP1 RETURN JUMPDEST PUSH2 0xF2 PUSH2 0x33D JUMP JUMPDEST PUSH1 0x40 MLOAD PUSH2 0xFF SWAP2 SWAP1 PUSH2 0x143D JUMP JUMPDEST PUSH1 0x40 MLOAD DUP1 SWAP2 SUB SWAP1 RETURN JUMPDEST PUSH2 0x122 PUSH1 0x4 DUP1 CALLDATASIZE SUB DUP2 ADD SWAP1 PUSH2 0x11D SWAP2 SWAP1 PUSH2 0x12FD JUMP JUMPDEST PUSH2 0x350 JUMP JUMPDEST STOP JUMPDEST PUSH2 0x13E PUSH1 0x4 DUP1 CALLDATASIZE SUB DUP2 ADD SWAP1 PUSH2 0x139 SWAP2 SWAP1 PUSH2 0x1480 JUMP JUMPDEST PUSH2 0x687 JUMP JUMPDEST STOP JUMPDEST PUSH2 0x15A PUSH1 0x4 DUP1 CALLDATASIZE SUB DUP2 ADD SWAP1 PUSH2 0x155 SWAP2 SWAP1 PUSH2 0x12FD JUMP JUMPDEST PUSH2 0x6AE JUMP JUMPDEST STOP JUMPDEST PUSH2 0x164 PUSH2 0x945 JUMP JUMPDEST STOP JUMPDEST PUSH2 0x180 PUSH1 0x4 DUP1 CALLDATASIZE SUB DUP2 ADD SWAP1 PUSH2 0x17B SWAP2 SWAP1 PUSH2 0x15D7 JUMP JUMPDEST PUSH2 0x958 JUMP JUMPDEST STOP JUMPDEST PUSH2 0x19C PUSH1 0x4 DUP1 CALLDATASIZE SUB DUP2 ADD SWAP1 PUSH2 0x197 SWAP2 SWAP1 PUSH2 0x161E JUMP JUMPDEST PUSH2 0xC43 JUMP JUMPDEST PUSH1 0x40 MLOAD PUSH2 0x1A9 SWAP2 SWAP1 PUSH2 0x1649 JUMP JUMPDEST PUSH1 0x40 MLOAD DUP1 SWAP2 SUB SWAP1 RETURN JUMPDEST PUSH2 0x1BA PUSH2 0xD12 JUMP JUMPDEST PUSH1 0x40 MLOAD PUSH2 0x1C7 SWAP2 SWAP1 PUSH2 0x1662 JUMP JUMPDEST PUSH1 0x40 MLOAD DUP1 SWAP2 SUB SWAP1 RETURN JUMPDEST PUSH2 0x1EA PUSH1 0x4 DUP1 CALLDATASIZE SUB DUP2 ADD SWAP1 PUSH2 0x1E5 SWAP2 SWAP1 PUSH2 0x161E JUMP JUMPDEST PUSH2 0xD39 JUMP JUMPDEST PUSH1 0x40 MLOAD PUSH2 0x1F7 SWAP2 SWAP1 PUSH2 0x180F JUMP JUMPDEST PUSH1 0x40 MLOAD DUP1 SWAP2 SUB SWAP1 RETURN JUMPDEST PUSH2 0x21A PUSH1 0x4 DUP1 CALLDATASIZE SUB DUP2 ADD SWAP1 PUSH2 0x215 SWAP2 SWAP1 PUSH2 0x182F JUMP JUMPDEST PUSH2 0xED4 JUMP JUMPDEST PUSH1 0x40 MLOAD PUSH2 0x227 SWAP2 SWAP1 PUSH2 0x18CD JUMP JUMPDEST PUSH1 0x40 MLOAD DUP1 SWAP2 SUB SWAP1 RETURN JUMPDEST PUSH2 0x24A PUSH1 0x4 DUP1 CALLDATASIZE SUB DUP2 ADD SWAP1 PUSH2 0x245 SWAP2 SWAP1 PUSH2 0x161E JUMP JUMPDEST PUSH2 0x104B JUMP JUMPDEST STOP JUMPDEST PUSH1 0x1 PUSH1 0x20 MSTORE DUP2 PUSH0 MSTORE PUSH1 0x40 PUSH0 KECCAK256 DUP2 DUP2 SLOAD DUP2 LT PUSH2 0x265 JUMPI PUSH0 DUP1 REVERT JUMPDEST SWAP1 PUSH0 MSTORE PUSH1 0x20 PUSH0 KECCAK256 SWAP1 PUSH1 0x5 MUL ADD PUSH0 SWAP2 POP SWAP2 POP POP DUP1 PUSH0 ADD SLOAD SWAP1 DUP1 PUSH1 0x1 ADD PUSH0 SWAP1 SLOAD SWAP1 PUSH2 0x100 EXP SWAP1 DIV PUSH20 0xFFFFFFFFFFFFFFFFFFFFFFFFFFFFFFFFFFFFFFFF AND SWAP1 DUP1 PUSH1 0x2 ADD DUP1 SLOAD PUSH2 0x2B0 SWAP1 PUSH2 0x191A JUMP JUMPDEST DUP1 PUSH1 0x1F ADD PUSH1 0x20 DUP1 SWAP2 DIV MUL PUSH1 0x20 ADD PUSH1 0x40 MLOAD SWAP1 DUP2 ADD PUSH1 0x40 MSTORE DUP1 SWAP3 SWAP2 SWAP1 DUP2 DUP2 MSTORE PUSH1 0x20 ADD DUP3 DUP1 SLOAD PUSH2 0x2DC SWAP1 PUSH2 0x191A JUMP JUMPDEST DUP1 ISZERO PUSH2 0x327 JUMPI DUP1 PUSH1 0x1F LT PUSH2 0x2FE JUMPI PUSH2 0x100 DUP1 DUP4 SLOAD DIV MUL DUP4 MSTORE SWAP2 PUSH1 0x20 ADD SWAP2 PUSH2 0x327 JUMP JUMPDEST DUP3 ADD SWAP2 SWAP1 PUSH0 MSTORE PUSH1 0x20 PUSH0 KECCAK256 SWAP1 JUMPDEST DUP2 SLOAD DUP2 MSTORE SWAP1 PUSH1 0x1 ADD SWAP1 PUSH1 0x20 ADD DUP1 DUP4 GT PUSH2 0x30A JUMPI DUP3 SWAP1 SUB PUSH1 0x1F AND DUP3 ADD SWAP2 JUMPDEST POP POP POP POP POP SWAP1 DUP1 PUSH1 0x3 ADD SLOAD SWAP1 DUP1 PUSH1 0x4 ADD SLOAD SWAP1 POP DUP6 JUMP JUMPDEST PUSH0 PUSH1 0x14 SWAP1 SLOAD SWAP1 PUSH2 0x100 EXP SWAP1 DIV PUSH2 0xFFFF AND DUP2 JUMP JUMPDEST PUSH0 PUSH1 0x2 PUSH0 SWAP1 SLOAD SWAP1 PUSH2 0x100 EXP SWAP1 DIV PUSH20 0xFFFFFFFFFFFFFFFFFFFFFFFFFFFFFFFFFFFFFFFF AND PUSH20 0xFFFFFFFFFFFFFFFFFFFFFFFFFFFFFFFFFFFFFFFF AND PUSH4 0xF53A470 CALLER PUSH1 0x40 MLOAD DUP3 PUSH4 0xFFFFFFFF AND PUSH1 0xE0 SHL DUP2 MSTORE PUSH1 0x4 ADD PUSH2 0x3AB SWAP2 SWAP1 PUSH2 0x1662 JUMP JUMPDEST PUSH0 PUSH1 0x40 MLOAD DUP1 DUP4 SUB DUP2 DUP7 GAS STATICCALL ISZERO DUP1 ISZERO PUSH2 0x3C5 JUMPI RETURNDATASIZE PUSH0 DUP1 RETURNDATACOPY RETURNDATASIZE PUSH0 REVERT JUMPDEST POP POP POP POP PUSH1 0x40 MLOAD RETURNDATASIZE PUSH0 DUP3 RETURNDATACOPY RETURNDATASIZE PUSH1 0x1F NOT PUSH1 0x1F DUP3 ADD AND DUP3 ADD DUP1 PUSH1 0x40 MSTORE POP DUP2 ADD SWAP1 PUSH2 0x3ED SWAP2 SWAP1 PUSH2 0x1A45 JUMP JUMPDEST SWAP1 POP PUSH0 DUP2 PUSH0 ADD MLOAD MLOAD GT PUSH2 0x435 JUMPI PUSH1 0x40 MLOAD PUSH32 0x8C379A000000000000000000000000000000000000000000000000000000000 DUP2 MSTORE PUSH1 0x4 ADD PUSH2 0x42C SWAP1 PUSH2 0x1AD6 JUMP JUMPDEST PUSH1 0x40 MLOAD DUP1 SWAP2 SUB SWAP1 REVERT JUMPDEST DUP2 PUSH1 0x1 PUSH0 DUP6 PUSH20 0xFFFFFFFFFFFFFFFFFFFFFFFFFFFFFFFFFFFFFFFF AND PUSH20 0xFFFFFFFFFFFFFFFFFFFFFFFFFFFFFFFFFFFFFFFF AND DUP2 MSTORE PUSH1 0x20 ADD SWAP1 DUP2 MSTORE PUSH1 0x20 ADD PUSH0 KECCAK256 DUP4 DUP2 SLOAD DUP2 LT PUSH2 0x485 JUMPI PUSH2 0x484 PUSH2 0x1AF4 JUMP JUMPDEST JUMPDEST SWAP1 PUSH0 MSTORE PUSH1 0x20 PUSH0 KECCAK256 SWAP1 PUSH1 0x5 MUL ADD PUSH0 ADD SLOAD EQ PUSH2 0x4D4 JUMPI PUSH1 0x40 MLOAD PUSH32 0x8C379A000000000000000000000000000000000000000000000000000000000 DUP2 MSTORE PUSH1 0x4 ADD PUSH2 0x4CB SWAP1 PUSH2 0x1B6B JUMP JUMPDEST PUSH1 0x40 MLOAD DUP1 SWAP2 SUB SWAP1 REVERT JUMPDEST PUSH0 PUSH1 0x1 PUSH0 DUP6 PUSH20 0xFFFFFFFFFFFFFFFFFFFFFFFFFFFFFFFFFFFFFFFF AND PUSH20 0xFFFFFFFFFFFFFFFFFFFFFFFFFFFFFFFFFFFFFFFF AND DUP2 MSTORE PUSH1 0x20 ADD SWAP1 DUP2 MSTORE PUSH1 0x20 ADD PUSH0 KECCAK256 DUP4 DUP2 SLOAD DUP2 LT PUSH2 0x524 JUMPI PUSH2 0x523 PUSH2 0x1AF4 JUMP JUMPDEST JUMPDEST SWAP1 PUSH0 MSTORE PUSH1 0x20 PUSH0 KECCAK256 SWAP1 PUSH1 0x5 MUL ADD PUSH1 0x4 ADD SLOAD GT PUSH2 0x574 JUMPI PUSH1 0x40 MLOAD PUSH32 0x8C379A000000000000000000000000000000000000000000000000000000000 DUP2 MSTORE PUSH1 0x4 ADD PUSH2 0x56B SWAP1 PUSH2 0x1BD3 JUMP JUMPDEST PUSH1 0x40 MLOAD DUP1 SWAP2 SUB SWAP1 REVERT JUMPDEST PUSH1 0x1 PUSH0 DUP5 PUSH20 0xFFFFFFFFFFFFFFFFFFFFFFFFFFFFFFFFFFFFFFFF AND PUSH20 0xFFFFFFFFFFFFFFFFFFFFFFFFFFFFFFFFFFFFFFFF AND DUP2 MSTORE PUSH1 0x20 ADD SWAP1 DUP2 MSTORE PUSH1 0x20 ADD PUSH0 KECCAK256 DUP3 DUP2 SLOAD DUP2 LT PUSH2 0x5C3 JUMPI PUSH2 0x5C2 PUSH2 0x1AF4 JUMP JUMPDEST JUMPDEST SWAP1 PUSH0 MSTORE PUSH1 0x20 PUSH0 KECCAK256 SWAP1 PUSH1 0x5 MUL ADD PUSH1 0x4 ADD PUSH0 DUP2 SLOAD DUP1 SWAP3 SWAP2 SWAP1 PUSH2 0x5E2 SWAP1 PUSH2 0x1C1E JUMP JUMPDEST SWAP2 SWAP1 POP SSTORE POP PUSH32 0x762C2616349603AC16EBA0DE8E6141B79129A07AB63BD99E0A80B3A471716943 CALLER DUP5 DUP5 PUSH1 0x1 PUSH0 DUP9 PUSH20 0xFFFFFFFFFFFFFFFFFFFFFFFFFFFFFFFFFFFFFFFF AND PUSH20 0xFFFFFFFFFFFFFFFFFFFFFFFFFFFFFFFFFFFFFFFF AND DUP2 MSTORE PUSH1 0x20 ADD SWAP1 DUP2 MSTORE PUSH1 0x20 ADD PUSH0 KECCAK256 DUP7 DUP2 SLOAD DUP2 LT PUSH2 0x65A JUMPI PUSH2 0x659 PUSH2 0x1AF4 JUMP JUMPDEST JUMPDEST SWAP1 PUSH0 MSTORE PUSH1 0x20 PUSH0 KECCAK256 SWAP1 PUSH1 0x5 MUL ADD PUSH1 0x4 ADD SLOAD PUSH1 0x40 MLOAD PUSH2 0x67A SWAP5 SWAP4 SWAP3 SWAP2 SWAP1 PUSH2 0x1C45 JUMP JUMPDEST PUSH1 0x40 MLOAD DUP1 SWAP2 SUB SWAP1 LOG1 POP POP POP JUMP JUMPDEST PUSH2 0x68F PUSH2 0x10CF JUMP JUMPDEST DUP1 PUSH0 PUSH1 0x14 PUSH2 0x100 EXP DUP2 SLOAD DUP2 PUSH2 0xFFFF MUL NOT AND SWAP1 DUP4 PUSH2 0xFFFF AND MUL OR SWAP1 SSTORE POP POP JUMP JUMPDEST PUSH0 PUSH1 0x2 PUSH0 SWAP1 SLOAD SWAP1 PUSH2 0x100 EXP SWAP1 DIV PUSH20 0xFFFFFFFFFFFFFFFFFFFFFFFFFFFFFFFFFFFFFFFF AND PUSH20 0xFFFFFFFFFFFFFFFFFFFFFFFFFFFFFFFFFFFFFFFF AND PUSH4 0xF53A470 CALLER PUSH1 0x40 MLOAD DUP3 PUSH4 0xFFFFFFFF AND PUSH1 0xE0 SHL DUP2 MSTORE PUSH1 0x4 ADD PUSH2 0x709 SWAP2 SWAP1 PUSH2 0x1662 JUMP JUMPDEST PUSH0 PUSH1 0x40 MLOAD DUP1 DUP4 SUB DUP2 DUP7 GAS STATICCALL ISZERO DUP1 ISZERO PUSH2 0x723 JUMPI RETURNDATASIZE PUSH0 DUP1 RETURNDATACOPY RETURNDATASIZE PUSH0 REVERT JUMPDEST POP POP POP POP PUSH1 0x40 MLOAD RETURNDATASIZE PUSH0 DUP3 RETURNDATACOPY RETURNDATASIZE PUSH1 0x1F NOT PUSH1 0x1F DUP3 ADD AND DUP3 ADD DUP1 PUSH1 0x40 MSTORE POP DUP2 ADD SWAP1 PUSH2 0x74B SWAP2 SWAP1 PUSH2 0x1A45 JUMP JUMPDEST SWAP1 POP PUSH0 DUP2 PUSH0 ADD MLOAD MLOAD GT PUSH2 0x793 JUMPI PUSH1 0x40 MLOAD PUSH32 0x8C379A000000000000000000000000000000000000000000000000000000000 DUP2 MSTORE PUSH1 0x4 ADD PUSH2 0x78A SWAP1 PUSH2 0x1AD6 JUMP JUMPDEST PUSH1 0x40 MLOAD DUP1 SWAP2 SUB SWAP1 REVERT JUMPDEST DUP2 PUSH1 0x1 PUSH0 DUP6 PUSH20 0xFFFFFFFFFFFFFFFFFFFFFFFFFFFFFFFFFFFFFFFF AND PUSH20 0xFFFFFFFFFFFFFFFFFFFFFFFFFFFFFFFFFFFFFFFF AND DUP2 MSTORE PUSH1 0x20 ADD SWAP1 DUP2 MSTORE PUSH1 0x20 ADD PUSH0 KECCAK256 DUP4 DUP2 SLOAD DUP2 LT PUSH2 0x7E3 JUMPI PUSH2 0x7E2 PUSH2 0x1AF4 JUMP JUMPDEST JUMPDEST SWAP1 PUSH0 MSTORE PUSH1 0x20 PUSH0 KECCAK256 SWAP1 PUSH1 0x5 MUL ADD PUSH0 ADD SLOAD EQ PUSH2 0x832 JUMPI PUSH1 0x40 MLOAD PUSH32 0x8C379A000000000000000000000000000000000000000000000000000000000 DUP2 MSTORE PUSH1 0x4 ADD PUSH2 0x829 SWAP1 PUSH2 0x1CD2 JUMP JUMPDEST PUSH1 0x40 MLOAD DUP1 SWAP2 SUB SWAP1 REVERT JUMPDEST PUSH1 0x1 PUSH0 DUP5 PUSH20 0xFFFFFFFFFFFFFFFFFFFFFFFFFFFFFFFFFFFFFFFF AND PUSH20 0xFFFFFFFFFFFFFFFFFFFFFFFFFFFFFFFFFFFFFFFF AND DUP2 MSTORE PUSH1 0x20 ADD SWAP1 DUP2 MSTORE PUSH1 0x20 ADD PUSH0 KECCAK256 DUP3 DUP2 SLOAD DUP2 LT PUSH2 0x881 JUMPI PUSH2 0x880 PUSH2 0x1AF4 JUMP JUMPDEST JUMPDEST SWAP1 PUSH0 MSTORE PUSH1 0x20 PUSH0 KECCAK256 SWAP1 PUSH1 0x5 MUL ADD PUSH1 0x4 ADD PUSH0 DUP2 SLOAD DUP1 SWAP3 SWAP2 SWAP1 PUSH2 0x8A0 SWAP1 PUSH2 0x1CF0 JUMP JUMPDEST SWAP2 SWAP1 POP SSTORE POP PUSH32 0xE8A76FC0F16D11A00D1E93B689B63D76CF60AF914DD3D915375DC41D01A0C3C8 CALLER DUP5 DUP5 PUSH1 0x1 PUSH0 DUP9 PUSH20 0xFFFFFFFFFFFFFFFFFFFFFFFFFFFFFFFFFFFFFFFF AND PUSH20 0xFFFFFFFFFFFFFFFFFFFFFFFFFFFFFFFFFFFFFFFF AND DUP2 MSTORE PUSH1 0x20 ADD SWAP1 DUP2 MSTORE PUSH1 0x20 ADD PUSH0 KECCAK256 DUP7 DUP2 SLOAD DUP2 LT PUSH2 0x918 JUMPI PUSH2 0x917 PUSH2 0x1AF4 JUMP JUMPDEST JUMPDEST SWAP1 PUSH0 MSTORE PUSH1 0x20 PUSH0 KECCAK256 SWAP1 PUSH1 0x5 MUL ADD PUSH1 0x4 ADD SLOAD PUSH1 0x40 MLOAD PUSH2 0x938 SWAP5 SWAP4 SWAP3 SWAP2 SWAP1 PUSH2 0x1C45 JUMP JUMPDEST PUSH1 0x40 MLOAD DUP1 SWAP2 SUB SWAP1 LOG1 POP POP POP JUMP JUMPDEST PUSH2 0x94D PUSH2 0x10CF JUMP JUMPDEST PUSH2 0x956 PUSH0 PUSH2 0x1156 JUMP JUMPDEST JUMP JUMPDEST PUSH0 PUSH1 0x2 PUSH0 SWAP1 SLOAD SWAP1 PUSH2 0x100 EXP SWAP1 DIV PUSH20 0xFFFFFFFFFFFFFFFFFFFFFFFFFFFFFFFFFFFFFFFF AND PUSH20 0xFFFFFFFFFFFFFFFFFFFFFFFFFFFFFFFFFFFFFFFF AND PUSH4 0xF53A470 CALLER PUSH1 0x40 MLOAD DUP3 PUSH4 0xFFFFFFFF AND PUSH1 0xE0 SHL DUP2 MSTORE PUSH1 0x4 ADD PUSH2 0x9B3 SWAP2 SWAP1 PUSH2 0x1662 JUMP JUMPDEST PUSH0 PUSH1 0x40 MLOAD DUP1 DUP4 SUB DUP2 DUP7 GAS STATICCALL ISZERO DUP1 ISZERO PUSH2 0x9CD JUMPI RETURNDATASIZE PUSH0 DUP1 RETURNDATACOPY RETURNDATASIZE PUSH0 REVERT JUMPDEST POP POP POP POP PUSH1 0x40 MLOAD RETURNDATASIZE PUSH0 DUP3 RETURNDATACOPY RETURNDATASIZE PUSH1 0x1F NOT PUSH1 0x1F DUP3 ADD AND DUP3 ADD DUP1 PUSH1 0x40 MSTORE POP DUP2 ADD SWAP1 PUSH2 0x9F5 SWAP2 SWAP1 PUSH2 0x1A45 JUMP JUMPDEST SWAP1 POP PUSH0 DUP2 PUSH0 ADD MLOAD MLOAD GT PUSH2 0xA3D JUMPI PUSH1 0x40 MLOAD PUSH32 0x8C379A000000000000000000000000000000000000000000000000000000000 DUP2 MSTORE PUSH1 0x4 ADD PUSH2 0xA34 SWAP1 PUSH2 0x1AD6 JUMP JUMPDEST PUSH1 0x40 MLOAD DUP1 SWAP2 SUB SWAP1 REVERT JUMPDEST PUSH0 PUSH1 0x14 SWAP1 SLOAD SWAP1 PUSH2 0x100 EXP SWAP1 DIV PUSH2 0xFFFF AND PUSH2 0xFFFF AND DUP3 MLOAD GT ISZERO PUSH2 0xA94 JUMPI PUSH1 0x40 MLOAD PUSH32 0x8C379A000000000000000000000000000000000000000000000000000000000 DUP2 MSTORE PUSH1 0x4 ADD PUSH2 0xA8B SWAP1 PUSH2 0x1D81 JUMP JUMPDEST PUSH1 0x40 MLOAD DUP1 SWAP2 SUB SWAP1 REVERT JUMPDEST PUSH0 PUSH1 0x40 MLOAD DUP1 PUSH1 0xA0 ADD PUSH1 0x40 MSTORE DUP1 PUSH1 0x1 PUSH0 CALLER PUSH20 0xFFFFFFFFFFFFFFFFFFFFFFFFFFFFFFFFFFFFFFFF AND PUSH20 0xFFFFFFFFFFFFFFFFFFFFFFFFFFFFFFFFFFFFFFFF AND DUP2 MSTORE PUSH1 0x20 ADD SWAP1 DUP2 MSTORE PUSH1 0x20 ADD PUSH0 KECCAK256 DUP1 SLOAD SWAP1 POP DUP2 MSTORE PUSH1 0x20 ADD CALLER PUSH20 0xFFFFFFFFFFFFFFFFFFFFFFFFFFFFFFFFFFFFFFFF AND DUP2 MSTORE PUSH1 0x20 ADD DUP5 DUP2 MSTORE PUSH1 0x20 ADD TIMESTAMP DUP2 MSTORE PUSH1 0x20 ADD PUSH0 DUP2 MSTORE POP SWAP1 POP PUSH1 0x1 PUSH0 CALLER PUSH20 0xFFFFFFFFFFFFFFFFFFFFFFFFFFFFFFFFFFFFFFFF AND PUSH20 0xFFFFFFFFFFFFFFFFFFFFFFFFFFFFFFFFFFFFFFFF AND DUP2 MSTORE PUSH1 0x20 ADD SWAP1 DUP2 MSTORE PUSH1 0x20 ADD PUSH0 KECCAK256 DUP2 SWAP1 DUP1 PUSH1 0x1 DUP2 SLOAD ADD DUP1 DUP3 SSTORE DUP1 SWAP2 POP POP PUSH1 0x1 SWAP1 SUB SWAP1 PUSH0 MSTORE PUSH1 0x20 PUSH0 KECCAK256 SWAP1 PUSH1 0x5 MUL ADD PUSH0 SWAP1 SWAP2 SWAP1 SWAP2 SWAP1 SWAP2 POP PUSH0 DUP3 ADD MLOAD DUP2 PUSH0 ADD SSTORE PUSH1 0x20 DUP3 ADD MLOAD DUP2 PUSH1 0x1 ADD PUSH0 PUSH2 0x100 EXP DUP2 SLOAD DUP2 PUSH20 0xFFFFFFFFFFFFFFFFFFFFFFFFFFFFFFFFFFFFFFFF MUL NOT AND SWAP1 DUP4 PUSH20 0xFFFFFFFFFFFFFFFFFFFFFFFFFFFFFFFFFFFFFFFF AND MUL OR SWAP1 SSTORE POP PUSH1 0x40 DUP3 ADD MLOAD DUP2 PUSH1 0x2 ADD SWAP1 DUP2 PUSH2 0xBDB SWAP2 SWAP1 PUSH2 0x1F3C JUMP JUMPDEST POP PUSH1 0x60 DUP3 ADD MLOAD DUP2 PUSH1 0x3 ADD SSTORE PUSH1 0x80 DUP3 ADD MLOAD DUP2 PUSH1 0x4 ADD SSTORE POP POP PUSH32 0x16FD3C13E9D46923E0A8BCE11C7B473EC508A72E6C96CD2404B29CE972AFC29E DUP2 PUSH0 ADD MLOAD DUP3 PUSH1 0x20 ADD MLOAD DUP4 PUSH1 0x40 ADD MLOAD DUP5 PUSH1 0x60 ADD MLOAD PUSH1 0x40 MLOAD PUSH2 0xC36 SWAP5 SWAP4 SWAP3 SWAP2 SWAP1 PUSH2 0x200B JUMP JUMPDEST PUSH1 0x40 MLOAD DUP1 SWAP2 SUB SWAP1 LOG1 POP POP POP JUMP JUMPDEST PUSH0 DUP1 PUSH0 JUMPDEST PUSH1 0x1 PUSH0 DUP6 PUSH20 0xFFFFFFFFFFFFFFFFFFFFFFFFFFFFFFFFFFFFFFFF AND PUSH20 0xFFFFFFFFFFFFFFFFFFFFFFFFFFFFFFFFFFFFFFFF AND DUP2 MSTORE PUSH1 0x20 ADD SWAP1 DUP2 MSTORE PUSH1 0x20 ADD PUSH0 KECCAK256 DUP1 SLOAD SWAP1 POP DUP2 LT ISZERO PUSH2 0xD08 JUMPI PUSH1 0x1 PUSH0 DUP6 PUSH20 0xFFFFFFFFFFFFFFFFFFFFFFFFFFFFFFFFFFFFFFFF AND PUSH20 0xFFFFFFFFFFFFFFFFFFFFFFFFFFFFFFFFFFFFFFFF AND DUP2 MSTORE PUSH1 0x20 ADD SWAP1 DUP2 MSTORE PUSH1 0x20 ADD PUSH0 KECCAK256 DUP2 DUP2 SLOAD DUP2 LT PUSH2 0xCDE JUMPI PUSH2 0xCDD PUSH2 0x1AF4 JUMP JUMPDEST JUMPDEST SWAP1 PUSH0 MSTORE PUSH1 0x20 PUSH0 KECCAK256 SWAP1 PUSH1 0x5 MUL ADD PUSH1 0x4 ADD SLOAD DUP3 PUSH2 0xCF9 SWAP2 SWAP1 PUSH2 0x2055 JUMP JUMPDEST SWAP2 POP DUP1 DUP1 PUSH1 0x1 ADD SWAP2 POP POP PUSH2 0xC47 JUMP JUMPDEST POP DUP1 SWAP2 POP POP SWAP2 SWAP1 POP JUMP JUMPDEST PUSH0 DUP1 PUSH0 SWAP1 SLOAD SWAP1 PUSH2 0x100 EXP SWAP1 DIV PUSH20 0xFFFFFFFFFFFFFFFFFFFFFFFFFFFFFFFFFFFFFFFF AND SWAP1 POP SWAP1 JUMP JUMPDEST PUSH1 0x60 PUSH1 0x1 PUSH0 DUP4 PUSH20 0xFFFFFFFFFFFFFFFFFFFFFFFFFFFFFFFFFFFFFFFF AND PUSH20 0xFFFFFFFFFFFFFFFFFFFFFFFFFFFFFFFFFFFFFFFF AND DUP2 MSTORE PUSH1 0x20 ADD SWAP1 DUP2 MSTORE PUSH1 0x20 ADD PUSH0 KECCAK256 DUP1 SLOAD DUP1 PUSH1 0x20 MUL PUSH1 0x20 ADD PUSH1 0x40 MLOAD SWAP1 DUP2 ADD PUSH1 0x40 MSTORE DUP1 SWAP3 SWAP2 SWAP1 DUP2 DUP2 MSTORE PUSH1 0x20 ADD PUSH0 SWAP1 JUMPDEST DUP3 DUP3 LT ISZERO PUSH2 0xEC9 JUMPI DUP4 DUP3 SWAP1 PUSH0 MSTORE PUSH1 0x20 PUSH0 KECCAK256 SWAP1 PUSH1 0x5 MUL ADD PUSH1 0x40 MLOAD DUP1 PUSH1 0xA0 ADD PUSH1 0x40 MSTORE SWAP1 DUP2 PUSH0 DUP3 ADD SLOAD DUP2 MSTORE PUSH1 0x20 ADD PUSH1 0x1 DUP3 ADD PUSH0 SWAP1 SLOAD SWAP1 PUSH2 0x100 EXP SWAP1 DIV PUSH20 0xFFFFFFFFFFFFFFFFFFFFFFFFFFFFFFFFFFFFFFFF AND PUSH20 0xFFFFFFFFFFFFFFFFFFFFFFFFFFFFFFFFFFFFFFFF AND PUSH20 0xFFFFFFFFFFFFFFFFFFFFFFFFFFFFFFFFFFFFFFFF AND DUP2 MSTORE PUSH1 0x20 ADD PUSH1 0x2 DUP3 ADD DUP1 SLOAD PUSH2 0xE26 SWAP1 PUSH2 0x191A JUMP JUMPDEST DUP1 PUSH1 0x1F ADD PUSH1 0x20 DUP1 SWAP2 DIV MUL PUSH1 0x20 ADD PUSH1 0x40 MLOAD SWAP1 DUP2 ADD PUSH1 0x40 MSTORE DUP1 SWAP3 SWAP2 SWAP1 DUP2 DUP2 MSTORE PUSH1 0x20 ADD DUP3 DUP1 SLOAD PUSH2 0xE52 SWAP1 PUSH2 0x191A JUMP JUMPDEST DUP1 ISZERO PUSH2 0xE9D JUMPI DUP1 PUSH1 0x1F LT PUSH2 0xE74 JUMPI PUSH2 0x100 DUP1 DUP4 SLOAD DIV MUL DUP4 MSTORE SWAP2 PUSH1 0x20 ADD SWAP2 PUSH2 0xE9D JUMP JUMPDEST DUP3 ADD SWAP2 SWAP1 PUSH0 MSTORE PUSH1 0x20 PUSH0 KECCAK256 SWAP1 JUMPDEST DUP2 SLOAD DUP2 MSTORE SWAP1 PUSH1 0x1 ADD SWAP1 PUSH1 0x20 ADD DUP1 DUP4 GT PUSH2 0xE80 JUMPI DUP3 SWAP1 SUB PUSH1 0x1F AND DUP3 ADD SWAP2 JUMPDEST POP POP POP POP POP DUP2 MSTORE PUSH1 0x20 ADD PUSH1 0x3 DUP3 ADD SLOAD DUP2 MSTORE PUSH1 0x20 ADD PUSH1 0x4 DUP3 ADD SLOAD DUP2 MSTORE POP POP DUP2 MSTORE PUSH1 0x20 ADD SWAP1 PUSH1 0x1 ADD SWAP1 PUSH2 0xD97 JUMP JUMPDEST POP POP POP POP SWAP1 POP SWAP2 SWAP1 POP JUMP JUMPDEST PUSH2 0xEDC PUSH2 0x121E JUMP JUMPDEST PUSH1 0x1 PUSH0 CALLER PUSH20 0xFFFFFFFFFFFFFFFFFFFFFFFFFFFFFFFFFFFFFFFF AND PUSH20 0xFFFFFFFFFFFFFFFFFFFFFFFFFFFFFFFFFFFFFFFF AND DUP2 MSTORE PUSH1 0x20 ADD SWAP1 DUP2 MSTORE PUSH1 0x20 ADD PUSH0 KECCAK256 DUP3 DUP2 SLOAD DUP2 LT PUSH2 0xF2B JUMPI PUSH2 0xF2A PUSH2 0x1AF4 JUMP JUMPDEST JUMPDEST SWAP1 PUSH0 MSTORE PUSH1 0x20 PUSH0 KECCAK256 SWAP1 PUSH1 0x5 MUL ADD PUSH1 0x40 MLOAD DUP1 PUSH1 0xA0 ADD PUSH1 0x40 MSTORE SWAP1 DUP2 PUSH0 DUP3 ADD SLOAD DUP2 MSTORE PUSH1 0x20 ADD PUSH1 0x1 DUP3 ADD PUSH0 SWAP1 SLOAD SWAP1 PUSH2 0x100 EXP SWAP1 DIV PUSH20 0xFFFFFFFFFFFFFFFFFFFFFFFFFFFFFFFFFFFFFFFF AND PUSH20 0xFFFFFFFFFFFFFFFFFFFFFFFFFFFFFFFFFFFFFFFF AND PUSH20 0xFFFFFFFFFFFFFFFFFFFFFFFFFFFFFFFFFFFFFFFF AND DUP2 MSTORE PUSH1 0x20 ADD PUSH1 0x2 DUP3 ADD DUP1 SLOAD PUSH2 0xFB0 SWAP1 PUSH2 0x191A JUMP JUMPDEST DUP1 PUSH1 0x1F ADD PUSH1 0x20 DUP1 SWAP2 DIV MUL PUSH1 0x20 ADD PUSH1 0x40 MLOAD SWAP1 DUP2 ADD PUSH1 0x40 MSTORE DUP1 SWAP3 SWAP2 SWAP1 DUP2 DUP2 MSTORE PUSH1 0x20 ADD DUP3 DUP1 SLOAD PUSH2 0xFDC SWAP1 PUSH2 0x191A JUMP JUMPDEST DUP1 ISZERO PUSH2 0x1027 JUMPI DUP1 PUSH1 0x1F LT PUSH2 0xFFE JUMPI PUSH2 0x100 DUP1 DUP4 SLOAD DIV MUL DUP4 MSTORE SWAP2 PUSH1 0x20 ADD SWAP2 PUSH2 0x1027 JUMP JUMPDEST DUP3 ADD SWAP2 SWAP1 PUSH0 MSTORE PUSH1 0x20 PUSH0 KECCAK256 SWAP1 JUMPDEST DUP2 SLOAD DUP2 MSTORE SWAP1 PUSH1 0x1 ADD SWAP1 PUSH1 0x20 ADD DUP1 DUP4 GT PUSH2 0x100A JUMPI DUP3 SWAP1 SUB PUSH1 0x1F AND DUP3 ADD SWAP2 JUMPDEST POP POP POP POP POP DUP2 MSTORE PUSH1 0x20 ADD PUSH1 0x3 DUP3 ADD SLOAD DUP2 MSTORE PUSH1 0x20 ADD PUSH1 0x4 DUP3 ADD SLOAD DUP2 MSTORE POP POP SWAP1 POP SWAP2 SWAP1 POP JUMP JUMPDEST PUSH2 0x1053 PUSH2 0x10CF JUMP JUMPDEST PUSH0 PUSH20 0xFFFFFFFFFFFFFFFFFFFFFFFFFFFFFFFFFFFFFFFF AND DUP2 PUSH20 0xFFFFFFFFFFFFFFFFFFFFFFFFFFFFFFFFFFFFFFFF AND SUB PUSH2 0x10C3 JUMPI PUSH0 PUSH1 0x40 MLOAD PUSH32 0x1E4FBDF700000000000000000000000000000000000000000000000000000000 DUP2 MSTORE PUSH1 0x4 ADD PUSH2 0x10BA SWAP2 SWAP1 PUSH2 0x1662 JUMP JUMPDEST PUSH1 0x40 MLOAD DUP1 SWAP2 SUB SWAP1 REVERT JUMPDEST PUSH2 0x10CC DUP2 PUSH2 0x1156 JUMP JUMPDEST POP JUMP JUMPDEST PUSH2 0x10D7 PUSH2 0x1217 JUMP JUMPDEST PUSH20 0xFFFFFFFFFFFFFFFFFFFFFFFFFFFFFFFFFFFFFFFF AND PUSH2 0x10F5 PUSH2 0xD12 JUMP JUMPDEST PUSH20 0xFFFFFFFFFFFFFFFFFFFFFFFFFFFFFFFFFFFFFFFF AND EQ PUSH2 0x1154 JUMPI PUSH2 0x1118 PUSH2 0x1217 JUMP JUMPDEST PUSH1 0x40 MLOAD PUSH32 0x118CDAA700000000000000000000000000000000000000000000000000000000 DUP2 MSTORE PUSH1 0x4 ADD PUSH2 0x114B SWAP2 SWAP1 PUSH2 0x1662 JUMP JUMPDEST PUSH1 0x40 MLOAD DUP1 SWAP2 SUB SWAP1 REVERT JUMPDEST JUMP JUMPDEST PUSH0 DUP1 PUSH0 SWAP1 SLOAD SWAP1 PUSH2 0x100 EXP SWAP1 DIV PUSH20 0xFFFFFFFFFFFFFFFFFFFFFFFFFFFFFFFFFFFFFFFF AND SWAP1 POP DUP2 PUSH0 DUP1 PUSH2 0x100 EXP DUP2 SLOAD DUP2 PUSH20 0xFFFFFFFFFFFFFFFFFFFFFFFFFFFFFFFFFFFFFFFF MUL NOT AND SWAP1 DUP4 PUSH20 0xFFFFFFFFFFFFFFFFFFFFFFFFFFFFFFFFFFFFFFFF AND MUL OR SWAP1 SSTORE POP DUP2 PUSH20 0xFFFFFFFFFFFFFFFFFFFFFFFFFFFFFFFFFFFFFFFF AND DUP2 PUSH20 0xFFFFFFFFFFFFFFFFFFFFFFFFFFFFFFFFFFFFFFFF AND PUSH32 0x8BE0079C531659141344CD1FD0A4F28419497F9722A3DAAFE3B4186F6B6457E0 PUSH1 0x40 MLOAD PUSH1 0x40 MLOAD DUP1 SWAP2 SUB SWAP1 LOG3 POP POP JUMP JUMPDEST PUSH0 CALLER SWAP1 POP SWAP1 JUMP JUMPDEST PUSH1 0x40 MLOAD DUP1 PUSH1 0xA0 ADD PUSH1 0x40 MSTORE DUP1 PUSH0 DUP2 MSTORE PUSH1 0x20 ADD PUSH0 PUSH20 0xFFFFFFFFFFFFFFFFFFFFFFFFFFFFFFFFFFFFFFFF AND DUP2 MSTORE PUSH1 0x20 ADD PUSH1 0x60 DUP2 MSTORE PUSH1 0x20 ADD PUSH0 DUP2 MSTORE PUSH1 0x20 ADD PUSH0 DUP2 MSTORE POP SWAP1 JUMP JUMPDEST PUSH0 PUSH1 0x40 MLOAD SWAP1 POP SWAP1 JUMP JUMPDEST PUSH0 DUP1 REVERT JUMPDEST PUSH0 DUP1 REVERT JUMPDEST PUSH0 PUSH20 0xFFFFFFFFFFFFFFFFFFFFFFFFFFFFFFFFFFFFFFFF DUP3 AND SWAP1 POP SWAP2 SWAP1 POP JUMP JUMPDEST PUSH0 PUSH2 0x1299 DUP3 PUSH2 0x1270 JUMP JUMPDEST SWAP1 POP SWAP2 SWAP1 POP JUMP JUMPDEST PUSH2 0x12A9 DUP2 PUSH2 0x128F JUMP JUMPDEST DUP2 EQ PUSH2 0x12B3 JUMPI PUSH0 DUP1 REVERT JUMPDEST POP JUMP JUMPDEST PUSH0 DUP2 CALLDATALOAD SWAP1 POP PUSH2 0x12C4 DUP2 PUSH2 0x12A0 JUMP JUMPDEST SWAP3 SWAP2 POP POP JUMP JUMPDEST PUSH0 DUP2 SWAP1 POP SWAP2 SWAP1 POP JUMP JUMPDEST PUSH2 0x12DC DUP2 PUSH2 0x12CA JUMP JUMPDEST DUP2 EQ PUSH2 0x12E6 JUMPI PUSH0 DUP1 REVERT JUMPDEST POP JUMP JUMPDEST PUSH0 DUP2 CALLDATALOAD SWAP1 POP PUSH2 0x12F7 DUP2 PUSH2 0x12D3 JUMP JUMPDEST SWAP3 SWAP2 POP POP JUMP JUMPDEST PUSH0 DUP1 PUSH1 0x40 DUP4 DUP6 SUB SLT ISZERO PUSH2 0x1313 JUMPI PUSH2 0x1312 PUSH2 0x1268 JUMP JUMPDEST JUMPDEST PUSH0 PUSH2 0x1320 DUP6 DUP3 DUP7 ADD PUSH2 0x12B6 JUMP JUMPDEST SWAP3 POP POP PUSH1 0x20 PUSH2 0x1331 DUP6 DUP3 DUP7 ADD PUSH2 0x12E9 JUMP JUMPDEST SWAP2 POP POP SWAP3 POP SWAP3 SWAP1 POP JUMP JUMPDEST PUSH2 0x1344 DUP2 PUSH2 0x12CA JUMP JUMPDEST DUP3 MSTORE POP POP JUMP JUMPDEST PUSH2 0x1353 DUP2 PUSH2 0x128F JUMP JUMPDEST DUP3 MSTORE POP POP JUMP JUMPDEST PUSH0 DUP2 MLOAD SWAP1 POP SWAP2 SWAP1 POP JUMP JUMPDEST PUSH0 DUP3 DUP3 MSTORE PUSH1 0x20 DUP3 ADD SWAP1 POP SWAP3 SWAP2 POP POP JUMP JUMPDEST DUP3 DUP2 DUP4 MCOPY PUSH0 DUP4 DUP4 ADD MSTORE POP POP POP JUMP JUMPDEST PUSH0 PUSH1 0x1F NOT PUSH1 0x1F DUP4 ADD AND SWAP1 POP SWAP2 SWAP1 POP JUMP JUMPDEST PUSH0 PUSH2 0x139B DUP3 PUSH2 0x1359 JUMP JUMPDEST PUSH2 0x13A5 DUP2 DUP6 PUSH2 0x1363 JUMP JUMPDEST SWAP4 POP PUSH2 0x13B5 DUP2 DUP6 PUSH1 0x20 DUP7 ADD PUSH2 0x1373 JUMP JUMPDEST PUSH2 0x13BE DUP2 PUSH2 0x1381 JUMP JUMPDEST DUP5 ADD SWAP2 POP POP SWAP3 SWAP2 POP POP JUMP JUMPDEST PUSH0 PUSH1 0xA0 DUP3 ADD SWAP1 POP PUSH2 0x13DC PUSH0 DUP4 ADD DUP9 PUSH2 0x133B JUMP JUMPDEST PUSH2 0x13E9 PUSH1 0x20 DUP4 ADD DUP8 PUSH2 0x134A JUMP JUMPDEST DUP2 DUP2 SUB PUSH1 0x40 DUP4 ADD MSTORE PUSH2 0x13FB DUP2 DUP7 PUSH2 0x1391 JUMP JUMPDEST SWAP1 POP PUSH2 0x140A PUSH1 0x60 DUP4 ADD DUP6 PUSH2 0x133B JUMP JUMPDEST PUSH2 0x1417 PUSH1 0x80 DUP4 ADD DUP5 PUSH2 0x133B JUMP JUMPDEST SWAP7 SWAP6 POP POP POP POP POP POP JUMP JUMPDEST PUSH0 PUSH2 0xFFFF DUP3 AND SWAP1 POP SWAP2 SWAP1 POP JUMP JUMPDEST PUSH2 0x1437 DUP2 PUSH2 0x1421 JUMP JUMPDEST DUP3 MSTORE POP POP JUMP JUMPDEST PUSH0 PUSH1 0x20 DUP3 ADD SWAP1 POP PUSH2 0x1450 PUSH0 DUP4 ADD DUP5 PUSH2 0x142E JUMP JUMPDEST SWAP3 SWAP2 POP POP JUMP JUMPDEST PUSH2 0x145F DUP2 PUSH2 0x1421 JUMP JUMPDEST DUP2 EQ PUSH2 0x1469 JUMPI PUSH0 DUP1 REVERT JUMPDEST POP JUMP JUMPDEST PUSH0 DUP2 CALLDATALOAD SWAP1 POP PUSH2 0x147A DUP2 PUSH2 0x1456 JUMP JUMPDEST SWAP3 SWAP2 POP POP JUMP JUMPDEST PUSH0 PUSH1 0x20 DUP3 DUP5 SUB SLT ISZERO PUSH2 0x1495 JUMPI PUSH2 0x1494 PUSH2 0x1268 JUMP JUMPDEST JUMPDEST PUSH0 PUSH2 0x14A2 DUP5 DUP3 DUP6 ADD PUSH2 0x146C JUMP JUMPDEST SWAP2 POP POP SWAP3 SWAP2 POP POP JUMP JUMPDEST PUSH0 DUP1 REVERT JUMPDEST PUSH0 DUP1 REVERT JUMPDEST PUSH32 0x4E487B7100000000000000000000000000000000000000000000000000000000 PUSH0 MSTORE PUSH1 0x41 PUSH1 0x4 MSTORE PUSH1 0x24 PUSH0 REVERT JUMPDEST PUSH2 0x14E9 DUP3 PUSH2 0x1381 JUMP JUMPDEST DUP2 ADD DUP2 DUP2 LT PUSH8 0xFFFFFFFFFFFFFFFF DUP3 GT OR ISZERO PUSH2 0x1508 JUMPI PUSH2 0x1507 PUSH2 0x14B3 JUMP JUMPDEST JUMPDEST DUP1 PUSH1 0x40 MSTORE POP POP POP JUMP JUMPDEST PUSH0 PUSH2 0x151A PUSH2 0x125F JUMP JUMPDEST SWAP1 POP PUSH2 0x1526 DUP3 DUP3 PUSH2 0x14E0 JUMP JUMPDEST SWAP2 SWAP1 POP JUMP JUMPDEST PUSH0 PUSH8 0xFFFFFFFFFFFFFFFF DUP3 GT ISZERO PUSH2 0x1545 JUMPI PUSH2 0x1544 PUSH2 0x14B3 JUMP JUMPDEST JUMPDEST PUSH2 0x154E DUP3 PUSH2 0x1381 JUMP JUMPDEST SWAP1 POP PUSH1 0x20 DUP2 ADD SWAP1 POP SWAP2 SWAP1 POP JUMP JUMPDEST DUP3 DUP2 DUP4 CALLDATACOPY PUSH0 DUP4 DUP4 ADD MSTORE POP POP POP JUMP JUMPDEST PUSH0 PUSH2 0x157B PUSH2 0x1576 DUP5 PUSH2 0x152B JUMP JUMPDEST PUSH2 0x1511 JUMP JUMPDEST SWAP1 POP DUP3 DUP2 MSTORE PUSH1 0x20 DUP2 ADD DUP5 DUP5 DUP5 ADD GT ISZERO PUSH2 0x1597 JUMPI PUSH2 0x1596 PUSH2 0x14AF JUMP JUMPDEST JUMPDEST PUSH2 0x15A2 DUP5 DUP3 DUP6 PUSH2 0x155B JUMP JUMPDEST POP SWAP4 SWAP3 POP POP POP JUMP JUMPDEST PUSH0 DUP3 PUSH1 0x1F DUP4 ADD SLT PUSH2 0x15BE JUMPI PUSH2 0x15BD PUSH2 0x14AB JUMP JUMPDEST JUMPDEST DUP2 CALLDATALOAD PUSH2 0x15CE DUP5 DUP3 PUSH1 0x20 DUP7 ADD PUSH2 0x1569 JUMP JUMPDEST SWAP2 POP POP SWAP3 SWAP2 POP POP JUMP JUMPDEST PUSH0 PUSH1 0x20 DUP3 DUP5 SUB SLT ISZERO PUSH2 0x15EC JUMPI PUSH2 0x15EB PUSH2 0x1268 JUMP JUMPDEST JUMPDEST PUSH0 DUP3 ADD CALLDATALOAD PUSH8 0xFFFFFFFFFFFFFFFF DUP2 GT ISZERO PUSH2 0x1609 JUMPI PUSH2 0x1608 PUSH2 0x126C JUMP JUMPDEST JUMPDEST PUSH2 0x1615 DUP5 DUP3 DUP6 ADD PUSH2 0x15AA JUMP JUMPDEST SWAP2 POP POP SWAP3 SWAP2 POP POP JUMP JUMPDEST PUSH0 PUSH1 0x20 DUP3 DUP5 SUB SLT ISZERO PUSH2 0x1633 JUMPI PUSH2 0x1632 PUSH2 0x1268 JUMP JUMPDEST JUMPDEST PUSH0 PUSH2 0x1640 DUP5 DUP3 DUP6 ADD PUSH2 0x12B6 JUMP JUMPDEST SWAP2 POP POP SWAP3 SWAP2 POP POP JUMP JUMPDEST PUSH0 PUSH1 0x20 DUP3 ADD SWAP1 POP PUSH2 0x165C PUSH0 DUP4 ADD DUP5 PUSH2 0x133B JUMP JUMPDEST SWAP3 SWAP2 POP POP JUMP JUMPDEST PUSH0 PUSH1 0x20 DUP3 ADD SWAP1 POP PUSH2 0x1675 PUSH0 DUP4 ADD DUP5 PUSH2 0x134A JUMP JUMPDEST SWAP3 SWAP2 POP POP JUMP JUMPDEST PUSH0 DUP2 MLOAD SWAP1 POP SWAP2 SWAP1 POP JUMP JUMPDEST PUSH0 DUP3 DUP3 MSTORE PUSH1 0x20 DUP3 ADD SWAP1 POP SWAP3 SWAP2 POP POP JUMP JUMPDEST PUSH0 DUP2 SWAP1 POP PUSH1 0x20 DUP3 ADD SWAP1 POP SWAP2 SWAP1 POP JUMP JUMPDEST PUSH2 0x16AD DUP2 PUSH2 0x12CA JUMP JUMPDEST DUP3 MSTORE POP POP JUMP JUMPDEST PUSH2 0x16BC DUP2 PUSH2 0x128F JUMP JUMPDEST DUP3 MSTORE POP POP JUMP JUMPDEST PUSH0 DUP3 DUP3 MSTORE PUSH1 0x20 DUP3 ADD SWAP1 POP SWAP3 SWAP2 POP POP JUMP JUMPDEST PUSH0 PUSH2 0x16DC DUP3 PUSH2 0x1359 JUMP JUMPDEST PUSH2 0x16E6 DUP2 DUP6 PUSH2 0x16C2 JUMP JUMPDEST SWAP4 POP PUSH2 0x16F6 DUP2 DUP6 PUSH1 0x20 DUP7 ADD PUSH2 0x1373 JUMP JUMPDEST PUSH2 0x16FF DUP2 PUSH2 0x1381 JUMP JUMPDEST DUP5 ADD SWAP2 POP POP SWAP3 SWAP2 POP POP JUMP JUMPDEST PUSH0 PUSH1 0xA0 DUP4 ADD PUSH0 DUP4 ADD MLOAD PUSH2 0x171F PUSH0 DUP7 ADD DUP3 PUSH2 0x16A4 JUMP JUMPDEST POP PUSH1 0x20 DUP4 ADD MLOAD PUSH2 0x1732 PUSH1 0x20 DUP7 ADD DUP3 PUSH2 0x16B3 JUMP JUMPDEST POP PUSH1 0x40 DUP4 ADD MLOAD DUP5 DUP3 SUB PUSH1 0x40 DUP7 ADD MSTORE PUSH2 0x174A DUP3 DUP3 PUSH2 0x16D2 JUMP JUMPDEST SWAP2 POP POP PUSH1 0x60 DUP4 ADD MLOAD PUSH2 0x175F PUSH1 0x60 DUP7 ADD DUP3 PUSH2 0x16A4 JUMP JUMPDEST POP PUSH1 0x80 DUP4 ADD MLOAD PUSH2 0x1772 PUSH1 0x80 DUP7 ADD DUP3 PUSH2 0x16A4 JUMP JUMPDEST POP DUP1 SWAP2 POP POP SWAP3 SWAP2 POP POP JUMP JUMPDEST PUSH0 PUSH2 0x1788 DUP4 DUP4 PUSH2 0x170A JUMP JUMPDEST SWAP1 POP SWAP3 SWAP2 POP POP JUMP JUMPDEST PUSH0 PUSH1 0x20 DUP3 ADD SWAP1 POP SWAP2 SWAP1 POP JUMP JUMPDEST PUSH0 PUSH2 0x17A6 DUP3 PUSH2 0x167B JUMP JUMPDEST PUSH2 0x17B0 DUP2 DUP6 PUSH2 0x1685 JUMP JUMPDEST SWAP4 POP DUP4 PUSH1 0x20 DUP3 MUL DUP6 ADD PUSH2 0x17C2 DUP6 PUSH2 0x1695 JUMP JUMPDEST DUP1 PUSH0 JUMPDEST DUP6 DUP2 LT ISZERO PUSH2 0x17FD JUMPI DUP5 DUP5 SUB DUP10 MSTORE DUP2 MLOAD PUSH2 0x17DE DUP6 DUP3 PUSH2 0x177D JUMP JUMPDEST SWAP5 POP PUSH2 0x17E9 DUP4 PUSH2 0x1790 JUMP JUMPDEST SWAP3 POP PUSH1 0x20 DUP11 ADD SWAP10 POP POP PUSH1 0x1 DUP2 ADD SWAP1 POP PUSH2 0x17C5 JUMP JUMPDEST POP DUP3 SWAP8 POP DUP8 SWAP6 POP POP POP POP POP POP SWAP3 SWAP2 POP POP JUMP JUMPDEST PUSH0 PUSH1 0x20 DUP3 ADD SWAP1 POP DUP2 DUP2 SUB PUSH0 DUP4 ADD MSTORE PUSH2 0x1827 DUP2 DUP5 PUSH2 0x179C JUMP JUMPDEST SWAP1 POP SWAP3 SWAP2 POP POP JUMP JUMPDEST PUSH0 PUSH1 0x20 DUP3 DUP5 SUB SLT ISZERO PUSH2 0x1844 JUMPI PUSH2 0x1843 PUSH2 0x1268 JUMP JUMPDEST JUMPDEST PUSH0 PUSH2 0x1851 DUP5 DUP3 DUP6 ADD PUSH2 0x12E9 JUMP JUMPDEST SWAP2 POP POP SWAP3 SWAP2 POP POP JUMP JUMPDEST PUSH0 PUSH1 0xA0 DUP4 ADD PUSH0 DUP4 ADD MLOAD PUSH2 0x186F PUSH0 DUP7 ADD DUP3 PUSH2 0x16A4 JUMP JUMPDEST POP PUSH1 0x20 DUP4 ADD MLOAD PUSH2 0x1882 PUSH1 0x20 DUP7 ADD DUP3 PUSH2 0x16B3 JUMP JUMPDEST POP PUSH1 0x40 DUP4 ADD MLOAD DUP5 DUP3 SUB PUSH1 0x40 DUP7 ADD MSTORE PUSH2 0x189A DUP3 DUP3 PUSH2 0x16D2 JUMP JUMPDEST SWAP2 POP POP PUSH1 0x60 DUP4 ADD MLOAD PUSH2 0x18AF PUSH1 0x60 DUP7 ADD DUP3 PUSH2 0x16A4 JUMP JUMPDEST POP PUSH1 0x80 DUP4 ADD MLOAD PUSH2 0x18C2 PUSH1 0x80 DUP7 ADD DUP3 PUSH2 0x16A4 JUMP JUMPDEST POP DUP1 SWAP2 POP POP SWAP3 SWAP2 POP POP JUMP JUMPDEST PUSH0 PUSH1 0x20 DUP3 ADD SWAP1 POP DUP2 DUP2 SUB PUSH0 DUP4 ADD MSTORE PUSH2 0x18E5 DUP2 DUP5 PUSH2 0x185A JUMP JUMPDEST SWAP1 POP SWAP3 SWAP2 POP POP JUMP JUMPDEST PUSH32 0x4E487B7100000000000000000000000000000000000000000000000000000000 PUSH0 MSTORE PUSH1 0x22 PUSH1 0x4 MSTORE PUSH1 0x24 PUSH0 REVERT JUMPDEST PUSH0 PUSH1 0x2 DUP3 DIV SWAP1 POP PUSH1 0x1 DUP3 AND DUP1 PUSH2 0x1931 JUMPI PUSH1 0x7F DUP3 AND SWAP2 POP JUMPDEST PUSH1 0x20 DUP3 LT DUP2 SUB PUSH2 0x1944 JUMPI PUSH2 0x1943 PUSH2 0x18ED JUMP JUMPDEST JUMPDEST POP SWAP2 SWAP1 POP JUMP JUMPDEST PUSH0 DUP1 REVERT JUMPDEST PUSH0 DUP1 REVERT JUMPDEST PUSH0 PUSH2 0x1964 PUSH2 0x195F DUP5 PUSH2 0x152B JUMP JUMPDEST PUSH2 0x1511 JUMP JUMPDEST SWAP1 POP DUP3 DUP2 MSTORE PUSH1 0x20 DUP2 ADD DUP5 DUP5 DUP5 ADD GT ISZERO PUSH2 0x1980 JUMPI PUSH2 0x197F PUSH2 0x14AF JUMP JUMPDEST JUMPDEST PUSH2 0x198B DUP5 DUP3 DUP6 PUSH2 0x1373 JUMP JUMPDEST POP SWAP4 SWAP3 POP POP POP JUMP JUMPDEST PUSH0 DUP3 PUSH1 0x1F DUP4 ADD SLT PUSH2 0x19A7 JUMPI PUSH2 0x19A6 PUSH2 0x14AB JUMP JUMPDEST JUMPDEST DUP2 MLOAD PUSH2 0x19B7 DUP5 DUP3 PUSH1 0x20 DUP7 ADD PUSH2 0x1952 JUMP JUMPDEST SWAP2 POP POP SWAP3 SWAP2 POP POP JUMP JUMPDEST PUSH0 PUSH1 0x40 DUP3 DUP5 SUB SLT ISZERO PUSH2 0x19D5 JUMPI PUSH2 0x19D4 PUSH2 0x194A JUMP JUMPDEST JUMPDEST PUSH2 0x19DF PUSH1 0x40 PUSH2 0x1511 JUMP JUMPDEST SWAP1 POP PUSH0 DUP3 ADD MLOAD PUSH8 0xFFFFFFFFFFFFFFFF DUP2 GT ISZERO PUSH2 0x19FE JUMPI PUSH2 0x19FD PUSH2 0x194E JUMP JUMPDEST JUMPDEST PUSH2 0x1A0A DUP5 DUP3 DUP6 ADD PUSH2 0x1993 JUMP JUMPDEST PUSH0 DUP4 ADD MSTORE POP PUSH1 0x20 DUP3 ADD MLOAD PUSH8 0xFFFFFFFFFFFFFFFF DUP2 GT ISZERO PUSH2 0x1A2D JUMPI PUSH2 0x1A2C PUSH2 0x194E JUMP JUMPDEST JUMPDEST PUSH2 0x1A39 DUP5 DUP3 DUP6 ADD PUSH2 0x1993 JUMP JUMPDEST PUSH1 0x20 DUP4 ADD MSTORE POP SWAP3 SWAP2 POP POP JUMP JUMPDEST PUSH0 PUSH1 0x20 DUP3 DUP5 SUB SLT ISZERO PUSH2 0x1A5A JUMPI PUSH2 0x1A59 PUSH2 0x1268 JUMP JUMPDEST JUMPDEST PUSH0 DUP3 ADD MLOAD PUSH8 0xFFFFFFFFFFFFFFFF DUP2 GT ISZERO PUSH2 0x1A77 JUMPI PUSH2 0x1A76 PUSH2 0x126C JUMP JUMPDEST JUMPDEST PUSH2 0x1A83 DUP5 DUP3 DUP6 ADD PUSH2 0x19C0 JUMP JUMPDEST SWAP2 POP POP SWAP3 SWAP2 POP POP JUMP JUMPDEST PUSH32 0x55736572204E6F74205265676973746572656420212100000000000000000000 PUSH0 DUP3 ADD MSTORE POP JUMP JUMPDEST PUSH0 PUSH2 0x1AC0 PUSH1 0x16 DUP4 PUSH2 0x1363 JUMP JUMPDEST SWAP2 POP PUSH2 0x1ACB DUP3 PUSH2 0x1A8C JUMP JUMPDEST PUSH1 0x20 DUP3 ADD SWAP1 POP SWAP2 SWAP1 POP JUMP JUMPDEST PUSH0 PUSH1 0x20 DUP3 ADD SWAP1 POP DUP2 DUP2 SUB PUSH0 DUP4 ADD MSTORE PUSH2 0x1AED DUP2 PUSH2 0x1AB4 JUMP JUMPDEST SWAP1 POP SWAP2 SWAP1 POP JUMP JUMPDEST PUSH32 0x4E487B7100000000000000000000000000000000000000000000000000000000 PUSH0 MSTORE PUSH1 0x32 PUSH1 0x4 MSTORE PUSH1 0x24 PUSH0 REVERT JUMPDEST PUSH32 0x547765657420646F6573206E6F74206578697374000000000000000000000000 PUSH0 DUP3 ADD MSTORE POP JUMP JUMPDEST PUSH0 PUSH2 0x1B55 PUSH1 0x14 DUP4 PUSH2 0x1363 JUMP JUMPDEST SWAP2 POP PUSH2 0x1B60 DUP3 PUSH2 0x1B21 JUMP JUMPDEST PUSH1 0x20 DUP3 ADD SWAP1 POP SWAP2 SWAP1 POP JUMP JUMPDEST PUSH0 PUSH1 0x20 DUP3 ADD SWAP1 POP DUP2 DUP2 SUB PUSH0 DUP4 ADD MSTORE PUSH2 0x1B82 DUP2 PUSH2 0x1B49 JUMP JUMPDEST SWAP1 POP SWAP2 SWAP1 POP JUMP JUMPDEST PUSH32 0x547765657420686173206E6F206C696B65730000000000000000000000000000 PUSH0 DUP3 ADD MSTORE POP JUMP JUMPDEST PUSH0 PUSH2 0x1BBD PUSH1 0x12 DUP4 PUSH2 0x1363 JUMP JUMPDEST SWAP2 POP PUSH2 0x1BC8 DUP3 PUSH2 0x1B89 JUMP JUMPDEST PUSH1 0x20 DUP3 ADD SWAP1 POP SWAP2 SWAP1 POP JUMP JUMPDEST PUSH0 PUSH1 0x20 DUP3 ADD SWAP1 POP DUP2 DUP2 SUB PUSH0 DUP4 ADD MSTORE PUSH2 0x1BEA DUP2 PUSH2 0x1BB1 JUMP JUMPDEST SWAP1 POP SWAP2 SWAP1 POP JUMP JUMPDEST PUSH32 0x4E487B7100000000000000000000000000000000000000000000000000000000 PUSH0 MSTORE PUSH1 0x11 PUSH1 0x4 MSTORE PUSH1 0x24 PUSH0 REVERT JUMPDEST PUSH0 PUSH2 0x1C28 DUP3 PUSH2 0x12CA JUMP JUMPDEST SWAP2 POP PUSH0 DUP3 SUB PUSH2 0x1C3A JUMPI PUSH2 0x1C39 PUSH2 0x1BF1 JUMP JUMPDEST JUMPDEST PUSH1 0x1 DUP3 SUB SWAP1 POP SWAP2 SWAP1 POP JUMP JUMPDEST PUSH0 PUSH1 0x80 DUP3 ADD SWAP1 POP PUSH2 0x1C58 PUSH0 DUP4 ADD DUP8 PUSH2 0x134A JUMP JUMPDEST PUSH2 0x1C65 PUSH1 0x20 DUP4 ADD DUP7 PUSH2 0x134A JUMP JUMPDEST PUSH2 0x1C72 PUSH1 0x40 DUP4 ADD DUP6 PUSH2 0x133B JUMP JUMPDEST PUSH2 0x1C7F PUSH1 0x60 DUP4 ADD DUP5 PUSH2 0x133B JUMP JUMPDEST SWAP6 SWAP5 POP POP POP POP POP JUMP JUMPDEST PUSH32 0x547765657420646F65736E6F7420657869737400000000000000000000000000 PUSH0 DUP3 ADD MSTORE POP JUMP JUMPDEST PUSH0 PUSH2 0x1CBC PUSH1 0x13 DUP4 PUSH2 0x1363 JUMP JUMPDEST SWAP2 POP PUSH2 0x1CC7 DUP3 PUSH2 0x1C88 JUMP JUMPDEST PUSH1 0x20 DUP3 ADD SWAP1 POP SWAP2 SWAP1 POP JUMP JUMPDEST PUSH0 PUSH1 0x20 DUP3 ADD SWAP1 POP DUP2 DUP2 SUB PUSH0 DUP4 ADD MSTORE PUSH2 0x1CE9 DUP2 PUSH2 0x1CB0 JUMP JUMPDEST SWAP1 POP SWAP2 SWAP1 POP JUMP JUMPDEST PUSH0 PUSH2 0x1CFA DUP3 PUSH2 0x12CA JUMP JUMPDEST SWAP2 POP PUSH32 0xFFFFFFFFFFFFFFFFFFFFFFFFFFFFFFFFFFFFFFFFFFFFFFFFFFFFFFFFFFFFFFFF DUP3 SUB PUSH2 0x1D2C JUMPI PUSH2 0x1D2B PUSH2 0x1BF1 JUMP JUMPDEST JUMPDEST PUSH1 0x1 DUP3 ADD SWAP1 POP SWAP2 SWAP1 POP JUMP JUMPDEST PUSH32 0x547765657420697320746F6F206C6F6E672062726F2121000000000000000000 PUSH0 DUP3 ADD MSTORE POP JUMP JUMPDEST PUSH0 PUSH2 0x1D6B PUSH1 0x17 DUP4 PUSH2 0x1363 JUMP JUMPDEST SWAP2 POP PUSH2 0x1D76 DUP3 PUSH2 0x1D37 JUMP JUMPDEST PUSH1 0x20 DUP3 ADD SWAP1 POP SWAP2 SWAP1 POP JUMP JUMPDEST PUSH0 PUSH1 0x20 DUP3 ADD SWAP1 POP DUP2 DUP2 SUB PUSH0 DUP4 ADD MSTORE PUSH2 0x1D98 DUP2 PUSH2 0x1D5F JUMP JUMPDEST SWAP1 POP SWAP2 SWAP1 POP JUMP JUMPDEST PUSH0 DUP2 SWAP1 POP DUP2 PUSH0 MSTORE PUSH1 0x20 PUSH0 KECCAK256 SWAP1 POP SWAP2 SWAP1 POP JUMP JUMPDEST PUSH0 PUSH1 0x20 PUSH1 0x1F DUP4 ADD DIV SWAP1 POP SWAP2 SWAP1 POP JUMP JUMPDEST PUSH0 DUP3 DUP3 SHL SWAP1 POP SWAP3 SWAP2 POP POP JUMP JUMPDEST PUSH0 PUSH1 0x8 DUP4 MUL PUSH2 0x1DFB PUSH32 0xFFFFFFFFFFFFFFFFFFFFFFFFFFFFFFFFFFFFFFFFFFFFFFFFFFFFFFFFFFFFFFFF DUP3 PUSH2 0x1DC0 JUMP JUMPDEST PUSH2 0x1E05 DUP7 DUP4 PUSH2 0x1DC0 JUMP JUMPDEST SWAP6 POP DUP1 NOT DUP5 AND SWAP4 POP DUP1 DUP7 AND DUP5 OR SWAP3 POP POP POP SWAP4 SWAP3 POP POP POP JUMP JUMPDEST PUSH0 DUP2 SWAP1 POP SWAP2 SWAP1 POP JUMP JUMPDEST PUSH0 PUSH2 0x1E40 PUSH2 0x1E3B PUSH2 0x1E36 DUP5 PUSH2 0x12CA JUMP JUMPDEST PUSH2 0x1E1D JUMP JUMPDEST PUSH2 0x12CA JUMP JUMPDEST SWAP1 POP SWAP2 SWAP1 POP JUMP JUMPDEST PUSH0 DUP2 SWAP1 POP SWAP2 SWAP1 POP JUMP JUMPDEST PUSH2 0x1E59 DUP4 PUSH2 0x1E26 JUMP JUMPDEST PUSH2 0x1E6D PUSH2 0x1E65 DUP3 PUSH2 0x1E47 JUMP JUMPDEST DUP5 DUP5 SLOAD PUSH2 0x1DCC JUMP JUMPDEST DUP3 SSTORE POP POP POP POP JUMP JUMPDEST PUSH0 SWAP1 JUMP JUMPDEST PUSH2 0x1E81 PUSH2 0x1E75 JUMP JUMPDEST PUSH2 0x1E8C DUP2 DUP5 DUP5 PUSH2 0x1E50 JUMP JUMPDEST POP POP POP JUMP JUMPDEST JUMPDEST DUP2 DUP2 LT ISZERO PUSH2 0x1EAF JUMPI PUSH2 0x1EA4 PUSH0 DUP3 PUSH2 0x1E79 JUMP JUMPDEST PUSH1 0x1 DUP2 ADD SWAP1 POP PUSH2 0x1E92 JUMP JUMPDEST POP POP JUMP JUMPDEST PUSH1 0x1F DUP3 GT ISZERO PUSH2 0x1EF4 JUMPI PUSH2 0x1EC5 DUP2 PUSH2 0x1D9F JUMP JUMPDEST PUSH2 0x1ECE DUP5 PUSH2 0x1DB1 JUMP JUMPDEST DUP2 ADD PUSH1 0x20 DUP6 LT ISZERO PUSH2 0x1EDD JUMPI DUP2 SWAP1 POP JUMPDEST PUSH2 0x1EF1 PUSH2 0x1EE9 DUP6 PUSH2 0x1DB1 JUMP JUMPDEST DUP4 ADD DUP3 PUSH2 0x1E91 JUMP JUMPDEST POP POP JUMPDEST POP POP POP JUMP JUMPDEST PUSH0 DUP3 DUP3 SHR SWAP1 POP SWAP3 SWAP2 POP POP JUMP JUMPDEST PUSH0 PUSH2 0x1F14 PUSH0 NOT DUP5 PUSH1 0x8 MUL PUSH2 0x1EF9 JUMP JUMPDEST NOT DUP1 DUP4 AND SWAP2 POP POP SWAP3 SWAP2 POP POP JUMP JUMPDEST PUSH0 PUSH2 0x1F2C DUP4 DUP4 PUSH2 0x1F05 JUMP JUMPDEST SWAP2 POP DUP3 PUSH1 0x2 MUL DUP3 OR SWAP1 POP SWAP3 SWAP2 POP POP JUMP JUMPDEST PUSH2 0x1F45 DUP3 PUSH2 0x1359 JUMP JUMPDEST PUSH8 0xFFFFFFFFFFFFFFFF DUP2 GT ISZERO PUSH2 0x1F5E JUMPI PUSH2 0x1F5D PUSH2 0x14B3 JUMP JUMPDEST JUMPDEST PUSH2 0x1F68 DUP3 SLOAD PUSH2 0x191A JUMP JUMPDEST PUSH2 0x1F73 DUP3 DUP3 DUP6 PUSH2 0x1EB3 JUMP JUMPDEST PUSH0 PUSH1 0x20 SWAP1 POP PUSH1 0x1F DUP4 GT PUSH1 0x1 DUP2 EQ PUSH2 0x1FA4 JUMPI PUSH0 DUP5 ISZERO PUSH2 0x1F92 JUMPI DUP3 DUP8 ADD MLOAD SWAP1 POP JUMPDEST PUSH2 0x1F9C DUP6 DUP3 PUSH2 0x1F21 JUMP JUMPDEST DUP7 SSTORE POP PUSH2 0x2003 JUMP JUMPDEST PUSH1 0x1F NOT DUP5 AND PUSH2 0x1FB2 DUP7 PUSH2 0x1D9F JUMP JUMPDEST PUSH0 JUMPDEST DUP3 DUP2 LT ISZERO PUSH2 0x1FD9 JUMPI DUP5 DUP10 ADD MLOAD DUP3 SSTORE PUSH1 0x1 DUP3 ADD SWAP2 POP PUSH1 0x20 DUP6 ADD SWAP5 POP PUSH1 0x20 DUP2 ADD SWAP1 POP PUSH2 0x1FB4 JUMP JUMPDEST DUP7 DUP4 LT ISZERO PUSH2 0x1FF6 JUMPI DUP5 DUP10 ADD MLOAD PUSH2 0x1FF2 PUSH1 0x1F DUP10 AND DUP3 PUSH2 0x1F05 JUMP JUMPDEST DUP4 SSTORE POP JUMPDEST PUSH1 0x1 PUSH1 0x2 DUP9 MUL ADD DUP9 SSTORE POP POP POP JUMPDEST POP POP POP POP POP POP JUMP JUMPDEST PUSH0 PUSH1 0x80 DUP3 ADD SWAP1 POP PUSH2 0x201E PUSH0 DUP4 ADD DUP8 PUSH2 0x133B JUMP JUMPDEST PUSH2 0x202B PUSH1 0x20 DUP4 ADD DUP7 PUSH2 0x134A JUMP JUMPDEST DUP2 DUP2 SUB PUSH1 0x40 DUP4 ADD MSTORE PUSH2 0x203D DUP2 DUP6 PUSH2 0x1391 JUMP JUMPDEST SWAP1 POP PUSH2 0x204C PUSH1 0x60 DUP4 ADD DUP5 PUSH2 0x133B JUMP JUMPDEST SWAP6 SWAP5 POP POP POP POP POP JUMP JUMPDEST PUSH0 PUSH2 0x205F DUP3 PUSH2 0x12CA JUMP JUMPDEST SWAP2 POP PUSH2 0x206A DUP4 PUSH2 0x12CA JUMP JUMPDEST SWAP3 POP DUP3 DUP3 ADD SWAP1 POP DUP1 DUP3 GT ISZERO PUSH2 0x2082 JUMPI PUSH2 0x2081 PUSH2 0x1BF1 JUMP JUMPDEST JUMPDEST SWAP3 SWAP2 POP POP JUMP INVALID LOG2 PUSH5 0x6970667358 0x22 SLT KECCAK256 0xDF 0xDD 0xE2 TIMESTAMP 0xE6 PUSH27 0x97E55AC2F07F246C5143C473F4C4B784939C7770A4FADFB10EC764 PUSH20 0x6F6C634300081A00330000000000000000000000 "
				},
				"gasEstimates": {
					"creation": {
						"codeDepositCost": "1676400",
						"executionCost": "infinite",
						"totalCost": "infinite"
					},
					"external": {
						"changeTweetLength(uint16)": "infinite",
						"createTweet(string)": "infinite",
						"getAlltweets(address)": "infinite",
						"getTotalLikes(address)": "infinite",
						"getTweet(uint256)": "infinite",
						"likeTweet(address,uint256)": "infinite",
						"max_length()": "2539",
						"owner()": "2559",
						"renounceOwnership()": "infinite",
						"transferOwnership(address)": "infinite",
						"tweets(address,uint256)": "infinite",
						"unlikeTweet(address,uint256)": "infinite"
					}
				},
				"methodIdentifiers": {
					"changeTweetLength(uint16)": "58bfa4ab",
					"createTweet(string)": "7c9cd2bc",
					"getAlltweets(address)": "9fedc6aa",
					"getTotalLikes(address)": "820785cc",
					"getTweet(uint256)": "c3ad5ecb",
					"likeTweet(address,uint256)": "63378216",
					"max_length()": "2b82b1b6",
					"owner()": "8da5cb5b",
					"renounceOwnership()": "715018a6",
					"transferOwnership(address)": "f2fde38b",
					"tweets(address,uint256)": "05a1b4a9",
					"unlikeTweet(address,uint256)": "3d9b569f"
				}
			},
			"storageLayout": {
				"storage": [
					{
						"astId": 8,
						"contract": "contracts/TWITTER PROJECT/Twitter.sol:twitter",
						"label": "_owner",
						"offset": 0,
						"slot": "0",
						"type": "t_address"
					},
					{
						"astId": 199,
						"contract": "contracts/TWITTER PROJECT/Twitter.sol:twitter",
						"label": "max_length",
						"offset": 20,
						"slot": "0",
						"type": "t_uint16"
					},
					{
						"astId": 216,
						"contract": "contracts/TWITTER PROJECT/Twitter.sol:twitter",
						"label": "tweets",
						"offset": 0,
						"slot": "1",
						"type": "t_mapping(t_address,t_array(t_struct(Stweet)210_storage)dyn_storage)"
					},
					{
						"astId": 219,
						"contract": "contracts/TWITTER PROJECT/Twitter.sol:twitter",
						"label": "profileContract",
						"offset": 0,
						"slot": "2",
						"type": "t_contract(Iprofile)194"
					}
				],
				"types": {
					"t_address": {
						"encoding": "inplace",
						"label": "address",
						"numberOfBytes": "20"
					},
					"t_array(t_struct(Stweet)210_storage)dyn_storage": {
						"base": "t_struct(Stweet)210_storage",
						"encoding": "dynamic_array",
						"label": "struct twitter.Stweet[]",
						"numberOfBytes": "32"
					},
					"t_contract(Iprofile)194": {
						"encoding": "inplace",
						"label": "contract Iprofile",
						"numberOfBytes": "20"
					},
					"t_mapping(t_address,t_array(t_struct(Stweet)210_storage)dyn_storage)": {
						"encoding": "mapping",
						"key": "t_address",
						"label": "mapping(address => struct twitter.Stweet[])",
						"numberOfBytes": "32",
						"value": "t_array(t_struct(Stweet)210_storage)dyn_storage"
					},
					"t_string_storage": {
						"encoding": "bytes",
						"label": "string",
						"numberOfBytes": "32"
					},
					"t_struct(Stweet)210_storage": {
						"encoding": "inplace",
						"label": "struct twitter.Stweet",
						"members": [
							{
								"astId": 201,
								"contract": "contracts/TWITTER PROJECT/Twitter.sol:twitter",
								"label": "id",
								"offset": 0,
								"slot": "0",
								"type": "t_uint256"
							},
							{
								"astId": 203,
								"contract": "contracts/TWITTER PROJECT/Twitter.sol:twitter",
								"label": "author",
								"offset": 0,
								"slot": "1",
								"type": "t_address"
							},
							{
								"astId": 205,
								"contract": "contracts/TWITTER PROJECT/Twitter.sol:twitter",
								"label": "content",
								"offset": 0,
								"slot": "2",
								"type": "t_string_storage"
							},
							{
								"astId": 207,
								"contract": "contracts/TWITTER PROJECT/Twitter.sol:twitter",
								"label": "timestamp",
								"offset": 0,
								"slot": "3",
								"type": "t_uint256"
							},
							{
								"astId": 209,
								"contract": "contracts/TWITTER PROJECT/Twitter.sol:twitter",
								"label": "likes",
								"offset": 0,
								"slot": "4",
								"type": "t_uint256"
							}
						],
						"numberOfBytes": "160"
					},
					"t_uint16": {
						"encoding": "inplace",
						"label": "uint16",
						"numberOfBytes": "2"
					},
					"t_uint256": {
						"encoding": "inplace",
						"label": "uint256",
						"numberOfBytes": "32"
					}
				}
			},
			"userdoc": {
				"kind": "user",
				"methods": {},
				"version": 1
			}
		}
	}
}